{
  "contracts/ChainConnectSocial.sol": {
    "ChainConnectSocial": {
      "abi": [
        {
          "inputs": [
            {
              "internalType": "contract IERC20",
              "name": "_tokenAddress",
              "type": "address"
            }
          ],
          "stateMutability": "nonpayable",
          "type": "constructor"
        },
        {
          "anonymous": false,
          "inputs": [
            {
              "indexed": true,
              "internalType": "address",
              "name": "_postAuthor",
              "type": "address"
            },
            {
              "indexed": false,
              "internalType": "uint256",
              "name": "_postId",
              "type": "uint256"
            },
            {
              "indexed": true,
              "internalType": "address",
              "name": "_commentAuthor",
              "type": "address"
            },
            {
              "indexed": false,
              "internalType": "uint256",
              "name": "_time",
              "type": "uint256"
            }
          ],
          "name": "CommentOnATweet",
          "type": "event"
        },
        {
          "anonymous": false,
          "inputs": [
            {
              "indexed": true,
              "internalType": "address",
              "name": "_sender",
              "type": "address"
            },
            {
              "indexed": false,
              "internalType": "uint256",
              "name": "_postId",
              "type": "uint256"
            },
            {
              "indexed": false,
              "internalType": "uint256",
              "name": "_amount",
              "type": "uint256"
            },
            {
              "indexed": true,
              "internalType": "address",
              "name": "_postAuthor",
              "type": "address"
            },
            {
              "indexed": false,
              "internalType": "uint256",
              "name": "_time",
              "type": "uint256"
            }
          ],
          "name": "IgniteATweet",
          "type": "event"
        },
        {
          "anonymous": false,
          "inputs": [
            {
              "indexed": true,
              "internalType": "address",
              "name": "_postAuthor",
              "type": "address"
            },
            {
              "indexed": false,
              "internalType": "uint256",
              "name": "_postId",
              "type": "uint256"
            },
            {
              "indexed": true,
              "internalType": "address",
              "name": "_likeAuthor",
              "type": "address"
            },
            {
              "indexed": false,
              "internalType": "uint256",
              "name": "_time",
              "type": "uint256"
            }
          ],
          "name": "LikeATweet",
          "type": "event"
        },
        {
          "inputs": [],
          "name": "addUser",
          "outputs": [],
          "stateMutability": "nonpayable",
          "type": "function"
        },
        {
          "inputs": [],
          "name": "admin",
          "outputs": [
            {
              "internalType": "address",
              "name": "",
              "type": "address"
            }
          ],
          "stateMutability": "view",
          "type": "function"
        },
        {
          "inputs": [
            {
              "internalType": "uint256",
              "name": "_postId",
              "type": "uint256"
            },
            {
              "internalType": "string",
              "name": "comment",
              "type": "string"
            },
            {
              "internalType": "string",
              "name": "imageOne",
              "type": "string"
            },
            {
              "internalType": "string",
              "name": "imageTwo",
              "type": "string"
            }
          ],
          "name": "commentOnPost",
          "outputs": [],
          "stateMutability": "payable",
          "type": "function"
        },
        {
          "inputs": [
            {
              "internalType": "string",
              "name": "usersPost",
              "type": "string"
            },
            {
              "internalType": "string",
              "name": "imageOne",
              "type": "string"
            },
            {
              "internalType": "string",
              "name": "imageTwo",
              "type": "string"
            }
          ],
          "name": "createAPost",
          "outputs": [
            {
              "internalType": "uint256",
              "name": "",
              "type": "uint256"
            }
          ],
          "stateMutability": "payable",
          "type": "function"
        },
        {
          "inputs": [
            {
              "internalType": "address",
              "name": "user",
              "type": "address"
            }
          ],
          "name": "deactivateUser",
          "outputs": [],
          "stateMutability": "nonpayable",
          "type": "function"
        },
        {
          "inputs": [
            {
              "internalType": "uint256",
              "name": "_amount",
              "type": "uint256"
            }
          ],
          "name": "depositToSocialFi",
          "outputs": [],
          "stateMutability": "nonpayable",
          "type": "function"
        },
        {
          "inputs": [],
          "name": "earningsPerInteraction",
          "outputs": [
            {
              "internalType": "uint256",
              "name": "",
              "type": "uint256"
            }
          ],
          "stateMutability": "view",
          "type": "function"
        },
        {
          "inputs": [
            {
              "internalType": "uint256",
              "name": "pageNumber",
              "type": "uint256"
            },
            {
              "internalType": "uint256",
              "name": "pageSize",
              "type": "uint256"
            }
          ],
          "name": "getRecentPosts",
          "outputs": [
            {
              "components": [
                {
                  "internalType": "uint256",
                  "name": "postId",
                  "type": "uint256"
                },
                {
                  "internalType": "address",
                  "name": "author",
                  "type": "address"
                },
                {
                  "internalType": "string",
                  "name": "post",
                  "type": "string"
                },
                {
                  "internalType": "string",
                  "name": "imageOne",
                  "type": "string"
                },
                {
                  "internalType": "string",
                  "name": "imageTwo",
                  "type": "string"
                },
                {
                  "internalType": "uint256",
                  "name": "likeCount",
                  "type": "uint256"
                },
                {
                  "internalType": "uint256",
                  "name": "igniteCount",
                  "type": "uint256"
                },
                {
                  "internalType": "uint256",
                  "name": "createdAt",
                  "type": "uint256"
                },
                {
                  "internalType": "uint256",
                  "name": "commentCount",
                  "type": "uint256"
                }
              ],
              "internalType": "struct ChainConnectSocial.Post[]",
              "name": "",
              "type": "tuple[]"
            }
          ],
          "stateMutability": "view",
          "type": "function"
        },
        {
          "inputs": [
            {
              "internalType": "address",
              "name": "_address",
              "type": "address"
            }
          ],
          "name": "getUser",
          "outputs": [
            {
              "components": [
                {
                  "internalType": "uint256",
                  "name": "userId",
                  "type": "uint256"
                },
                {
                  "internalType": "address",
                  "name": "userAddress",
                  "type": "address"
                },
                {
                  "internalType": "string",
                  "name": "profileImage",
                  "type": "string"
                },
                {
                  "internalType": "uint256",
                  "name": "earnedAmount",
                  "type": "uint256"
                },
                {
                  "internalType": "bool",
                  "name": "status",
                  "type": "bool"
                },
                {
                  "internalType": "string",
                  "name": "profile_name",
                  "type": "string"
                },
                {
                  "internalType": "uint256",
                  "name": "followerCount",
                  "type": "uint256"
                },
                {
                  "internalType": "uint256",
                  "name": "followingCount",
                  "type": "uint256"
                }
              ],
              "internalType": "struct ChainConnectSocial.User",
              "name": "user",
              "type": "tuple"
            }
          ],
          "stateMutability": "view",
          "type": "function"
        },
        {
          "inputs": [
            {
              "internalType": "uint256",
              "name": "_postId",
              "type": "uint256"
            },
            {
              "internalType": "uint256",
              "name": "",
              "type": "uint256"
            },
            {
              "internalType": "address payable",
              "name": "_author",
              "type": "address"
            }
          ],
          "name": "igniteAPost",
          "outputs": [],
          "stateMutability": "payable",
          "type": "function"
        },
        {
          "inputs": [
            {
              "internalType": "address",
              "name": "",
              "type": "address"
            }
          ],
          "name": "isAdmin",
          "outputs": [
            {
              "internalType": "bool",
              "name": "",
              "type": "bool"
            }
          ],
          "stateMutability": "view",
          "type": "function"
        },
        {
          "inputs": [
            {
              "internalType": "uint256",
              "name": "_postId",
              "type": "uint256"
            }
          ],
          "name": "likeAPost",
          "outputs": [],
          "stateMutability": "payable",
          "type": "function"
        },
        {
          "inputs": [
            {
              "internalType": "address",
              "name": "newAdmin",
              "type": "address"
            }
          ],
          "name": "makeAdmin",
          "outputs": [],
          "stateMutability": "nonpayable",
          "type": "function"
        },
        {
          "inputs": [
            {
              "internalType": "uint256",
              "name": "",
              "type": "uint256"
            },
            {
              "internalType": "uint256",
              "name": "",
              "type": "uint256"
            }
          ],
          "name": "postComments",
          "outputs": [
            {
              "internalType": "address",
              "name": "author",
              "type": "address"
            },
            {
              "internalType": "string",
              "name": "comment",
              "type": "string"
            },
            {
              "internalType": "string",
              "name": "imageOne",
              "type": "string"
            },
            {
              "internalType": "string",
              "name": "imageTwo",
              "type": "string"
            },
            {
              "internalType": "uint256",
              "name": "createdAt",
              "type": "uint256"
            },
            {
              "internalType": "string",
              "name": "userName",
              "type": "string"
            }
          ],
          "stateMutability": "view",
          "type": "function"
        },
        {
          "inputs": [],
          "name": "postId",
          "outputs": [
            {
              "internalType": "uint256",
              "name": "",
              "type": "uint256"
            }
          ],
          "stateMutability": "view",
          "type": "function"
        },
        {
          "inputs": [
            {
              "internalType": "uint256",
              "name": "",
              "type": "uint256"
            }
          ],
          "name": "postIds",
          "outputs": [
            {
              "internalType": "uint256",
              "name": "",
              "type": "uint256"
            }
          ],
          "stateMutability": "view",
          "type": "function"
        },
        {
          "inputs": [
            {
              "internalType": "uint256",
              "name": "",
              "type": "uint256"
            },
            {
              "internalType": "address",
              "name": "",
              "type": "address"
            }
          ],
          "name": "postIgnites",
          "outputs": [
            {
              "internalType": "uint256",
              "name": "",
              "type": "uint256"
            }
          ],
          "stateMutability": "view",
          "type": "function"
        },
        {
          "inputs": [
            {
              "internalType": "uint256",
              "name": "",
              "type": "uint256"
            },
            {
              "internalType": "address",
              "name": "",
              "type": "address"
            }
          ],
          "name": "postLikes",
          "outputs": [
            {
              "internalType": "bool",
              "name": "",
              "type": "bool"
            }
          ],
          "stateMutability": "view",
          "type": "function"
        },
        {
          "inputs": [
            {
              "internalType": "uint256",
              "name": "",
              "type": "uint256"
            }
          ],
          "name": "posts",
          "outputs": [
            {
              "internalType": "uint256",
              "name": "postId",
              "type": "uint256"
            },
            {
              "internalType": "address",
              "name": "author",
              "type": "address"
            },
            {
              "internalType": "string",
              "name": "post",
              "type": "string"
            },
            {
              "internalType": "string",
              "name": "imageOne",
              "type": "string"
            },
            {
              "internalType": "string",
              "name": "imageTwo",
              "type": "string"
            },
            {
              "internalType": "uint256",
              "name": "likeCount",
              "type": "uint256"
            },
            {
              "internalType": "uint256",
              "name": "igniteCount",
              "type": "uint256"
            },
            {
              "internalType": "uint256",
              "name": "createdAt",
              "type": "uint256"
            },
            {
              "internalType": "uint256",
              "name": "commentCount",
              "type": "uint256"
            }
          ],
          "stateMutability": "view",
          "type": "function"
        },
        {
          "inputs": [
            {
              "internalType": "address",
              "name": "adminToRemove",
              "type": "address"
            }
          ],
          "name": "removeFromAdmin",
          "outputs": [],
          "stateMutability": "nonpayable",
          "type": "function"
        },
        {
          "inputs": [],
          "name": "socialFiBalance",
          "outputs": [
            {
              "internalType": "uint256",
              "name": "",
              "type": "uint256"
            }
          ],
          "stateMutability": "view",
          "type": "function"
        },
        {
          "inputs": [],
          "name": "tokenAddress",
          "outputs": [
            {
              "internalType": "contract IERC20",
              "name": "",
              "type": "address"
            }
          ],
          "stateMutability": "view",
          "type": "function"
        },
        {
          "inputs": [
            {
              "internalType": "string",
              "name": "avatarCID",
              "type": "string"
            }
          ],
          "name": "updateAvatar",
          "outputs": [
            {
              "internalType": "bool",
              "name": "",
              "type": "bool"
            }
          ],
          "stateMutability": "nonpayable",
          "type": "function"
        },
        {
          "inputs": [
            {
              "internalType": "uint256",
              "name": "newEarning",
              "type": "uint256"
            }
          ],
          "name": "updateEarningPerInteraction",
          "outputs": [
            {
              "internalType": "bool",
              "name": "",
              "type": "bool"
            }
          ],
          "stateMutability": "nonpayable",
          "type": "function"
        },
        {
          "inputs": [],
          "name": "userId",
          "outputs": [
            {
              "internalType": "uint256",
              "name": "",
              "type": "uint256"
            }
          ],
          "stateMutability": "view",
          "type": "function"
        },
        {
          "inputs": [
            {
              "internalType": "address",
              "name": "",
              "type": "address"
            }
          ],
          "name": "users",
          "outputs": [
            {
              "internalType": "uint256",
              "name": "userId",
              "type": "uint256"
            },
            {
              "internalType": "address",
              "name": "userAddress",
              "type": "address"
            },
            {
              "internalType": "string",
              "name": "profileImage",
              "type": "string"
            },
            {
              "internalType": "uint256",
              "name": "earnedAmount",
              "type": "uint256"
            },
            {
              "internalType": "bool",
              "name": "status",
              "type": "bool"
            },
            {
              "internalType": "string",
              "name": "profile_name",
              "type": "string"
            },
            {
              "internalType": "uint256",
              "name": "followerCount",
              "type": "uint256"
            },
            {
              "internalType": "uint256",
              "name": "followingCount",
              "type": "uint256"
            }
          ],
          "stateMutability": "view",
          "type": "function"
        }
      ],
      "evm": {
        "bytecode": {
          "linkReferences": {},
          "object": "608060405234801561001057600080fd5b5060405161406638038061406683398181016040528101906100329190610185565b80600560006101000a81548173ffffffffffffffffffffffffffffffffffffffff021916908373ffffffffffffffffffffffffffffffffffffffff160217905550336000806101000a81548173ffffffffffffffffffffffffffffffffffffffff021916908373ffffffffffffffffffffffffffffffffffffffff16021790555060018060003373ffffffffffffffffffffffffffffffffffffffff1673ffffffffffffffffffffffffffffffffffffffff16815260200190815260200160002060006101000a81548160ff021916908315150217905550506101b2565b600080fd5b600073ffffffffffffffffffffffffffffffffffffffff82169050919050565b600061014082610115565b9050919050565b600061015282610135565b9050919050565b61016281610147565b811461016d57600080fd5b50565b60008151905061017f81610159565b92915050565b60006020828403121561019b5761019a610110565b5b60006101a984828501610170565b91505092915050565b613ea5806101c16000396000f3fe6080604052600436106101815760003560e01c80635193c94c116100d15780639fe958b91161008a578063b7528ee111610064578063b7528ee1146105b9578063ca1f0cad146105f6578063e953d54f14610633578063f851a4401461064f57610181565b80639fe958b91461051c578063a3e6f2e614610559578063a87430ba1461057557610181565b80635193c94c146103f3578063589759191461043557806360a0ecda146104605780636f77926b1461048b57806373bfc1d0146104c85780639d76ea58146104f157610181565b80631a47767b1161013e5780634025681a116101185780634025681a14610339578063455c928c14610376578063472905ca1461038d57806350cde8ef146103b657610181565b80631a47767b146102aa57806324d7806c146102d3578063329150e81461031057610181565b806306f2a564146101865780630b1e7f83146101a25780630e444f0e146101e75780630e81a58314610224578063106501321461024f5780631947b3971461027a575b600080fd5b6101a0600480360381019061019b9190612909565b61067a565b005b3480156101ae57600080fd5b506101c960048036038101906101c4919061295c565b6108ee565b6040516101de99989796959493929190612a49565b60405180910390f35b3480156101f357600080fd5b5061020e6004803603810190610209919061295c565b610af4565b60405161021b9190612b06565b60405180910390f35b34801561023057600080fd5b50610239610b92565b6040516102469190612b21565b60405180910390f35b34801561025b57600080fd5b50610264610b98565b6040516102719190612b21565b60405180910390f35b610294600480360381019061028f9190612c71565b610c40565b6040516102a19190612b21565b60405180910390f35b3480156102b657600080fd5b506102d160048036038101906102cc9190612d44565b610e66565b005b3480156102df57600080fd5b506102fa60048036038101906102f59190612d44565b610fdf565b6040516103079190612b06565b60405180910390f35b34801561031c57600080fd5b5061033760048036038101906103329190612d44565b610fff565b005b34801561034557600080fd5b50610360600480360381019061035b9190612d71565b6110e8565b60405161036d9190612fae565b60405180910390f35b34801561038257600080fd5b5061038b6114c8565b005b34801561039957600080fd5b506103b460048036038101906103af9190612d44565b611726565b005b3480156103c257600080fd5b506103dd60048036038101906103d8919061295c565b61180e565b6040516103ea9190612b21565b60405180910390f35b3480156103ff57600080fd5b5061041a60048036038101906104159190612d71565b611832565b60405161042c96959493929190612fd0565b60405180910390f35b34801561044157600080fd5b5061044a611acb565b6040516104579190612b21565b60405180910390f35b34801561046c57600080fd5b50610475611ad1565b6040516104829190612b21565b60405180910390f35b34801561049757600080fd5b506104b260048036038101906104ad9190612d44565b611ad7565b6040516104bf9190613113565b60405180910390f35b3480156104d457600080fd5b506104ef60048036038101906104ea919061295c565b611cee565b005b3480156104fd57600080fd5b50610506611e2a565b6040516105139190613194565b60405180910390f35b34801561052857600080fd5b50610543600480360381019061053e91906131af565b611e50565b6040516105509190612b06565b60405180910390f35b610573600480360381019061056e91906131f8565b611eab565b005b34801561058157600080fd5b5061059c60048036038101906105979190612d44565b6122a0565b6040516105b09897969594939291906132b3565b60405180910390f35b3480156105c557600080fd5b506105e060048036038101906105db919061333f565b612425565b6040516105ed9190612b21565b60405180910390f35b34801561060257600080fd5b5061061d6004803603810190610618919061333f565b61244a565b60405161062a9190612b06565b60405180910390f35b61064d6004803603810190610648919061295c565b612479565b005b34801561065b57600080fd5b5061066461277e565b604051610671919061337f565b60405180910390f35b600660003373ffffffffffffffffffffffffffffffffffffffff1673ffffffffffffffffffffffffffffffffffffffff16815260200190815260200160002060040160009054906101000a900460ff16610709576040517f08c379a0000000000000000000000000000000000000000000000000000000008152600401610700906133e6565b60405180910390fd5b6000341161074c576040517f08c379a000000000000000000000000000000000000000000000000000000000815260040161074390613452565b60405180910390fd5b60008173ffffffffffffffffffffffffffffffffffffffff1634604051610772906134a3565b60006040518083038185875af1925050503d80600081146107af576040519150601f19603f3d011682016040523d82523d6000602084013e6107b4565b606091505b50509050806107f8576040517f08c379a00000000000000000000000000000000000000000000000000000000081526004016107ef90613504565b60405180910390fd5b600160076000868152602001908152602001600020600601600082825461081f9190613553565b9250508190555034600660008473ffffffffffffffffffffffffffffffffffffffff1673ffffffffffffffffffffffffffffffffffffffff16815260200190815260200160002060030160008282546108789190613553565b925050819055508173ffffffffffffffffffffffffffffffffffffffff163373ffffffffffffffffffffffffffffffffffffffff167f5a5f3eee831c63bb136508e88e3dae202a820aba59d4c5dc30d9dcb20e4c01ce8634426040516108e093929190613587565b60405180910390a350505050565b60076020528060005260406000206000915090508060000154908060010160009054906101000a900473ffffffffffffffffffffffffffffffffffffffff169080600201805461093d906135ed565b80601f0160208091040260200160405190810160405280929190818152602001828054610969906135ed565b80156109b65780601f1061098b576101008083540402835291602001916109b6565b820191906000526020600020905b81548152906001019060200180831161099957829003601f168201915b5050505050908060030180546109cb906135ed565b80601f01602080910402602001604051908101604052809291908181526020018280546109f7906135ed565b8015610a445780601f10610a1957610100808354040283529160200191610a44565b820191906000526020600020905b815481529060010190602001808311610a2757829003601f168201915b505050505090806004018054610a59906135ed565b80601f0160208091040260200160405190810160405280929190818152602001828054610a85906135ed565b8015610ad25780601f10610aa757610100808354040283529160200191610ad2565b820191906000526020600020905b815481529060010190602001808311610ab557829003601f168201915b5050505050908060050154908060060154908060070154908060080154905089565b6000600160003373ffffffffffffffffffffffffffffffffffffffff1673ffffffffffffffffffffffffffffffffffffffff16815260200190815260200160002060009054906101000a900460ff16610b82576040517f08c379a0000000000000000000000000000000000000000000000000000000008152600401610b799061366a565b60405180910390fd5b8160028190555060019050919050565b60025481565b600080600560009054906101000a900473ffffffffffffffffffffffffffffffffffffffff1673ffffffffffffffffffffffffffffffffffffffff166370a08231306040518263ffffffff1660e01b8152600401610bf6919061337f565b602060405180830381865afa158015610c13573d6000803e3d6000fd5b505050506040513d601f19601f82011682018060405250810190610c37919061369f565b90508091505090565b6000600660003373ffffffffffffffffffffffffffffffffffffffff1673ffffffffffffffffffffffffffffffffffffffff16815260200190815260200160002060040160009054906101000a900460ff16610cd1576040517f08c379a0000000000000000000000000000000000000000000000000000000008152600401610cc8906133e6565b60405180910390fd5b600060036000815480929190610ce6906136cc565b9190505590506000600760008381526020019081526020016000209050818160000181905550338160010160006101000a81548173ffffffffffffffffffffffffffffffffffffffff021916908373ffffffffffffffffffffffffffffffffffffffff16021790555085816002019081610d6091906138b6565b5084816003019081610d7291906138b6565b5083816004019081610d8491906138b6565b504281600701819055506008829080600181540180825580915050600190039060005260206000200160009091909190915055600560009054906101000a900473ffffffffffffffffffffffffffffffffffffffff1673ffffffffffffffffffffffffffffffffffffffff1663a9059cbb336002546040518363ffffffff1660e01b8152600401610e16929190613988565b6020604051808303816000875af1158015610e35573d6000803e3d6000fd5b505050506040513d601f19601f82011682018060405250810190610e5991906139dd565b5081925050509392505050565b600660003373ffffffffffffffffffffffffffffffffffffffff1673ffffffffffffffffffffffffffffffffffffffff16815260200190815260200160002060040160009054906101000a900460ff16610ef5576040517f08c379a0000000000000000000000000000000000000000000000000000000008152600401610eec90613a56565b60405180910390fd5b600160003373ffffffffffffffffffffffffffffffffffffffff1673ffffffffffffffffffffffffffffffffffffffff16815260200190815260200160002060009054906101000a900460ff16610f81576040517f08c379a0000000000000000000000000000000000000000000000000000000008152600401610f7890613ac2565b60405180910390fd5b6000600660008373ffffffffffffffffffffffffffffffffffffffff1673ffffffffffffffffffffffffffffffffffffffff16815260200190815260200160002060040160006101000a81548160ff02191690831515021790555050565b60016020528060005260406000206000915054906101000a900460ff1681565b60008054906101000a900473ffffffffffffffffffffffffffffffffffffffff1673ffffffffffffffffffffffffffffffffffffffff163373ffffffffffffffffffffffffffffffffffffffff161461108d576040517f08c379a000000000000000000000000000000000000000000000000000000000815260040161108490613b2e565b60405180910390fd5b6000600160008373ffffffffffffffffffffffffffffffffffffffff1673ffffffffffffffffffffffffffffffffffffffff16815260200190815260200160002060006101000a81548160ff02191690831515021790555050565b60606000821161112d576040517f08c379a000000000000000000000000000000000000000000000000000000000815260040161112490613b9a565b60405180910390fd5b60006008805490509050600084846111459190613bba565b821161115257600061116a565b848461115e9190613bba565b826111699190613bfc565b5b90506000848261117a9190613553565b83116111865782611193565b84826111929190613553565b5b9050600082826111a39190613bfc565b905060008167ffffffffffffffff8111156111c1576111c0612b46565b5b6040519080825280602002602001820160405280156111fa57816020015b6111e76127a2565b8152602001906001900390816111df5790505b50905060005b828110156114b957600760006008838861121a9190613553565b8154811061122b5761122a613c30565b5b9060005260206000200154815260200190815260200160002060405180610120016040529081600082015481526020016001820160009054906101000a900473ffffffffffffffffffffffffffffffffffffffff1673ffffffffffffffffffffffffffffffffffffffff1673ffffffffffffffffffffffffffffffffffffffff1681526020016002820180546112c0906135ed565b80601f01602080910402602001604051908101604052809291908181526020018280546112ec906135ed565b80156113395780601f1061130e57610100808354040283529160200191611339565b820191906000526020600020905b81548152906001019060200180831161131c57829003601f168201915b50505050508152602001600382018054611352906135ed565b80601f016020809104026020016040519081016040528092919081815260200182805461137e906135ed565b80156113cb5780601f106113a0576101008083540402835291602001916113cb565b820191906000526020600020905b8154815290600101906020018083116113ae57829003601f168201915b505050505081526020016004820180546113e4906135ed565b80601f0160208091040260200160405190810160405280929190818152602001828054611410906135ed565b801561145d5780601f106114325761010080835404028352916020019161145d565b820191906000526020600020905b81548152906001019060200180831161144057829003601f168201915b505050505081526020016005820154815260200160068201548152602001600782015481526020016008820154815250508282815181106114a1576114a0613c30565b5b60200260200101819052508080600101915050611200565b50809550505050505092915050565b600073ffffffffffffffffffffffffffffffffffffffff16600660003373ffffffffffffffffffffffffffffffffffffffff1673ffffffffffffffffffffffffffffffffffffffff16815260200190815260200160002060010160009054906101000a900473ffffffffffffffffffffffffffffffffffffffff1673ffffffffffffffffffffffffffffffffffffffff1614611599576040517f08c379a000000000000000000000000000000000000000000000000000000000815260040161159090613cab565b60405180910390fd5b60405180610100016040528060045481526020013373ffffffffffffffffffffffffffffffffffffffff16815260200160405180602001604052806000815250815260200160008152602001600115158152602001604051806020016040528060008152508152602001600081526020016000815250600660003373ffffffffffffffffffffffffffffffffffffffff1673ffffffffffffffffffffffffffffffffffffffff1681526020019081526020016000206000820151816000015560208201518160010160006101000a81548173ffffffffffffffffffffffffffffffffffffffff021916908373ffffffffffffffffffffffffffffffffffffffff16021790555060408201518160020190816116b491906138b6565b506060820151816003015560808201518160040160006101000a81548160ff02191690831515021790555060a08201518160050190816116f491906138b6565b5060c0820151816006015560e082015181600701559050506004600081548092919061171f906136cc565b9190505550565b60008054906101000a900473ffffffffffffffffffffffffffffffffffffffff1673ffffffffffffffffffffffffffffffffffffffff163373ffffffffffffffffffffffffffffffffffffffff16146117b4576040517f08c379a00000000000000000000000000000000000000000000000000000000081526004016117ab90613d17565b60405180910390fd5b60018060008373ffffffffffffffffffffffffffffffffffffffff1673ffffffffffffffffffffffffffffffffffffffff16815260200190815260200160002060006101000a81548160ff02191690831515021790555050565b6008818154811061181e57600080fd5b906000526020600020016000915090505481565b600b602052816000526040600020818154811061184e57600080fd5b9060005260206000209060060201600091509150508060000160009054906101000a900473ffffffffffffffffffffffffffffffffffffffff1690806001018054611898906135ed565b80601f01602080910402602001604051908101604052809291908181526020018280546118c4906135ed565b80156119115780601f106118e657610100808354040283529160200191611911565b820191906000526020600020905b8154815290600101906020018083116118f457829003601f168201915b505050505090806002018054611926906135ed565b80601f0160208091040260200160405190810160405280929190818152602001828054611952906135ed565b801561199f5780601f106119745761010080835404028352916020019161199f565b820191906000526020600020905b81548152906001019060200180831161198257829003601f168201915b5050505050908060030180546119b4906135ed565b80601f01602080910402602001604051908101604052809291908181526020018280546119e0906135ed565b8015611a2d5780601f10611a0257610100808354040283529160200191611a2d565b820191906000526020600020905b815481529060010190602001808311611a1057829003601f168201915b505050505090806004015490806005018054611a48906135ed565b80601f0160208091040260200160405190810160405280929190818152602001828054611a74906135ed565b8015611ac15780601f10611a9657610100808354040283529160200191611ac1565b820191906000526020600020905b815481529060010190602001808311611aa457829003601f168201915b5050505050905086565b60045481565b60035481565b611adf612804565b600660008373ffffffffffffffffffffffffffffffffffffffff1673ffffffffffffffffffffffffffffffffffffffff16815260200190815260200160002060405180610100016040529081600082015481526020016001820160009054906101000a900473ffffffffffffffffffffffffffffffffffffffff1673ffffffffffffffffffffffffffffffffffffffff1673ffffffffffffffffffffffffffffffffffffffff168152602001600282018054611b9a906135ed565b80601f0160208091040260200160405190810160405280929190818152602001828054611bc6906135ed565b8015611c135780601f10611be857610100808354040283529160200191611c13565b820191906000526020600020905b815481529060010190602001808311611bf657829003601f168201915b50505050508152602001600382015481526020016004820160009054906101000a900460ff16151515158152602001600582018054611c51906135ed565b80601f0160208091040260200160405190810160405280929190818152602001828054611c7d906135ed565b8015611cca5780601f10611c9f57610100808354040283529160200191611cca565b820191906000526020600020905b815481529060010190602001808311611cad57829003601f168201915b50505050508152602001600682015481526020016007820154815250509050919050565b60008054906101000a900473ffffffffffffffffffffffffffffffffffffffff1673ffffffffffffffffffffffffffffffffffffffff163373ffffffffffffffffffffffffffffffffffffffff1614611d7c576040517f08c379a0000000000000000000000000000000000000000000000000000000008152600401611d7390613d83565b60405180910390fd5b600560009054906101000a900473ffffffffffffffffffffffffffffffffffffffff1673ffffffffffffffffffffffffffffffffffffffff166323b872dd3330846040518463ffffffff1660e01b8152600401611ddb93929190613da3565b6020604051808303816000875af1158015611dfa573d6000803e3d6000fd5b505050506040513d601f19601f82011682018060405250810190611e1e91906139dd565b611e2757600080fd5b50565b600560009054906101000a900473ffffffffffffffffffffffffffffffffffffffff1681565b600081600660003373ffffffffffffffffffffffffffffffffffffffff1673ffffffffffffffffffffffffffffffffffffffff1681526020019081526020016000206002019081611ea191906138b6565b5060019050919050565b600660003373ffffffffffffffffffffffffffffffffffffffff1673ffffffffffffffffffffffffffffffffffffffff16815260200190815260200160002060040160009054906101000a900460ff16611f3a576040517f08c379a0000000000000000000000000000000000000000000000000000000008152600401611f31906133e6565b60405180910390fd5b600b60008581526020019081526020016000206040518060c001604052803373ffffffffffffffffffffffffffffffffffffffff168152602001858152602001848152602001838152602001428152602001600660003373ffffffffffffffffffffffffffffffffffffffff1673ffffffffffffffffffffffffffffffffffffffff1681526020019081526020016000206005018054611fd9906135ed565b80601f0160208091040260200160405190810160405280929190818152602001828054612005906135ed565b80156120525780601f1061202757610100808354040283529160200191612052565b820191906000526020600020905b81548152906001019060200180831161203557829003601f168201915b5050505050815250908060018154018082558091505060019003906000526020600020906006020160009091909190915060008201518160000160006101000a81548173ffffffffffffffffffffffffffffffffffffffff021916908373ffffffffffffffffffffffffffffffffffffffff16021790555060208201518160010190816120df91906138b6565b5060408201518160020190816120f591906138b6565b50606082015181600301908161210b91906138b6565b506080820151816004015560a082015181600501908161212b91906138b6565b505050600760008581526020019081526020016000206008016000815480929190612155906136cc565b9190505550600560009054906101000a900473ffffffffffffffffffffffffffffffffffffffff1673ffffffffffffffffffffffffffffffffffffffff1663a9059cbb336002546040518363ffffffff1660e01b81526004016121b9929190613988565b6020604051808303816000875af11580156121d8573d6000803e3d6000fd5b505050506040513d601f19601f820116820180604052508101906121fc91906139dd565b503373ffffffffffffffffffffffffffffffffffffffff166007600086815260200190815260200160002060010160009054906101000a900473ffffffffffffffffffffffffffffffffffffffff1673ffffffffffffffffffffffffffffffffffffffff167f6a38c48487b8c690660cc0694e04f68eaf9211d74ed2e8e6721f4faf00941d088642604051612292929190613dda565b60405180910390a350505050565b60066020528060005260406000206000915090508060000154908060010160009054906101000a900473ffffffffffffffffffffffffffffffffffffffff16908060020180546122ef906135ed565b80601f016020809104026020016040519081016040528092919081815260200182805461231b906135ed565b80156123685780601f1061233d57610100808354040283529160200191612368565b820191906000526020600020905b81548152906001019060200180831161234b57829003601f168201915b5050505050908060030154908060040160009054906101000a900460ff1690806005018054612396906135ed565b80601f01602080910402602001604051908101604052809291908181526020018280546123c2906135ed565b801561240f5780601f106123e45761010080835404028352916020019161240f565b820191906000526020600020905b8154815290600101906020018083116123f257829003601f168201915b5050505050908060060154908060070154905088565b600a602052816000526040600020602052806000526040600020600091509150505481565b60096020528160005260406000206020528060005260406000206000915091509054906101000a900460ff1681565b6009600082815260200190815260200160002060003373ffffffffffffffffffffffffffffffffffffffff1673ffffffffffffffffffffffffffffffffffffffff16815260200190815260200160002060009054906101000a900460ff1615612517576040517f08c379a000000000000000000000000000000000000000000000000000000000815260040161250e90613e4f565b60405180910390fd5b600660003373ffffffffffffffffffffffffffffffffffffffff1673ffffffffffffffffffffffffffffffffffffffff16815260200190815260200160002060040160009054906101000a900460ff166125a6576040517f08c379a000000000000000000000000000000000000000000000000000000000815260040161259d906133e6565b60405180910390fd5b60016009600083815260200190815260200160002060003373ffffffffffffffffffffffffffffffffffffffff1673ffffffffffffffffffffffffffffffffffffffff16815260200190815260200160002060006101000a81548160ff021916908315150217905550600760008281526020019081526020016000206005016000815480929190612636906136cc565b9190505550600560009054906101000a900473ffffffffffffffffffffffffffffffffffffffff1673ffffffffffffffffffffffffffffffffffffffff1663a9059cbb336002546040518363ffffffff1660e01b815260040161269a929190613988565b6020604051808303816000875af11580156126b9573d6000803e3d6000fd5b505050506040513d601f19601f820116820180604052508101906126dd91906139dd565b503373ffffffffffffffffffffffffffffffffffffffff166007600083815260200190815260200160002060010160009054906101000a900473ffffffffffffffffffffffffffffffffffffffff1673ffffffffffffffffffffffffffffffffffffffff167f6cede41ed4874cef0476a6599c61bece0896deee972c228149fa2f2a331c9d088342604051612773929190613dda565b60405180910390a350565b60008054906101000a900473ffffffffffffffffffffffffffffffffffffffff1681565b60405180610120016040528060008152602001600073ffffffffffffffffffffffffffffffffffffffff168152602001606081526020016060815260200160608152602001600081526020016000815260200160008152602001600081525090565b60405180610100016040528060008152602001600073ffffffffffffffffffffffffffffffffffffffff16815260200160608152602001600081526020016000151581526020016060815260200160008152602001600081525090565b6000604051905090565b600080fd5b600080fd5b6000819050919050565b61288881612875565b811461289357600080fd5b50565b6000813590506128a58161287f565b92915050565b600073ffffffffffffffffffffffffffffffffffffffff82169050919050565b60006128d6826128ab565b9050919050565b6128e6816128cb565b81146128f157600080fd5b50565b600081359050612903816128dd565b92915050565b6000806000606084860312156129225761292161286b565b5b600061293086828701612896565b935050602061294186828701612896565b9250506040612952868287016128f4565b9150509250925092565b6000602082840312156129725761297161286b565b5b600061298084828501612896565b91505092915050565b61299281612875565b82525050565b60006129a3826128ab565b9050919050565b6129b381612998565b82525050565b600081519050919050565b600082825260208201905092915050565b60005b838110156129f35780820151818401526020810190506129d8565b60008484015250505050565b6000601f19601f8301169050919050565b6000612a1b826129b9565b612a2581856129c4565b9350612a358185602086016129d5565b612a3e816129ff565b840191505092915050565b600061012082019050612a5f600083018c612989565b612a6c602083018b6129aa565b8181036040830152612a7e818a612a10565b90508181036060830152612a928189612a10565b90508181036080830152612aa68188612a10565b9050612ab560a0830187612989565b612ac260c0830186612989565b612acf60e0830185612989565b612add610100830184612989565b9a9950505050505050505050565b60008115159050919050565b612b0081612aeb565b82525050565b6000602082019050612b1b6000830184612af7565b92915050565b6000602082019050612b366000830184612989565b92915050565b600080fd5b600080fd5b7f4e487b7100000000000000000000000000000000000000000000000000000000600052604160045260246000fd5b612b7e826129ff565b810181811067ffffffffffffffff82111715612b9d57612b9c612b46565b5b80604052505050565b6000612bb0612861565b9050612bbc8282612b75565b919050565b600067ffffffffffffffff821115612bdc57612bdb612b46565b5b612be5826129ff565b9050602081019050919050565b82818337600083830152505050565b6000612c14612c0f84612bc1565b612ba6565b905082815260208101848484011115612c3057612c2f612b41565b5b612c3b848285612bf2565b509392505050565b600082601f830112612c5857612c57612b3c565b5b8135612c68848260208601612c01565b91505092915050565b600080600060608486031215612c8a57612c8961286b565b5b600084013567ffffffffffffffff811115612ca857612ca7612870565b5b612cb486828701612c43565b935050602084013567ffffffffffffffff811115612cd557612cd4612870565b5b612ce186828701612c43565b925050604084013567ffffffffffffffff811115612d0257612d01612870565b5b612d0e86828701612c43565b9150509250925092565b612d2181612998565b8114612d2c57600080fd5b50565b600081359050612d3e81612d18565b92915050565b600060208284031215612d5a57612d5961286b565b5b6000612d6884828501612d2f565b91505092915050565b60008060408385031215612d8857612d8761286b565b5b6000612d9685828601612896565b9250506020612da785828601612896565b9150509250929050565b600081519050919050565b600082825260208201905092915050565b6000819050602082019050919050565b612de681612875565b82525050565b612df581612998565b82525050565b600082825260208201905092915050565b6000612e17826129b9565b612e218185612dfb565b9350612e318185602086016129d5565b612e3a816129ff565b840191505092915050565b600061012083016000830151612e5e6000860182612ddd565b506020830151612e716020860182612dec565b5060408301518482036040860152612e898282612e0c565b91505060608301518482036060860152612ea38282612e0c565b91505060808301518482036080860152612ebd8282612e0c565b91505060a0830151612ed260a0860182612ddd565b5060c0830151612ee560c0860182612ddd565b5060e0830151612ef860e0860182612ddd565b50610100830151612f0d610100860182612ddd565b508091505092915050565b6000612f248383612e45565b905092915050565b6000602082019050919050565b6000612f4482612db1565b612f4e8185612dbc565b935083602082028501612f6085612dcd565b8060005b85811015612f9c5784840389528151612f7d8582612f18565b9450612f8883612f2c565b925060208a01995050600181019050612f64565b50829750879550505050505092915050565b60006020820190508181036000830152612fc88184612f39565b905092915050565b600060c082019050612fe560008301896129aa565b8181036020830152612ff78188612a10565b9050818103604083015261300b8187612a10565b9050818103606083015261301f8186612a10565b905061302e6080830185612989565b81810360a08301526130408184612a10565b9050979650505050505050565b61305681612aeb565b82525050565b6000610100830160008301516130756000860182612ddd565b5060208301516130886020860182612dec565b50604083015184820360408601526130a08282612e0c565b91505060608301516130b56060860182612ddd565b5060808301516130c8608086018261304d565b5060a083015184820360a08601526130e08282612e0c565b91505060c08301516130f560c0860182612ddd565b5060e083015161310860e0860182612ddd565b508091505092915050565b6000602082019050818103600083015261312d818461305c565b905092915050565b6000819050919050565b600061315a613155613150846128ab565b613135565b6128ab565b9050919050565b600061316c8261313f565b9050919050565b600061317e82613161565b9050919050565b61318e81613173565b82525050565b60006020820190506131a96000830184613185565b92915050565b6000602082840312156131c5576131c461286b565b5b600082013567ffffffffffffffff8111156131e3576131e2612870565b5b6131ef84828501612c43565b91505092915050565b600080600080608085870312156132125761321161286b565b5b600061322087828801612896565b945050602085013567ffffffffffffffff81111561324157613240612870565b5b61324d87828801612c43565b935050604085013567ffffffffffffffff81111561326e5761326d612870565b5b61327a87828801612c43565b925050606085013567ffffffffffffffff81111561329b5761329a612870565b5b6132a787828801612c43565b91505092959194509250565b6000610100820190506132c9600083018b612989565b6132d6602083018a6129aa565b81810360408301526132e88189612a10565b90506132f76060830188612989565b6133046080830187612af7565b81810360a08301526133168186612a10565b905061332560c0830185612989565b61333260e0830184612989565b9998505050505050505050565b600080604083850312156133565761335561286b565b5b600061336485828601612896565b925050602061337585828601612d2f565b9150509250929050565b600060208201905061339460008301846129aa565b92915050565b7f53746174757320697320696e6163746976650000000000000000000000000000600082015250565b60006133d06012836129c4565b91506133db8261339a565b602082019050919050565b600060208201905081810360008301526133ff816133c3565b9050919050565b7f56616c756520206d757374206578636565642030000000000000000000000000600082015250565b600061343c6014836129c4565b915061344782613406565b602082019050919050565b6000602082019050818103600083015261346b8161342f565b9050919050565b600081905092915050565b50565b600061348d600083613472565b91506134988261347d565b600082019050919050565b60006134ae82613480565b9150819050919050565b7f49676e697465204661696c656400000000000000000000000000000000000000600082015250565b60006134ee600d836129c4565b91506134f9826134b8565b602082019050919050565b6000602082019050818103600083015261351d816134e1565b9050919050565b7f4e487b7100000000000000000000000000000000000000000000000000000000600052601160045260246000fd5b600061355e82612875565b915061356983612875565b925082820190508082111561358157613580613524565b5b92915050565b600060608201905061359c6000830186612989565b6135a96020830185612989565b6135b66040830184612989565b949350505050565b7f4e487b7100000000000000000000000000000000000000000000000000000000600052602260045260246000fd5b6000600282049050600182168061360557607f821691505b602082108103613618576136176135be565b5b50919050565b7f596f7520617265206e6f7420616e2061646d696e000000000000000000000000600082015250565b60006136546014836129c4565b915061365f8261361e565b602082019050919050565b6000602082019050818103600083015261368381613647565b9050919050565b6000815190506136998161287f565b92915050565b6000602082840312156136b5576136b461286b565b5b60006136c38482850161368a565b91505092915050565b60006136d782612875565b91507fffffffffffffffffffffffffffffffffffffffffffffffffffffffffffffffff820361370957613708613524565b5b600182019050919050565b60008190508160005260206000209050919050565b60006020601f8301049050919050565b600082821b905092915050565b6000600883026137767fffffffffffffffffffffffffffffffffffffffffffffffffffffffffffffffff82613739565b6137808683613739565b95508019841693508086168417925050509392505050565b60006137b36137ae6137a984612875565b613135565b612875565b9050919050565b6000819050919050565b6137cd83613798565b6137e16137d9826137ba565b848454613746565b825550505050565b600090565b6137f66137e9565b6138018184846137c4565b505050565b5b818110156138255761381a6000826137ee565b600181019050613807565b5050565b601f82111561386a5761383b81613714565b61384484613729565b81016020851015613853578190505b61386761385f85613729565b830182613806565b50505b505050565b600082821c905092915050565b600061388d6000198460080261386f565b1980831691505092915050565b60006138a6838361387c565b9150826002028217905092915050565b6138bf826129b9565b67ffffffffffffffff8111156138d8576138d7612b46565b5b6138e282546135ed565b6138ed828285613829565b600060209050601f831160018114613920576000841561390e578287015190505b613918858261389a565b865550613980565b601f19841661392e86613714565b60005b8281101561395657848901518255600182019150602085019450602081019050613931565b86831015613973578489015161396f601f89168261387c565b8355505b6001600288020188555050505b505050505050565b600060408201905061399d60008301856129aa565b6139aa6020830184612989565b9392505050565b6139ba81612aeb565b81146139c557600080fd5b50565b6000815190506139d7816139b1565b92915050565b6000602082840312156139f3576139f261286b565b5b6000613a01848285016139c8565b91505092915050565b7f5374617475732069732020696e61637469766500000000000000000000000000600082015250565b6000613a406013836129c4565b9150613a4b82613a0a565b602082019050919050565b60006020820190508181036000830152613a6f81613a33565b9050919050565b7f4f6e6c792061646d696e732063616e2064656163746976617465207573657273600082015250565b6000613aac6020836129c4565b9150613ab782613a76565b602082019050919050565b60006020820190508181036000830152613adb81613a9f565b9050919050565b7f4f6e6c792061646d696e2063616e2072656d6f76652061646d696e7300000000600082015250565b6000613b18601c836129c4565b9150613b2382613ae2565b602082019050919050565b60006020820190508181036000830152613b4781613b0b565b9050919050565b7f506167652073697a65206d7573742062652067726561746572207468616e2030600082015250565b6000613b846020836129c4565b9150613b8f82613b4e565b602082019050919050565b60006020820190508181036000830152613bb381613b77565b9050919050565b6000613bc582612875565b9150613bd083612875565b9250828202613bde81612875565b91508282048414831517613bf557613bf4613524565b5b5092915050565b6000613c0782612875565b9150613c1283612875565b9250828203905081811115613c2a57613c29613524565b5b92915050565b7f4e487b7100000000000000000000000000000000000000000000000000000000600052603260045260246000fd5b7f55736572206e6f7420666f756e64000000000000000000000000000000000000600082015250565b6000613c95600e836129c4565b9150613ca082613c5f565b602082019050919050565b60006020820190508181036000830152613cc481613c88565b9050919050565b7f4f6e6c792061646d696e2063616e20616464206e65772061646d696e73000000600082015250565b6000613d01601d836129c4565b9150613d0c82613ccb565b602082019050919050565b60006020820190508181036000830152613d3081613cf4565b9050919050565b7f4e6f7420616e2061646d696e0000000000000000000000000000000000000000600082015250565b6000613d6d600c836129c4565b9150613d7882613d37565b602082019050919050565b60006020820190508181036000830152613d9c81613d60565b9050919050565b6000606082019050613db860008301866129aa565b613dc560208301856129aa565b613dd26040830184612989565b949350505050565b6000604082019050613def6000830185612989565b613dfc6020830184612989565b9392505050565b7f416c7265616479206c696b6564207468697320706f7374000000000000000000600082015250565b6000613e396017836129c4565b9150613e4482613e03565b602082019050919050565b60006020820190508181036000830152613e6881613e2c565b905091905056fea26469706673582212201132c4d2019c66deab985fff1bd388b8b0cd6f8b8d9de3a243b25d3d7bca8c8464736f6c63430008190033",
          "opcodes": "PUSH1 0x80 PUSH1 0x40 MSTORE CALLVALUE DUP1 ISZERO PUSH2 0x10 JUMPI PUSH1 0x0 DUP1 REVERT JUMPDEST POP PUSH1 0x40 MLOAD PUSH2 0x4066 CODESIZE SUB DUP1 PUSH2 0x4066 DUP4 CODECOPY DUP2 DUP2 ADD PUSH1 0x40 MSTORE DUP2 ADD SWAP1 PUSH2 0x32 SWAP2 SWAP1 PUSH2 0x185 JUMP JUMPDEST DUP1 PUSH1 0x5 PUSH1 0x0 PUSH2 0x100 EXP DUP2 SLOAD DUP2 PUSH20 0xFFFFFFFFFFFFFFFFFFFFFFFFFFFFFFFFFFFFFFFF MUL NOT AND SWAP1 DUP4 PUSH20 0xFFFFFFFFFFFFFFFFFFFFFFFFFFFFFFFFFFFFFFFF AND MUL OR SWAP1 SSTORE POP CALLER PUSH1 0x0 DUP1 PUSH2 0x100 EXP DUP2 SLOAD DUP2 PUSH20 0xFFFFFFFFFFFFFFFFFFFFFFFFFFFFFFFFFFFFFFFF MUL NOT AND SWAP1 DUP4 PUSH20 0xFFFFFFFFFFFFFFFFFFFFFFFFFFFFFFFFFFFFFFFF AND MUL OR SWAP1 SSTORE POP PUSH1 0x1 DUP1 PUSH1 0x0 CALLER PUSH20 0xFFFFFFFFFFFFFFFFFFFFFFFFFFFFFFFFFFFFFFFF AND PUSH20 0xFFFFFFFFFFFFFFFFFFFFFFFFFFFFFFFFFFFFFFFF AND DUP2 MSTORE PUSH1 0x20 ADD SWAP1 DUP2 MSTORE PUSH1 0x20 ADD PUSH1 0x0 KECCAK256 PUSH1 0x0 PUSH2 0x100 EXP DUP2 SLOAD DUP2 PUSH1 0xFF MUL NOT AND SWAP1 DUP4 ISZERO ISZERO MUL OR SWAP1 SSTORE POP POP PUSH2 0x1B2 JUMP JUMPDEST PUSH1 0x0 DUP1 REVERT JUMPDEST PUSH1 0x0 PUSH20 0xFFFFFFFFFFFFFFFFFFFFFFFFFFFFFFFFFFFFFFFF DUP3 AND SWAP1 POP SWAP2 SWAP1 POP JUMP JUMPDEST PUSH1 0x0 PUSH2 0x140 DUP3 PUSH2 0x115 JUMP JUMPDEST SWAP1 POP SWAP2 SWAP1 POP JUMP JUMPDEST PUSH1 0x0 PUSH2 0x152 DUP3 PUSH2 0x135 JUMP JUMPDEST SWAP1 POP SWAP2 SWAP1 POP JUMP JUMPDEST PUSH2 0x162 DUP2 PUSH2 0x147 JUMP JUMPDEST DUP2 EQ PUSH2 0x16D JUMPI PUSH1 0x0 DUP1 REVERT JUMPDEST POP JUMP JUMPDEST PUSH1 0x0 DUP2 MLOAD SWAP1 POP PUSH2 0x17F DUP2 PUSH2 0x159 JUMP JUMPDEST SWAP3 SWAP2 POP POP JUMP JUMPDEST PUSH1 0x0 PUSH1 0x20 DUP3 DUP5 SUB SLT ISZERO PUSH2 0x19B JUMPI PUSH2 0x19A PUSH2 0x110 JUMP JUMPDEST JUMPDEST PUSH1 0x0 PUSH2 0x1A9 DUP5 DUP3 DUP6 ADD PUSH2 0x170 JUMP JUMPDEST SWAP2 POP POP SWAP3 SWAP2 POP POP JUMP JUMPDEST PUSH2 0x3EA5 DUP1 PUSH2 0x1C1 PUSH1 0x0 CODECOPY PUSH1 0x0 RETURN INVALID PUSH1 0x80 PUSH1 0x40 MSTORE PUSH1 0x4 CALLDATASIZE LT PUSH2 0x181 JUMPI PUSH1 0x0 CALLDATALOAD PUSH1 0xE0 SHR DUP1 PUSH4 0x5193C94C GT PUSH2 0xD1 JUMPI DUP1 PUSH4 0x9FE958B9 GT PUSH2 0x8A JUMPI DUP1 PUSH4 0xB7528EE1 GT PUSH2 0x64 JUMPI DUP1 PUSH4 0xB7528EE1 EQ PUSH2 0x5B9 JUMPI DUP1 PUSH4 0xCA1F0CAD EQ PUSH2 0x5F6 JUMPI DUP1 PUSH4 0xE953D54F EQ PUSH2 0x633 JUMPI DUP1 PUSH4 0xF851A440 EQ PUSH2 0x64F JUMPI PUSH2 0x181 JUMP JUMPDEST DUP1 PUSH4 0x9FE958B9 EQ PUSH2 0x51C JUMPI DUP1 PUSH4 0xA3E6F2E6 EQ PUSH2 0x559 JUMPI DUP1 PUSH4 0xA87430BA EQ PUSH2 0x575 JUMPI PUSH2 0x181 JUMP JUMPDEST DUP1 PUSH4 0x5193C94C EQ PUSH2 0x3F3 JUMPI DUP1 PUSH4 0x58975919 EQ PUSH2 0x435 JUMPI DUP1 PUSH4 0x60A0ECDA EQ PUSH2 0x460 JUMPI DUP1 PUSH4 0x6F77926B EQ PUSH2 0x48B JUMPI DUP1 PUSH4 0x73BFC1D0 EQ PUSH2 0x4C8 JUMPI DUP1 PUSH4 0x9D76EA58 EQ PUSH2 0x4F1 JUMPI PUSH2 0x181 JUMP JUMPDEST DUP1 PUSH4 0x1A47767B GT PUSH2 0x13E JUMPI DUP1 PUSH4 0x4025681A GT PUSH2 0x118 JUMPI DUP1 PUSH4 0x4025681A EQ PUSH2 0x339 JUMPI DUP1 PUSH4 0x455C928C EQ PUSH2 0x376 JUMPI DUP1 PUSH4 0x472905CA EQ PUSH2 0x38D JUMPI DUP1 PUSH4 0x50CDE8EF EQ PUSH2 0x3B6 JUMPI PUSH2 0x181 JUMP JUMPDEST DUP1 PUSH4 0x1A47767B EQ PUSH2 0x2AA JUMPI DUP1 PUSH4 0x24D7806C EQ PUSH2 0x2D3 JUMPI DUP1 PUSH4 0x329150E8 EQ PUSH2 0x310 JUMPI PUSH2 0x181 JUMP JUMPDEST DUP1 PUSH4 0x6F2A564 EQ PUSH2 0x186 JUMPI DUP1 PUSH4 0xB1E7F83 EQ PUSH2 0x1A2 JUMPI DUP1 PUSH4 0xE444F0E EQ PUSH2 0x1E7 JUMPI DUP1 PUSH4 0xE81A583 EQ PUSH2 0x224 JUMPI DUP1 PUSH4 0x10650132 EQ PUSH2 0x24F JUMPI DUP1 PUSH4 0x1947B397 EQ PUSH2 0x27A JUMPI JUMPDEST PUSH1 0x0 DUP1 REVERT JUMPDEST PUSH2 0x1A0 PUSH1 0x4 DUP1 CALLDATASIZE SUB DUP2 ADD SWAP1 PUSH2 0x19B SWAP2 SWAP1 PUSH2 0x2909 JUMP JUMPDEST PUSH2 0x67A JUMP JUMPDEST STOP JUMPDEST CALLVALUE DUP1 ISZERO PUSH2 0x1AE JUMPI PUSH1 0x0 DUP1 REVERT JUMPDEST POP PUSH2 0x1C9 PUSH1 0x4 DUP1 CALLDATASIZE SUB DUP2 ADD SWAP1 PUSH2 0x1C4 SWAP2 SWAP1 PUSH2 0x295C JUMP JUMPDEST PUSH2 0x8EE JUMP JUMPDEST PUSH1 0x40 MLOAD PUSH2 0x1DE SWAP10 SWAP9 SWAP8 SWAP7 SWAP6 SWAP5 SWAP4 SWAP3 SWAP2 SWAP1 PUSH2 0x2A49 JUMP JUMPDEST PUSH1 0x40 MLOAD DUP1 SWAP2 SUB SWAP1 RETURN JUMPDEST CALLVALUE DUP1 ISZERO PUSH2 0x1F3 JUMPI PUSH1 0x0 DUP1 REVERT JUMPDEST POP PUSH2 0x20E PUSH1 0x4 DUP1 CALLDATASIZE SUB DUP2 ADD SWAP1 PUSH2 0x209 SWAP2 SWAP1 PUSH2 0x295C JUMP JUMPDEST PUSH2 0xAF4 JUMP JUMPDEST PUSH1 0x40 MLOAD PUSH2 0x21B SWAP2 SWAP1 PUSH2 0x2B06 JUMP JUMPDEST PUSH1 0x40 MLOAD DUP1 SWAP2 SUB SWAP1 RETURN JUMPDEST CALLVALUE DUP1 ISZERO PUSH2 0x230 JUMPI PUSH1 0x0 DUP1 REVERT JUMPDEST POP PUSH2 0x239 PUSH2 0xB92 JUMP JUMPDEST PUSH1 0x40 MLOAD PUSH2 0x246 SWAP2 SWAP1 PUSH2 0x2B21 JUMP JUMPDEST PUSH1 0x40 MLOAD DUP1 SWAP2 SUB SWAP1 RETURN JUMPDEST CALLVALUE DUP1 ISZERO PUSH2 0x25B JUMPI PUSH1 0x0 DUP1 REVERT JUMPDEST POP PUSH2 0x264 PUSH2 0xB98 JUMP JUMPDEST PUSH1 0x40 MLOAD PUSH2 0x271 SWAP2 SWAP1 PUSH2 0x2B21 JUMP JUMPDEST PUSH1 0x40 MLOAD DUP1 SWAP2 SUB SWAP1 RETURN JUMPDEST PUSH2 0x294 PUSH1 0x4 DUP1 CALLDATASIZE SUB DUP2 ADD SWAP1 PUSH2 0x28F SWAP2 SWAP1 PUSH2 0x2C71 JUMP JUMPDEST PUSH2 0xC40 JUMP JUMPDEST PUSH1 0x40 MLOAD PUSH2 0x2A1 SWAP2 SWAP1 PUSH2 0x2B21 JUMP JUMPDEST PUSH1 0x40 MLOAD DUP1 SWAP2 SUB SWAP1 RETURN JUMPDEST CALLVALUE DUP1 ISZERO PUSH2 0x2B6 JUMPI PUSH1 0x0 DUP1 REVERT JUMPDEST POP PUSH2 0x2D1 PUSH1 0x4 DUP1 CALLDATASIZE SUB DUP2 ADD SWAP1 PUSH2 0x2CC SWAP2 SWAP1 PUSH2 0x2D44 JUMP JUMPDEST PUSH2 0xE66 JUMP JUMPDEST STOP JUMPDEST CALLVALUE DUP1 ISZERO PUSH2 0x2DF JUMPI PUSH1 0x0 DUP1 REVERT JUMPDEST POP PUSH2 0x2FA PUSH1 0x4 DUP1 CALLDATASIZE SUB DUP2 ADD SWAP1 PUSH2 0x2F5 SWAP2 SWAP1 PUSH2 0x2D44 JUMP JUMPDEST PUSH2 0xFDF JUMP JUMPDEST PUSH1 0x40 MLOAD PUSH2 0x307 SWAP2 SWAP1 PUSH2 0x2B06 JUMP JUMPDEST PUSH1 0x40 MLOAD DUP1 SWAP2 SUB SWAP1 RETURN JUMPDEST CALLVALUE DUP1 ISZERO PUSH2 0x31C JUMPI PUSH1 0x0 DUP1 REVERT JUMPDEST POP PUSH2 0x337 PUSH1 0x4 DUP1 CALLDATASIZE SUB DUP2 ADD SWAP1 PUSH2 0x332 SWAP2 SWAP1 PUSH2 0x2D44 JUMP JUMPDEST PUSH2 0xFFF JUMP JUMPDEST STOP JUMPDEST CALLVALUE DUP1 ISZERO PUSH2 0x345 JUMPI PUSH1 0x0 DUP1 REVERT JUMPDEST POP PUSH2 0x360 PUSH1 0x4 DUP1 CALLDATASIZE SUB DUP2 ADD SWAP1 PUSH2 0x35B SWAP2 SWAP1 PUSH2 0x2D71 JUMP JUMPDEST PUSH2 0x10E8 JUMP JUMPDEST PUSH1 0x40 MLOAD PUSH2 0x36D SWAP2 SWAP1 PUSH2 0x2FAE JUMP JUMPDEST PUSH1 0x40 MLOAD DUP1 SWAP2 SUB SWAP1 RETURN JUMPDEST CALLVALUE DUP1 ISZERO PUSH2 0x382 JUMPI PUSH1 0x0 DUP1 REVERT JUMPDEST POP PUSH2 0x38B PUSH2 0x14C8 JUMP JUMPDEST STOP JUMPDEST CALLVALUE DUP1 ISZERO PUSH2 0x399 JUMPI PUSH1 0x0 DUP1 REVERT JUMPDEST POP PUSH2 0x3B4 PUSH1 0x4 DUP1 CALLDATASIZE SUB DUP2 ADD SWAP1 PUSH2 0x3AF SWAP2 SWAP1 PUSH2 0x2D44 JUMP JUMPDEST PUSH2 0x1726 JUMP JUMPDEST STOP JUMPDEST CALLVALUE DUP1 ISZERO PUSH2 0x3C2 JUMPI PUSH1 0x0 DUP1 REVERT JUMPDEST POP PUSH2 0x3DD PUSH1 0x4 DUP1 CALLDATASIZE SUB DUP2 ADD SWAP1 PUSH2 0x3D8 SWAP2 SWAP1 PUSH2 0x295C JUMP JUMPDEST PUSH2 0x180E JUMP JUMPDEST PUSH1 0x40 MLOAD PUSH2 0x3EA SWAP2 SWAP1 PUSH2 0x2B21 JUMP JUMPDEST PUSH1 0x40 MLOAD DUP1 SWAP2 SUB SWAP1 RETURN JUMPDEST CALLVALUE DUP1 ISZERO PUSH2 0x3FF JUMPI PUSH1 0x0 DUP1 REVERT JUMPDEST POP PUSH2 0x41A PUSH1 0x4 DUP1 CALLDATASIZE SUB DUP2 ADD SWAP1 PUSH2 0x415 SWAP2 SWAP1 PUSH2 0x2D71 JUMP JUMPDEST PUSH2 0x1832 JUMP JUMPDEST PUSH1 0x40 MLOAD PUSH2 0x42C SWAP7 SWAP6 SWAP5 SWAP4 SWAP3 SWAP2 SWAP1 PUSH2 0x2FD0 JUMP JUMPDEST PUSH1 0x40 MLOAD DUP1 SWAP2 SUB SWAP1 RETURN JUMPDEST CALLVALUE DUP1 ISZERO PUSH2 0x441 JUMPI PUSH1 0x0 DUP1 REVERT JUMPDEST POP PUSH2 0x44A PUSH2 0x1ACB JUMP JUMPDEST PUSH1 0x40 MLOAD PUSH2 0x457 SWAP2 SWAP1 PUSH2 0x2B21 JUMP JUMPDEST PUSH1 0x40 MLOAD DUP1 SWAP2 SUB SWAP1 RETURN JUMPDEST CALLVALUE DUP1 ISZERO PUSH2 0x46C JUMPI PUSH1 0x0 DUP1 REVERT JUMPDEST POP PUSH2 0x475 PUSH2 0x1AD1 JUMP JUMPDEST PUSH1 0x40 MLOAD PUSH2 0x482 SWAP2 SWAP1 PUSH2 0x2B21 JUMP JUMPDEST PUSH1 0x40 MLOAD DUP1 SWAP2 SUB SWAP1 RETURN JUMPDEST CALLVALUE DUP1 ISZERO PUSH2 0x497 JUMPI PUSH1 0x0 DUP1 REVERT JUMPDEST POP PUSH2 0x4B2 PUSH1 0x4 DUP1 CALLDATASIZE SUB DUP2 ADD SWAP1 PUSH2 0x4AD SWAP2 SWAP1 PUSH2 0x2D44 JUMP JUMPDEST PUSH2 0x1AD7 JUMP JUMPDEST PUSH1 0x40 MLOAD PUSH2 0x4BF SWAP2 SWAP1 PUSH2 0x3113 JUMP JUMPDEST PUSH1 0x40 MLOAD DUP1 SWAP2 SUB SWAP1 RETURN JUMPDEST CALLVALUE DUP1 ISZERO PUSH2 0x4D4 JUMPI PUSH1 0x0 DUP1 REVERT JUMPDEST POP PUSH2 0x4EF PUSH1 0x4 DUP1 CALLDATASIZE SUB DUP2 ADD SWAP1 PUSH2 0x4EA SWAP2 SWAP1 PUSH2 0x295C JUMP JUMPDEST PUSH2 0x1CEE JUMP JUMPDEST STOP JUMPDEST CALLVALUE DUP1 ISZERO PUSH2 0x4FD JUMPI PUSH1 0x0 DUP1 REVERT JUMPDEST POP PUSH2 0x506 PUSH2 0x1E2A JUMP JUMPDEST PUSH1 0x40 MLOAD PUSH2 0x513 SWAP2 SWAP1 PUSH2 0x3194 JUMP JUMPDEST PUSH1 0x40 MLOAD DUP1 SWAP2 SUB SWAP1 RETURN JUMPDEST CALLVALUE DUP1 ISZERO PUSH2 0x528 JUMPI PUSH1 0x0 DUP1 REVERT JUMPDEST POP PUSH2 0x543 PUSH1 0x4 DUP1 CALLDATASIZE SUB DUP2 ADD SWAP1 PUSH2 0x53E SWAP2 SWAP1 PUSH2 0x31AF JUMP JUMPDEST PUSH2 0x1E50 JUMP JUMPDEST PUSH1 0x40 MLOAD PUSH2 0x550 SWAP2 SWAP1 PUSH2 0x2B06 JUMP JUMPDEST PUSH1 0x40 MLOAD DUP1 SWAP2 SUB SWAP1 RETURN JUMPDEST PUSH2 0x573 PUSH1 0x4 DUP1 CALLDATASIZE SUB DUP2 ADD SWAP1 PUSH2 0x56E SWAP2 SWAP1 PUSH2 0x31F8 JUMP JUMPDEST PUSH2 0x1EAB JUMP JUMPDEST STOP JUMPDEST CALLVALUE DUP1 ISZERO PUSH2 0x581 JUMPI PUSH1 0x0 DUP1 REVERT JUMPDEST POP PUSH2 0x59C PUSH1 0x4 DUP1 CALLDATASIZE SUB DUP2 ADD SWAP1 PUSH2 0x597 SWAP2 SWAP1 PUSH2 0x2D44 JUMP JUMPDEST PUSH2 0x22A0 JUMP JUMPDEST PUSH1 0x40 MLOAD PUSH2 0x5B0 SWAP9 SWAP8 SWAP7 SWAP6 SWAP5 SWAP4 SWAP3 SWAP2 SWAP1 PUSH2 0x32B3 JUMP JUMPDEST PUSH1 0x40 MLOAD DUP1 SWAP2 SUB SWAP1 RETURN JUMPDEST CALLVALUE DUP1 ISZERO PUSH2 0x5C5 JUMPI PUSH1 0x0 DUP1 REVERT JUMPDEST POP PUSH2 0x5E0 PUSH1 0x4 DUP1 CALLDATASIZE SUB DUP2 ADD SWAP1 PUSH2 0x5DB SWAP2 SWAP1 PUSH2 0x333F JUMP JUMPDEST PUSH2 0x2425 JUMP JUMPDEST PUSH1 0x40 MLOAD PUSH2 0x5ED SWAP2 SWAP1 PUSH2 0x2B21 JUMP JUMPDEST PUSH1 0x40 MLOAD DUP1 SWAP2 SUB SWAP1 RETURN JUMPDEST CALLVALUE DUP1 ISZERO PUSH2 0x602 JUMPI PUSH1 0x0 DUP1 REVERT JUMPDEST POP PUSH2 0x61D PUSH1 0x4 DUP1 CALLDATASIZE SUB DUP2 ADD SWAP1 PUSH2 0x618 SWAP2 SWAP1 PUSH2 0x333F JUMP JUMPDEST PUSH2 0x244A JUMP JUMPDEST PUSH1 0x40 MLOAD PUSH2 0x62A SWAP2 SWAP1 PUSH2 0x2B06 JUMP JUMPDEST PUSH1 0x40 MLOAD DUP1 SWAP2 SUB SWAP1 RETURN JUMPDEST PUSH2 0x64D PUSH1 0x4 DUP1 CALLDATASIZE SUB DUP2 ADD SWAP1 PUSH2 0x648 SWAP2 SWAP1 PUSH2 0x295C JUMP JUMPDEST PUSH2 0x2479 JUMP JUMPDEST STOP JUMPDEST CALLVALUE DUP1 ISZERO PUSH2 0x65B JUMPI PUSH1 0x0 DUP1 REVERT JUMPDEST POP PUSH2 0x664 PUSH2 0x277E JUMP JUMPDEST PUSH1 0x40 MLOAD PUSH2 0x671 SWAP2 SWAP1 PUSH2 0x337F JUMP JUMPDEST PUSH1 0x40 MLOAD DUP1 SWAP2 SUB SWAP1 RETURN JUMPDEST PUSH1 0x6 PUSH1 0x0 CALLER PUSH20 0xFFFFFFFFFFFFFFFFFFFFFFFFFFFFFFFFFFFFFFFF AND PUSH20 0xFFFFFFFFFFFFFFFFFFFFFFFFFFFFFFFFFFFFFFFF AND DUP2 MSTORE PUSH1 0x20 ADD SWAP1 DUP2 MSTORE PUSH1 0x20 ADD PUSH1 0x0 KECCAK256 PUSH1 0x4 ADD PUSH1 0x0 SWAP1 SLOAD SWAP1 PUSH2 0x100 EXP SWAP1 DIV PUSH1 0xFF AND PUSH2 0x709 JUMPI PUSH1 0x40 MLOAD PUSH32 0x8C379A000000000000000000000000000000000000000000000000000000000 DUP2 MSTORE PUSH1 0x4 ADD PUSH2 0x700 SWAP1 PUSH2 0x33E6 JUMP JUMPDEST PUSH1 0x40 MLOAD DUP1 SWAP2 SUB SWAP1 REVERT JUMPDEST PUSH1 0x0 CALLVALUE GT PUSH2 0x74C JUMPI PUSH1 0x40 MLOAD PUSH32 0x8C379A000000000000000000000000000000000000000000000000000000000 DUP2 MSTORE PUSH1 0x4 ADD PUSH2 0x743 SWAP1 PUSH2 0x3452 JUMP JUMPDEST PUSH1 0x40 MLOAD DUP1 SWAP2 SUB SWAP1 REVERT JUMPDEST PUSH1 0x0 DUP2 PUSH20 0xFFFFFFFFFFFFFFFFFFFFFFFFFFFFFFFFFFFFFFFF AND CALLVALUE PUSH1 0x40 MLOAD PUSH2 0x772 SWAP1 PUSH2 0x34A3 JUMP JUMPDEST PUSH1 0x0 PUSH1 0x40 MLOAD DUP1 DUP4 SUB DUP2 DUP6 DUP8 GAS CALL SWAP3 POP POP POP RETURNDATASIZE DUP1 PUSH1 0x0 DUP2 EQ PUSH2 0x7AF JUMPI PUSH1 0x40 MLOAD SWAP2 POP PUSH1 0x1F NOT PUSH1 0x3F RETURNDATASIZE ADD AND DUP3 ADD PUSH1 0x40 MSTORE RETURNDATASIZE DUP3 MSTORE RETURNDATASIZE PUSH1 0x0 PUSH1 0x20 DUP5 ADD RETURNDATACOPY PUSH2 0x7B4 JUMP JUMPDEST PUSH1 0x60 SWAP2 POP JUMPDEST POP POP SWAP1 POP DUP1 PUSH2 0x7F8 JUMPI PUSH1 0x40 MLOAD PUSH32 0x8C379A000000000000000000000000000000000000000000000000000000000 DUP2 MSTORE PUSH1 0x4 ADD PUSH2 0x7EF SWAP1 PUSH2 0x3504 JUMP JUMPDEST PUSH1 0x40 MLOAD DUP1 SWAP2 SUB SWAP1 REVERT JUMPDEST PUSH1 0x1 PUSH1 0x7 PUSH1 0x0 DUP7 DUP2 MSTORE PUSH1 0x20 ADD SWAP1 DUP2 MSTORE PUSH1 0x20 ADD PUSH1 0x0 KECCAK256 PUSH1 0x6 ADD PUSH1 0x0 DUP3 DUP3 SLOAD PUSH2 0x81F SWAP2 SWAP1 PUSH2 0x3553 JUMP JUMPDEST SWAP3 POP POP DUP2 SWAP1 SSTORE POP CALLVALUE PUSH1 0x6 PUSH1 0x0 DUP5 PUSH20 0xFFFFFFFFFFFFFFFFFFFFFFFFFFFFFFFFFFFFFFFF AND PUSH20 0xFFFFFFFFFFFFFFFFFFFFFFFFFFFFFFFFFFFFFFFF AND DUP2 MSTORE PUSH1 0x20 ADD SWAP1 DUP2 MSTORE PUSH1 0x20 ADD PUSH1 0x0 KECCAK256 PUSH1 0x3 ADD PUSH1 0x0 DUP3 DUP3 SLOAD PUSH2 0x878 SWAP2 SWAP1 PUSH2 0x3553 JUMP JUMPDEST SWAP3 POP POP DUP2 SWAP1 SSTORE POP DUP2 PUSH20 0xFFFFFFFFFFFFFFFFFFFFFFFFFFFFFFFFFFFFFFFF AND CALLER PUSH20 0xFFFFFFFFFFFFFFFFFFFFFFFFFFFFFFFFFFFFFFFF AND PUSH32 0x5A5F3EEE831C63BB136508E88E3DAE202A820ABA59D4C5DC30D9DCB20E4C01CE DUP7 CALLVALUE TIMESTAMP PUSH1 0x40 MLOAD PUSH2 0x8E0 SWAP4 SWAP3 SWAP2 SWAP1 PUSH2 0x3587 JUMP JUMPDEST PUSH1 0x40 MLOAD DUP1 SWAP2 SUB SWAP1 LOG3 POP POP POP POP JUMP JUMPDEST PUSH1 0x7 PUSH1 0x20 MSTORE DUP1 PUSH1 0x0 MSTORE PUSH1 0x40 PUSH1 0x0 KECCAK256 PUSH1 0x0 SWAP2 POP SWAP1 POP DUP1 PUSH1 0x0 ADD SLOAD SWAP1 DUP1 PUSH1 0x1 ADD PUSH1 0x0 SWAP1 SLOAD SWAP1 PUSH2 0x100 EXP SWAP1 DIV PUSH20 0xFFFFFFFFFFFFFFFFFFFFFFFFFFFFFFFFFFFFFFFF AND SWAP1 DUP1 PUSH1 0x2 ADD DUP1 SLOAD PUSH2 0x93D SWAP1 PUSH2 0x35ED JUMP JUMPDEST DUP1 PUSH1 0x1F ADD PUSH1 0x20 DUP1 SWAP2 DIV MUL PUSH1 0x20 ADD PUSH1 0x40 MLOAD SWAP1 DUP2 ADD PUSH1 0x40 MSTORE DUP1 SWAP3 SWAP2 SWAP1 DUP2 DUP2 MSTORE PUSH1 0x20 ADD DUP3 DUP1 SLOAD PUSH2 0x969 SWAP1 PUSH2 0x35ED JUMP JUMPDEST DUP1 ISZERO PUSH2 0x9B6 JUMPI DUP1 PUSH1 0x1F LT PUSH2 0x98B JUMPI PUSH2 0x100 DUP1 DUP4 SLOAD DIV MUL DUP4 MSTORE SWAP2 PUSH1 0x20 ADD SWAP2 PUSH2 0x9B6 JUMP JUMPDEST DUP3 ADD SWAP2 SWAP1 PUSH1 0x0 MSTORE PUSH1 0x20 PUSH1 0x0 KECCAK256 SWAP1 JUMPDEST DUP2 SLOAD DUP2 MSTORE SWAP1 PUSH1 0x1 ADD SWAP1 PUSH1 0x20 ADD DUP1 DUP4 GT PUSH2 0x999 JUMPI DUP3 SWAP1 SUB PUSH1 0x1F AND DUP3 ADD SWAP2 JUMPDEST POP POP POP POP POP SWAP1 DUP1 PUSH1 0x3 ADD DUP1 SLOAD PUSH2 0x9CB SWAP1 PUSH2 0x35ED JUMP JUMPDEST DUP1 PUSH1 0x1F ADD PUSH1 0x20 DUP1 SWAP2 DIV MUL PUSH1 0x20 ADD PUSH1 0x40 MLOAD SWAP1 DUP2 ADD PUSH1 0x40 MSTORE DUP1 SWAP3 SWAP2 SWAP1 DUP2 DUP2 MSTORE PUSH1 0x20 ADD DUP3 DUP1 SLOAD PUSH2 0x9F7 SWAP1 PUSH2 0x35ED JUMP JUMPDEST DUP1 ISZERO PUSH2 0xA44 JUMPI DUP1 PUSH1 0x1F LT PUSH2 0xA19 JUMPI PUSH2 0x100 DUP1 DUP4 SLOAD DIV MUL DUP4 MSTORE SWAP2 PUSH1 0x20 ADD SWAP2 PUSH2 0xA44 JUMP JUMPDEST DUP3 ADD SWAP2 SWAP1 PUSH1 0x0 MSTORE PUSH1 0x20 PUSH1 0x0 KECCAK256 SWAP1 JUMPDEST DUP2 SLOAD DUP2 MSTORE SWAP1 PUSH1 0x1 ADD SWAP1 PUSH1 0x20 ADD DUP1 DUP4 GT PUSH2 0xA27 JUMPI DUP3 SWAP1 SUB PUSH1 0x1F AND DUP3 ADD SWAP2 JUMPDEST POP POP POP POP POP SWAP1 DUP1 PUSH1 0x4 ADD DUP1 SLOAD PUSH2 0xA59 SWAP1 PUSH2 0x35ED JUMP JUMPDEST DUP1 PUSH1 0x1F ADD PUSH1 0x20 DUP1 SWAP2 DIV MUL PUSH1 0x20 ADD PUSH1 0x40 MLOAD SWAP1 DUP2 ADD PUSH1 0x40 MSTORE DUP1 SWAP3 SWAP2 SWAP1 DUP2 DUP2 MSTORE PUSH1 0x20 ADD DUP3 DUP1 SLOAD PUSH2 0xA85 SWAP1 PUSH2 0x35ED JUMP JUMPDEST DUP1 ISZERO PUSH2 0xAD2 JUMPI DUP1 PUSH1 0x1F LT PUSH2 0xAA7 JUMPI PUSH2 0x100 DUP1 DUP4 SLOAD DIV MUL DUP4 MSTORE SWAP2 PUSH1 0x20 ADD SWAP2 PUSH2 0xAD2 JUMP JUMPDEST DUP3 ADD SWAP2 SWAP1 PUSH1 0x0 MSTORE PUSH1 0x20 PUSH1 0x0 KECCAK256 SWAP1 JUMPDEST DUP2 SLOAD DUP2 MSTORE SWAP1 PUSH1 0x1 ADD SWAP1 PUSH1 0x20 ADD DUP1 DUP4 GT PUSH2 0xAB5 JUMPI DUP3 SWAP1 SUB PUSH1 0x1F AND DUP3 ADD SWAP2 JUMPDEST POP POP POP POP POP SWAP1 DUP1 PUSH1 0x5 ADD SLOAD SWAP1 DUP1 PUSH1 0x6 ADD SLOAD SWAP1 DUP1 PUSH1 0x7 ADD SLOAD SWAP1 DUP1 PUSH1 0x8 ADD SLOAD SWAP1 POP DUP10 JUMP JUMPDEST PUSH1 0x0 PUSH1 0x1 PUSH1 0x0 CALLER PUSH20 0xFFFFFFFFFFFFFFFFFFFFFFFFFFFFFFFFFFFFFFFF AND PUSH20 0xFFFFFFFFFFFFFFFFFFFFFFFFFFFFFFFFFFFFFFFF AND DUP2 MSTORE PUSH1 0x20 ADD SWAP1 DUP2 MSTORE PUSH1 0x20 ADD PUSH1 0x0 KECCAK256 PUSH1 0x0 SWAP1 SLOAD SWAP1 PUSH2 0x100 EXP SWAP1 DIV PUSH1 0xFF AND PUSH2 0xB82 JUMPI PUSH1 0x40 MLOAD PUSH32 0x8C379A000000000000000000000000000000000000000000000000000000000 DUP2 MSTORE PUSH1 0x4 ADD PUSH2 0xB79 SWAP1 PUSH2 0x366A JUMP JUMPDEST PUSH1 0x40 MLOAD DUP1 SWAP2 SUB SWAP1 REVERT JUMPDEST DUP2 PUSH1 0x2 DUP2 SWAP1 SSTORE POP PUSH1 0x1 SWAP1 POP SWAP2 SWAP1 POP JUMP JUMPDEST PUSH1 0x2 SLOAD DUP2 JUMP JUMPDEST PUSH1 0x0 DUP1 PUSH1 0x5 PUSH1 0x0 SWAP1 SLOAD SWAP1 PUSH2 0x100 EXP SWAP1 DIV PUSH20 0xFFFFFFFFFFFFFFFFFFFFFFFFFFFFFFFFFFFFFFFF AND PUSH20 0xFFFFFFFFFFFFFFFFFFFFFFFFFFFFFFFFFFFFFFFF AND PUSH4 0x70A08231 ADDRESS PUSH1 0x40 MLOAD DUP3 PUSH4 0xFFFFFFFF AND PUSH1 0xE0 SHL DUP2 MSTORE PUSH1 0x4 ADD PUSH2 0xBF6 SWAP2 SWAP1 PUSH2 0x337F JUMP JUMPDEST PUSH1 0x20 PUSH1 0x40 MLOAD DUP1 DUP4 SUB DUP2 DUP7 GAS STATICCALL ISZERO DUP1 ISZERO PUSH2 0xC13 JUMPI RETURNDATASIZE PUSH1 0x0 DUP1 RETURNDATACOPY RETURNDATASIZE PUSH1 0x0 REVERT JUMPDEST POP POP POP POP PUSH1 0x40 MLOAD RETURNDATASIZE PUSH1 0x1F NOT PUSH1 0x1F DUP3 ADD AND DUP3 ADD DUP1 PUSH1 0x40 MSTORE POP DUP2 ADD SWAP1 PUSH2 0xC37 SWAP2 SWAP1 PUSH2 0x369F JUMP JUMPDEST SWAP1 POP DUP1 SWAP2 POP POP SWAP1 JUMP JUMPDEST PUSH1 0x0 PUSH1 0x6 PUSH1 0x0 CALLER PUSH20 0xFFFFFFFFFFFFFFFFFFFFFFFFFFFFFFFFFFFFFFFF AND PUSH20 0xFFFFFFFFFFFFFFFFFFFFFFFFFFFFFFFFFFFFFFFF AND DUP2 MSTORE PUSH1 0x20 ADD SWAP1 DUP2 MSTORE PUSH1 0x20 ADD PUSH1 0x0 KECCAK256 PUSH1 0x4 ADD PUSH1 0x0 SWAP1 SLOAD SWAP1 PUSH2 0x100 EXP SWAP1 DIV PUSH1 0xFF AND PUSH2 0xCD1 JUMPI PUSH1 0x40 MLOAD PUSH32 0x8C379A000000000000000000000000000000000000000000000000000000000 DUP2 MSTORE PUSH1 0x4 ADD PUSH2 0xCC8 SWAP1 PUSH2 0x33E6 JUMP JUMPDEST PUSH1 0x40 MLOAD DUP1 SWAP2 SUB SWAP1 REVERT JUMPDEST PUSH1 0x0 PUSH1 0x3 PUSH1 0x0 DUP2 SLOAD DUP1 SWAP3 SWAP2 SWAP1 PUSH2 0xCE6 SWAP1 PUSH2 0x36CC JUMP JUMPDEST SWAP2 SWAP1 POP SSTORE SWAP1 POP PUSH1 0x0 PUSH1 0x7 PUSH1 0x0 DUP4 DUP2 MSTORE PUSH1 0x20 ADD SWAP1 DUP2 MSTORE PUSH1 0x20 ADD PUSH1 0x0 KECCAK256 SWAP1 POP DUP2 DUP2 PUSH1 0x0 ADD DUP2 SWAP1 SSTORE POP CALLER DUP2 PUSH1 0x1 ADD PUSH1 0x0 PUSH2 0x100 EXP DUP2 SLOAD DUP2 PUSH20 0xFFFFFFFFFFFFFFFFFFFFFFFFFFFFFFFFFFFFFFFF MUL NOT AND SWAP1 DUP4 PUSH20 0xFFFFFFFFFFFFFFFFFFFFFFFFFFFFFFFFFFFFFFFF AND MUL OR SWAP1 SSTORE POP DUP6 DUP2 PUSH1 0x2 ADD SWAP1 DUP2 PUSH2 0xD60 SWAP2 SWAP1 PUSH2 0x38B6 JUMP JUMPDEST POP DUP5 DUP2 PUSH1 0x3 ADD SWAP1 DUP2 PUSH2 0xD72 SWAP2 SWAP1 PUSH2 0x38B6 JUMP JUMPDEST POP DUP4 DUP2 PUSH1 0x4 ADD SWAP1 DUP2 PUSH2 0xD84 SWAP2 SWAP1 PUSH2 0x38B6 JUMP JUMPDEST POP TIMESTAMP DUP2 PUSH1 0x7 ADD DUP2 SWAP1 SSTORE POP PUSH1 0x8 DUP3 SWAP1 DUP1 PUSH1 0x1 DUP2 SLOAD ADD DUP1 DUP3 SSTORE DUP1 SWAP2 POP POP PUSH1 0x1 SWAP1 SUB SWAP1 PUSH1 0x0 MSTORE PUSH1 0x20 PUSH1 0x0 KECCAK256 ADD PUSH1 0x0 SWAP1 SWAP2 SWAP1 SWAP2 SWAP1 SWAP2 POP SSTORE PUSH1 0x5 PUSH1 0x0 SWAP1 SLOAD SWAP1 PUSH2 0x100 EXP SWAP1 DIV PUSH20 0xFFFFFFFFFFFFFFFFFFFFFFFFFFFFFFFFFFFFFFFF AND PUSH20 0xFFFFFFFFFFFFFFFFFFFFFFFFFFFFFFFFFFFFFFFF AND PUSH4 0xA9059CBB CALLER PUSH1 0x2 SLOAD PUSH1 0x40 MLOAD DUP4 PUSH4 0xFFFFFFFF AND PUSH1 0xE0 SHL DUP2 MSTORE PUSH1 0x4 ADD PUSH2 0xE16 SWAP3 SWAP2 SWAP1 PUSH2 0x3988 JUMP JUMPDEST PUSH1 0x20 PUSH1 0x40 MLOAD DUP1 DUP4 SUB DUP2 PUSH1 0x0 DUP8 GAS CALL ISZERO DUP1 ISZERO PUSH2 0xE35 JUMPI RETURNDATASIZE PUSH1 0x0 DUP1 RETURNDATACOPY RETURNDATASIZE PUSH1 0x0 REVERT JUMPDEST POP POP POP POP PUSH1 0x40 MLOAD RETURNDATASIZE PUSH1 0x1F NOT PUSH1 0x1F DUP3 ADD AND DUP3 ADD DUP1 PUSH1 0x40 MSTORE POP DUP2 ADD SWAP1 PUSH2 0xE59 SWAP2 SWAP1 PUSH2 0x39DD JUMP JUMPDEST POP DUP2 SWAP3 POP POP POP SWAP4 SWAP3 POP POP POP JUMP JUMPDEST PUSH1 0x6 PUSH1 0x0 CALLER PUSH20 0xFFFFFFFFFFFFFFFFFFFFFFFFFFFFFFFFFFFFFFFF AND PUSH20 0xFFFFFFFFFFFFFFFFFFFFFFFFFFFFFFFFFFFFFFFF AND DUP2 MSTORE PUSH1 0x20 ADD SWAP1 DUP2 MSTORE PUSH1 0x20 ADD PUSH1 0x0 KECCAK256 PUSH1 0x4 ADD PUSH1 0x0 SWAP1 SLOAD SWAP1 PUSH2 0x100 EXP SWAP1 DIV PUSH1 0xFF AND PUSH2 0xEF5 JUMPI PUSH1 0x40 MLOAD PUSH32 0x8C379A000000000000000000000000000000000000000000000000000000000 DUP2 MSTORE PUSH1 0x4 ADD PUSH2 0xEEC SWAP1 PUSH2 0x3A56 JUMP JUMPDEST PUSH1 0x40 MLOAD DUP1 SWAP2 SUB SWAP1 REVERT JUMPDEST PUSH1 0x1 PUSH1 0x0 CALLER PUSH20 0xFFFFFFFFFFFFFFFFFFFFFFFFFFFFFFFFFFFFFFFF AND PUSH20 0xFFFFFFFFFFFFFFFFFFFFFFFFFFFFFFFFFFFFFFFF AND DUP2 MSTORE PUSH1 0x20 ADD SWAP1 DUP2 MSTORE PUSH1 0x20 ADD PUSH1 0x0 KECCAK256 PUSH1 0x0 SWAP1 SLOAD SWAP1 PUSH2 0x100 EXP SWAP1 DIV PUSH1 0xFF AND PUSH2 0xF81 JUMPI PUSH1 0x40 MLOAD PUSH32 0x8C379A000000000000000000000000000000000000000000000000000000000 DUP2 MSTORE PUSH1 0x4 ADD PUSH2 0xF78 SWAP1 PUSH2 0x3AC2 JUMP JUMPDEST PUSH1 0x40 MLOAD DUP1 SWAP2 SUB SWAP1 REVERT JUMPDEST PUSH1 0x0 PUSH1 0x6 PUSH1 0x0 DUP4 PUSH20 0xFFFFFFFFFFFFFFFFFFFFFFFFFFFFFFFFFFFFFFFF AND PUSH20 0xFFFFFFFFFFFFFFFFFFFFFFFFFFFFFFFFFFFFFFFF AND DUP2 MSTORE PUSH1 0x20 ADD SWAP1 DUP2 MSTORE PUSH1 0x20 ADD PUSH1 0x0 KECCAK256 PUSH1 0x4 ADD PUSH1 0x0 PUSH2 0x100 EXP DUP2 SLOAD DUP2 PUSH1 0xFF MUL NOT AND SWAP1 DUP4 ISZERO ISZERO MUL OR SWAP1 SSTORE POP POP JUMP JUMPDEST PUSH1 0x1 PUSH1 0x20 MSTORE DUP1 PUSH1 0x0 MSTORE PUSH1 0x40 PUSH1 0x0 KECCAK256 PUSH1 0x0 SWAP2 POP SLOAD SWAP1 PUSH2 0x100 EXP SWAP1 DIV PUSH1 0xFF AND DUP2 JUMP JUMPDEST PUSH1 0x0 DUP1 SLOAD SWAP1 PUSH2 0x100 EXP SWAP1 DIV PUSH20 0xFFFFFFFFFFFFFFFFFFFFFFFFFFFFFFFFFFFFFFFF AND PUSH20 0xFFFFFFFFFFFFFFFFFFFFFFFFFFFFFFFFFFFFFFFF AND CALLER PUSH20 0xFFFFFFFFFFFFFFFFFFFFFFFFFFFFFFFFFFFFFFFF AND EQ PUSH2 0x108D JUMPI PUSH1 0x40 MLOAD PUSH32 0x8C379A000000000000000000000000000000000000000000000000000000000 DUP2 MSTORE PUSH1 0x4 ADD PUSH2 0x1084 SWAP1 PUSH2 0x3B2E JUMP JUMPDEST PUSH1 0x40 MLOAD DUP1 SWAP2 SUB SWAP1 REVERT JUMPDEST PUSH1 0x0 PUSH1 0x1 PUSH1 0x0 DUP4 PUSH20 0xFFFFFFFFFFFFFFFFFFFFFFFFFFFFFFFFFFFFFFFF AND PUSH20 0xFFFFFFFFFFFFFFFFFFFFFFFFFFFFFFFFFFFFFFFF AND DUP2 MSTORE PUSH1 0x20 ADD SWAP1 DUP2 MSTORE PUSH1 0x20 ADD PUSH1 0x0 KECCAK256 PUSH1 0x0 PUSH2 0x100 EXP DUP2 SLOAD DUP2 PUSH1 0xFF MUL NOT AND SWAP1 DUP4 ISZERO ISZERO MUL OR SWAP1 SSTORE POP POP JUMP JUMPDEST PUSH1 0x60 PUSH1 0x0 DUP3 GT PUSH2 0x112D JUMPI PUSH1 0x40 MLOAD PUSH32 0x8C379A000000000000000000000000000000000000000000000000000000000 DUP2 MSTORE PUSH1 0x4 ADD PUSH2 0x1124 SWAP1 PUSH2 0x3B9A JUMP JUMPDEST PUSH1 0x40 MLOAD DUP1 SWAP2 SUB SWAP1 REVERT JUMPDEST PUSH1 0x0 PUSH1 0x8 DUP1 SLOAD SWAP1 POP SWAP1 POP PUSH1 0x0 DUP5 DUP5 PUSH2 0x1145 SWAP2 SWAP1 PUSH2 0x3BBA JUMP JUMPDEST DUP3 GT PUSH2 0x1152 JUMPI PUSH1 0x0 PUSH2 0x116A JUMP JUMPDEST DUP5 DUP5 PUSH2 0x115E SWAP2 SWAP1 PUSH2 0x3BBA JUMP JUMPDEST DUP3 PUSH2 0x1169 SWAP2 SWAP1 PUSH2 0x3BFC JUMP JUMPDEST JUMPDEST SWAP1 POP PUSH1 0x0 DUP5 DUP3 PUSH2 0x117A SWAP2 SWAP1 PUSH2 0x3553 JUMP JUMPDEST DUP4 GT PUSH2 0x1186 JUMPI DUP3 PUSH2 0x1193 JUMP JUMPDEST DUP5 DUP3 PUSH2 0x1192 SWAP2 SWAP1 PUSH2 0x3553 JUMP JUMPDEST JUMPDEST SWAP1 POP PUSH1 0x0 DUP3 DUP3 PUSH2 0x11A3 SWAP2 SWAP1 PUSH2 0x3BFC JUMP JUMPDEST SWAP1 POP PUSH1 0x0 DUP2 PUSH8 0xFFFFFFFFFFFFFFFF DUP2 GT ISZERO PUSH2 0x11C1 JUMPI PUSH2 0x11C0 PUSH2 0x2B46 JUMP JUMPDEST JUMPDEST PUSH1 0x40 MLOAD SWAP1 DUP1 DUP3 MSTORE DUP1 PUSH1 0x20 MUL PUSH1 0x20 ADD DUP3 ADD PUSH1 0x40 MSTORE DUP1 ISZERO PUSH2 0x11FA JUMPI DUP2 PUSH1 0x20 ADD JUMPDEST PUSH2 0x11E7 PUSH2 0x27A2 JUMP JUMPDEST DUP2 MSTORE PUSH1 0x20 ADD SWAP1 PUSH1 0x1 SWAP1 SUB SWAP1 DUP2 PUSH2 0x11DF JUMPI SWAP1 POP JUMPDEST POP SWAP1 POP PUSH1 0x0 JUMPDEST DUP3 DUP2 LT ISZERO PUSH2 0x14B9 JUMPI PUSH1 0x7 PUSH1 0x0 PUSH1 0x8 DUP4 DUP9 PUSH2 0x121A SWAP2 SWAP1 PUSH2 0x3553 JUMP JUMPDEST DUP2 SLOAD DUP2 LT PUSH2 0x122B JUMPI PUSH2 0x122A PUSH2 0x3C30 JUMP JUMPDEST JUMPDEST SWAP1 PUSH1 0x0 MSTORE PUSH1 0x20 PUSH1 0x0 KECCAK256 ADD SLOAD DUP2 MSTORE PUSH1 0x20 ADD SWAP1 DUP2 MSTORE PUSH1 0x20 ADD PUSH1 0x0 KECCAK256 PUSH1 0x40 MLOAD DUP1 PUSH2 0x120 ADD PUSH1 0x40 MSTORE SWAP1 DUP2 PUSH1 0x0 DUP3 ADD SLOAD DUP2 MSTORE PUSH1 0x20 ADD PUSH1 0x1 DUP3 ADD PUSH1 0x0 SWAP1 SLOAD SWAP1 PUSH2 0x100 EXP SWAP1 DIV PUSH20 0xFFFFFFFFFFFFFFFFFFFFFFFFFFFFFFFFFFFFFFFF AND PUSH20 0xFFFFFFFFFFFFFFFFFFFFFFFFFFFFFFFFFFFFFFFF AND PUSH20 0xFFFFFFFFFFFFFFFFFFFFFFFFFFFFFFFFFFFFFFFF AND DUP2 MSTORE PUSH1 0x20 ADD PUSH1 0x2 DUP3 ADD DUP1 SLOAD PUSH2 0x12C0 SWAP1 PUSH2 0x35ED JUMP JUMPDEST DUP1 PUSH1 0x1F ADD PUSH1 0x20 DUP1 SWAP2 DIV MUL PUSH1 0x20 ADD PUSH1 0x40 MLOAD SWAP1 DUP2 ADD PUSH1 0x40 MSTORE DUP1 SWAP3 SWAP2 SWAP1 DUP2 DUP2 MSTORE PUSH1 0x20 ADD DUP3 DUP1 SLOAD PUSH2 0x12EC SWAP1 PUSH2 0x35ED JUMP JUMPDEST DUP1 ISZERO PUSH2 0x1339 JUMPI DUP1 PUSH1 0x1F LT PUSH2 0x130E JUMPI PUSH2 0x100 DUP1 DUP4 SLOAD DIV MUL DUP4 MSTORE SWAP2 PUSH1 0x20 ADD SWAP2 PUSH2 0x1339 JUMP JUMPDEST DUP3 ADD SWAP2 SWAP1 PUSH1 0x0 MSTORE PUSH1 0x20 PUSH1 0x0 KECCAK256 SWAP1 JUMPDEST DUP2 SLOAD DUP2 MSTORE SWAP1 PUSH1 0x1 ADD SWAP1 PUSH1 0x20 ADD DUP1 DUP4 GT PUSH2 0x131C JUMPI DUP3 SWAP1 SUB PUSH1 0x1F AND DUP3 ADD SWAP2 JUMPDEST POP POP POP POP POP DUP2 MSTORE PUSH1 0x20 ADD PUSH1 0x3 DUP3 ADD DUP1 SLOAD PUSH2 0x1352 SWAP1 PUSH2 0x35ED JUMP JUMPDEST DUP1 PUSH1 0x1F ADD PUSH1 0x20 DUP1 SWAP2 DIV MUL PUSH1 0x20 ADD PUSH1 0x40 MLOAD SWAP1 DUP2 ADD PUSH1 0x40 MSTORE DUP1 SWAP3 SWAP2 SWAP1 DUP2 DUP2 MSTORE PUSH1 0x20 ADD DUP3 DUP1 SLOAD PUSH2 0x137E SWAP1 PUSH2 0x35ED JUMP JUMPDEST DUP1 ISZERO PUSH2 0x13CB JUMPI DUP1 PUSH1 0x1F LT PUSH2 0x13A0 JUMPI PUSH2 0x100 DUP1 DUP4 SLOAD DIV MUL DUP4 MSTORE SWAP2 PUSH1 0x20 ADD SWAP2 PUSH2 0x13CB JUMP JUMPDEST DUP3 ADD SWAP2 SWAP1 PUSH1 0x0 MSTORE PUSH1 0x20 PUSH1 0x0 KECCAK256 SWAP1 JUMPDEST DUP2 SLOAD DUP2 MSTORE SWAP1 PUSH1 0x1 ADD SWAP1 PUSH1 0x20 ADD DUP1 DUP4 GT PUSH2 0x13AE JUMPI DUP3 SWAP1 SUB PUSH1 0x1F AND DUP3 ADD SWAP2 JUMPDEST POP POP POP POP POP DUP2 MSTORE PUSH1 0x20 ADD PUSH1 0x4 DUP3 ADD DUP1 SLOAD PUSH2 0x13E4 SWAP1 PUSH2 0x35ED JUMP JUMPDEST DUP1 PUSH1 0x1F ADD PUSH1 0x20 DUP1 SWAP2 DIV MUL PUSH1 0x20 ADD PUSH1 0x40 MLOAD SWAP1 DUP2 ADD PUSH1 0x40 MSTORE DUP1 SWAP3 SWAP2 SWAP1 DUP2 DUP2 MSTORE PUSH1 0x20 ADD DUP3 DUP1 SLOAD PUSH2 0x1410 SWAP1 PUSH2 0x35ED JUMP JUMPDEST DUP1 ISZERO PUSH2 0x145D JUMPI DUP1 PUSH1 0x1F LT PUSH2 0x1432 JUMPI PUSH2 0x100 DUP1 DUP4 SLOAD DIV MUL DUP4 MSTORE SWAP2 PUSH1 0x20 ADD SWAP2 PUSH2 0x145D JUMP JUMPDEST DUP3 ADD SWAP2 SWAP1 PUSH1 0x0 MSTORE PUSH1 0x20 PUSH1 0x0 KECCAK256 SWAP1 JUMPDEST DUP2 SLOAD DUP2 MSTORE SWAP1 PUSH1 0x1 ADD SWAP1 PUSH1 0x20 ADD DUP1 DUP4 GT PUSH2 0x1440 JUMPI DUP3 SWAP1 SUB PUSH1 0x1F AND DUP3 ADD SWAP2 JUMPDEST POP POP POP POP POP DUP2 MSTORE PUSH1 0x20 ADD PUSH1 0x5 DUP3 ADD SLOAD DUP2 MSTORE PUSH1 0x20 ADD PUSH1 0x6 DUP3 ADD SLOAD DUP2 MSTORE PUSH1 0x20 ADD PUSH1 0x7 DUP3 ADD SLOAD DUP2 MSTORE PUSH1 0x20 ADD PUSH1 0x8 DUP3 ADD SLOAD DUP2 MSTORE POP POP DUP3 DUP3 DUP2 MLOAD DUP2 LT PUSH2 0x14A1 JUMPI PUSH2 0x14A0 PUSH2 0x3C30 JUMP JUMPDEST JUMPDEST PUSH1 0x20 MUL PUSH1 0x20 ADD ADD DUP2 SWAP1 MSTORE POP DUP1 DUP1 PUSH1 0x1 ADD SWAP2 POP POP PUSH2 0x1200 JUMP JUMPDEST POP DUP1 SWAP6 POP POP POP POP POP POP SWAP3 SWAP2 POP POP JUMP JUMPDEST PUSH1 0x0 PUSH20 0xFFFFFFFFFFFFFFFFFFFFFFFFFFFFFFFFFFFFFFFF AND PUSH1 0x6 PUSH1 0x0 CALLER PUSH20 0xFFFFFFFFFFFFFFFFFFFFFFFFFFFFFFFFFFFFFFFF AND PUSH20 0xFFFFFFFFFFFFFFFFFFFFFFFFFFFFFFFFFFFFFFFF AND DUP2 MSTORE PUSH1 0x20 ADD SWAP1 DUP2 MSTORE PUSH1 0x20 ADD PUSH1 0x0 KECCAK256 PUSH1 0x1 ADD PUSH1 0x0 SWAP1 SLOAD SWAP1 PUSH2 0x100 EXP SWAP1 DIV PUSH20 0xFFFFFFFFFFFFFFFFFFFFFFFFFFFFFFFFFFFFFFFF AND PUSH20 0xFFFFFFFFFFFFFFFFFFFFFFFFFFFFFFFFFFFFFFFF AND EQ PUSH2 0x1599 JUMPI PUSH1 0x40 MLOAD PUSH32 0x8C379A000000000000000000000000000000000000000000000000000000000 DUP2 MSTORE PUSH1 0x4 ADD PUSH2 0x1590 SWAP1 PUSH2 0x3CAB JUMP JUMPDEST PUSH1 0x40 MLOAD DUP1 SWAP2 SUB SWAP1 REVERT JUMPDEST PUSH1 0x40 MLOAD DUP1 PUSH2 0x100 ADD PUSH1 0x40 MSTORE DUP1 PUSH1 0x4 SLOAD DUP2 MSTORE PUSH1 0x20 ADD CALLER PUSH20 0xFFFFFFFFFFFFFFFFFFFFFFFFFFFFFFFFFFFFFFFF AND DUP2 MSTORE PUSH1 0x20 ADD PUSH1 0x40 MLOAD DUP1 PUSH1 0x20 ADD PUSH1 0x40 MSTORE DUP1 PUSH1 0x0 DUP2 MSTORE POP DUP2 MSTORE PUSH1 0x20 ADD PUSH1 0x0 DUP2 MSTORE PUSH1 0x20 ADD PUSH1 0x1 ISZERO ISZERO DUP2 MSTORE PUSH1 0x20 ADD PUSH1 0x40 MLOAD DUP1 PUSH1 0x20 ADD PUSH1 0x40 MSTORE DUP1 PUSH1 0x0 DUP2 MSTORE POP DUP2 MSTORE PUSH1 0x20 ADD PUSH1 0x0 DUP2 MSTORE PUSH1 0x20 ADD PUSH1 0x0 DUP2 MSTORE POP PUSH1 0x6 PUSH1 0x0 CALLER PUSH20 0xFFFFFFFFFFFFFFFFFFFFFFFFFFFFFFFFFFFFFFFF AND PUSH20 0xFFFFFFFFFFFFFFFFFFFFFFFFFFFFFFFFFFFFFFFF AND DUP2 MSTORE PUSH1 0x20 ADD SWAP1 DUP2 MSTORE PUSH1 0x20 ADD PUSH1 0x0 KECCAK256 PUSH1 0x0 DUP3 ADD MLOAD DUP2 PUSH1 0x0 ADD SSTORE PUSH1 0x20 DUP3 ADD MLOAD DUP2 PUSH1 0x1 ADD PUSH1 0x0 PUSH2 0x100 EXP DUP2 SLOAD DUP2 PUSH20 0xFFFFFFFFFFFFFFFFFFFFFFFFFFFFFFFFFFFFFFFF MUL NOT AND SWAP1 DUP4 PUSH20 0xFFFFFFFFFFFFFFFFFFFFFFFFFFFFFFFFFFFFFFFF AND MUL OR SWAP1 SSTORE POP PUSH1 0x40 DUP3 ADD MLOAD DUP2 PUSH1 0x2 ADD SWAP1 DUP2 PUSH2 0x16B4 SWAP2 SWAP1 PUSH2 0x38B6 JUMP JUMPDEST POP PUSH1 0x60 DUP3 ADD MLOAD DUP2 PUSH1 0x3 ADD SSTORE PUSH1 0x80 DUP3 ADD MLOAD DUP2 PUSH1 0x4 ADD PUSH1 0x0 PUSH2 0x100 EXP DUP2 SLOAD DUP2 PUSH1 0xFF MUL NOT AND SWAP1 DUP4 ISZERO ISZERO MUL OR SWAP1 SSTORE POP PUSH1 0xA0 DUP3 ADD MLOAD DUP2 PUSH1 0x5 ADD SWAP1 DUP2 PUSH2 0x16F4 SWAP2 SWAP1 PUSH2 0x38B6 JUMP JUMPDEST POP PUSH1 0xC0 DUP3 ADD MLOAD DUP2 PUSH1 0x6 ADD SSTORE PUSH1 0xE0 DUP3 ADD MLOAD DUP2 PUSH1 0x7 ADD SSTORE SWAP1 POP POP PUSH1 0x4 PUSH1 0x0 DUP2 SLOAD DUP1 SWAP3 SWAP2 SWAP1 PUSH2 0x171F SWAP1 PUSH2 0x36CC JUMP JUMPDEST SWAP2 SWAP1 POP SSTORE POP JUMP JUMPDEST PUSH1 0x0 DUP1 SLOAD SWAP1 PUSH2 0x100 EXP SWAP1 DIV PUSH20 0xFFFFFFFFFFFFFFFFFFFFFFFFFFFFFFFFFFFFFFFF AND PUSH20 0xFFFFFFFFFFFFFFFFFFFFFFFFFFFFFFFFFFFFFFFF AND CALLER PUSH20 0xFFFFFFFFFFFFFFFFFFFFFFFFFFFFFFFFFFFFFFFF AND EQ PUSH2 0x17B4 JUMPI PUSH1 0x40 MLOAD PUSH32 0x8C379A000000000000000000000000000000000000000000000000000000000 DUP2 MSTORE PUSH1 0x4 ADD PUSH2 0x17AB SWAP1 PUSH2 0x3D17 JUMP JUMPDEST PUSH1 0x40 MLOAD DUP1 SWAP2 SUB SWAP1 REVERT JUMPDEST PUSH1 0x1 DUP1 PUSH1 0x0 DUP4 PUSH20 0xFFFFFFFFFFFFFFFFFFFFFFFFFFFFFFFFFFFFFFFF AND PUSH20 0xFFFFFFFFFFFFFFFFFFFFFFFFFFFFFFFFFFFFFFFF AND DUP2 MSTORE PUSH1 0x20 ADD SWAP1 DUP2 MSTORE PUSH1 0x20 ADD PUSH1 0x0 KECCAK256 PUSH1 0x0 PUSH2 0x100 EXP DUP2 SLOAD DUP2 PUSH1 0xFF MUL NOT AND SWAP1 DUP4 ISZERO ISZERO MUL OR SWAP1 SSTORE POP POP JUMP JUMPDEST PUSH1 0x8 DUP2 DUP2 SLOAD DUP2 LT PUSH2 0x181E JUMPI PUSH1 0x0 DUP1 REVERT JUMPDEST SWAP1 PUSH1 0x0 MSTORE PUSH1 0x20 PUSH1 0x0 KECCAK256 ADD PUSH1 0x0 SWAP2 POP SWAP1 POP SLOAD DUP2 JUMP JUMPDEST PUSH1 0xB PUSH1 0x20 MSTORE DUP2 PUSH1 0x0 MSTORE PUSH1 0x40 PUSH1 0x0 KECCAK256 DUP2 DUP2 SLOAD DUP2 LT PUSH2 0x184E JUMPI PUSH1 0x0 DUP1 REVERT JUMPDEST SWAP1 PUSH1 0x0 MSTORE PUSH1 0x20 PUSH1 0x0 KECCAK256 SWAP1 PUSH1 0x6 MUL ADD PUSH1 0x0 SWAP2 POP SWAP2 POP POP DUP1 PUSH1 0x0 ADD PUSH1 0x0 SWAP1 SLOAD SWAP1 PUSH2 0x100 EXP SWAP1 DIV PUSH20 0xFFFFFFFFFFFFFFFFFFFFFFFFFFFFFFFFFFFFFFFF AND SWAP1 DUP1 PUSH1 0x1 ADD DUP1 SLOAD PUSH2 0x1898 SWAP1 PUSH2 0x35ED JUMP JUMPDEST DUP1 PUSH1 0x1F ADD PUSH1 0x20 DUP1 SWAP2 DIV MUL PUSH1 0x20 ADD PUSH1 0x40 MLOAD SWAP1 DUP2 ADD PUSH1 0x40 MSTORE DUP1 SWAP3 SWAP2 SWAP1 DUP2 DUP2 MSTORE PUSH1 0x20 ADD DUP3 DUP1 SLOAD PUSH2 0x18C4 SWAP1 PUSH2 0x35ED JUMP JUMPDEST DUP1 ISZERO PUSH2 0x1911 JUMPI DUP1 PUSH1 0x1F LT PUSH2 0x18E6 JUMPI PUSH2 0x100 DUP1 DUP4 SLOAD DIV MUL DUP4 MSTORE SWAP2 PUSH1 0x20 ADD SWAP2 PUSH2 0x1911 JUMP JUMPDEST DUP3 ADD SWAP2 SWAP1 PUSH1 0x0 MSTORE PUSH1 0x20 PUSH1 0x0 KECCAK256 SWAP1 JUMPDEST DUP2 SLOAD DUP2 MSTORE SWAP1 PUSH1 0x1 ADD SWAP1 PUSH1 0x20 ADD DUP1 DUP4 GT PUSH2 0x18F4 JUMPI DUP3 SWAP1 SUB PUSH1 0x1F AND DUP3 ADD SWAP2 JUMPDEST POP POP POP POP POP SWAP1 DUP1 PUSH1 0x2 ADD DUP1 SLOAD PUSH2 0x1926 SWAP1 PUSH2 0x35ED JUMP JUMPDEST DUP1 PUSH1 0x1F ADD PUSH1 0x20 DUP1 SWAP2 DIV MUL PUSH1 0x20 ADD PUSH1 0x40 MLOAD SWAP1 DUP2 ADD PUSH1 0x40 MSTORE DUP1 SWAP3 SWAP2 SWAP1 DUP2 DUP2 MSTORE PUSH1 0x20 ADD DUP3 DUP1 SLOAD PUSH2 0x1952 SWAP1 PUSH2 0x35ED JUMP JUMPDEST DUP1 ISZERO PUSH2 0x199F JUMPI DUP1 PUSH1 0x1F LT PUSH2 0x1974 JUMPI PUSH2 0x100 DUP1 DUP4 SLOAD DIV MUL DUP4 MSTORE SWAP2 PUSH1 0x20 ADD SWAP2 PUSH2 0x199F JUMP JUMPDEST DUP3 ADD SWAP2 SWAP1 PUSH1 0x0 MSTORE PUSH1 0x20 PUSH1 0x0 KECCAK256 SWAP1 JUMPDEST DUP2 SLOAD DUP2 MSTORE SWAP1 PUSH1 0x1 ADD SWAP1 PUSH1 0x20 ADD DUP1 DUP4 GT PUSH2 0x1982 JUMPI DUP3 SWAP1 SUB PUSH1 0x1F AND DUP3 ADD SWAP2 JUMPDEST POP POP POP POP POP SWAP1 DUP1 PUSH1 0x3 ADD DUP1 SLOAD PUSH2 0x19B4 SWAP1 PUSH2 0x35ED JUMP JUMPDEST DUP1 PUSH1 0x1F ADD PUSH1 0x20 DUP1 SWAP2 DIV MUL PUSH1 0x20 ADD PUSH1 0x40 MLOAD SWAP1 DUP2 ADD PUSH1 0x40 MSTORE DUP1 SWAP3 SWAP2 SWAP1 DUP2 DUP2 MSTORE PUSH1 0x20 ADD DUP3 DUP1 SLOAD PUSH2 0x19E0 SWAP1 PUSH2 0x35ED JUMP JUMPDEST DUP1 ISZERO PUSH2 0x1A2D JUMPI DUP1 PUSH1 0x1F LT PUSH2 0x1A02 JUMPI PUSH2 0x100 DUP1 DUP4 SLOAD DIV MUL DUP4 MSTORE SWAP2 PUSH1 0x20 ADD SWAP2 PUSH2 0x1A2D JUMP JUMPDEST DUP3 ADD SWAP2 SWAP1 PUSH1 0x0 MSTORE PUSH1 0x20 PUSH1 0x0 KECCAK256 SWAP1 JUMPDEST DUP2 SLOAD DUP2 MSTORE SWAP1 PUSH1 0x1 ADD SWAP1 PUSH1 0x20 ADD DUP1 DUP4 GT PUSH2 0x1A10 JUMPI DUP3 SWAP1 SUB PUSH1 0x1F AND DUP3 ADD SWAP2 JUMPDEST POP POP POP POP POP SWAP1 DUP1 PUSH1 0x4 ADD SLOAD SWAP1 DUP1 PUSH1 0x5 ADD DUP1 SLOAD PUSH2 0x1A48 SWAP1 PUSH2 0x35ED JUMP JUMPDEST DUP1 PUSH1 0x1F ADD PUSH1 0x20 DUP1 SWAP2 DIV MUL PUSH1 0x20 ADD PUSH1 0x40 MLOAD SWAP1 DUP2 ADD PUSH1 0x40 MSTORE DUP1 SWAP3 SWAP2 SWAP1 DUP2 DUP2 MSTORE PUSH1 0x20 ADD DUP3 DUP1 SLOAD PUSH2 0x1A74 SWAP1 PUSH2 0x35ED JUMP JUMPDEST DUP1 ISZERO PUSH2 0x1AC1 JUMPI DUP1 PUSH1 0x1F LT PUSH2 0x1A96 JUMPI PUSH2 0x100 DUP1 DUP4 SLOAD DIV MUL DUP4 MSTORE SWAP2 PUSH1 0x20 ADD SWAP2 PUSH2 0x1AC1 JUMP JUMPDEST DUP3 ADD SWAP2 SWAP1 PUSH1 0x0 MSTORE PUSH1 0x20 PUSH1 0x0 KECCAK256 SWAP1 JUMPDEST DUP2 SLOAD DUP2 MSTORE SWAP1 PUSH1 0x1 ADD SWAP1 PUSH1 0x20 ADD DUP1 DUP4 GT PUSH2 0x1AA4 JUMPI DUP3 SWAP1 SUB PUSH1 0x1F AND DUP3 ADD SWAP2 JUMPDEST POP POP POP POP POP SWAP1 POP DUP7 JUMP JUMPDEST PUSH1 0x4 SLOAD DUP2 JUMP JUMPDEST PUSH1 0x3 SLOAD DUP2 JUMP JUMPDEST PUSH2 0x1ADF PUSH2 0x2804 JUMP JUMPDEST PUSH1 0x6 PUSH1 0x0 DUP4 PUSH20 0xFFFFFFFFFFFFFFFFFFFFFFFFFFFFFFFFFFFFFFFF AND PUSH20 0xFFFFFFFFFFFFFFFFFFFFFFFFFFFFFFFFFFFFFFFF AND DUP2 MSTORE PUSH1 0x20 ADD SWAP1 DUP2 MSTORE PUSH1 0x20 ADD PUSH1 0x0 KECCAK256 PUSH1 0x40 MLOAD DUP1 PUSH2 0x100 ADD PUSH1 0x40 MSTORE SWAP1 DUP2 PUSH1 0x0 DUP3 ADD SLOAD DUP2 MSTORE PUSH1 0x20 ADD PUSH1 0x1 DUP3 ADD PUSH1 0x0 SWAP1 SLOAD SWAP1 PUSH2 0x100 EXP SWAP1 DIV PUSH20 0xFFFFFFFFFFFFFFFFFFFFFFFFFFFFFFFFFFFFFFFF AND PUSH20 0xFFFFFFFFFFFFFFFFFFFFFFFFFFFFFFFFFFFFFFFF AND PUSH20 0xFFFFFFFFFFFFFFFFFFFFFFFFFFFFFFFFFFFFFFFF AND DUP2 MSTORE PUSH1 0x20 ADD PUSH1 0x2 DUP3 ADD DUP1 SLOAD PUSH2 0x1B9A SWAP1 PUSH2 0x35ED JUMP JUMPDEST DUP1 PUSH1 0x1F ADD PUSH1 0x20 DUP1 SWAP2 DIV MUL PUSH1 0x20 ADD PUSH1 0x40 MLOAD SWAP1 DUP2 ADD PUSH1 0x40 MSTORE DUP1 SWAP3 SWAP2 SWAP1 DUP2 DUP2 MSTORE PUSH1 0x20 ADD DUP3 DUP1 SLOAD PUSH2 0x1BC6 SWAP1 PUSH2 0x35ED JUMP JUMPDEST DUP1 ISZERO PUSH2 0x1C13 JUMPI DUP1 PUSH1 0x1F LT PUSH2 0x1BE8 JUMPI PUSH2 0x100 DUP1 DUP4 SLOAD DIV MUL DUP4 MSTORE SWAP2 PUSH1 0x20 ADD SWAP2 PUSH2 0x1C13 JUMP JUMPDEST DUP3 ADD SWAP2 SWAP1 PUSH1 0x0 MSTORE PUSH1 0x20 PUSH1 0x0 KECCAK256 SWAP1 JUMPDEST DUP2 SLOAD DUP2 MSTORE SWAP1 PUSH1 0x1 ADD SWAP1 PUSH1 0x20 ADD DUP1 DUP4 GT PUSH2 0x1BF6 JUMPI DUP3 SWAP1 SUB PUSH1 0x1F AND DUP3 ADD SWAP2 JUMPDEST POP POP POP POP POP DUP2 MSTORE PUSH1 0x20 ADD PUSH1 0x3 DUP3 ADD SLOAD DUP2 MSTORE PUSH1 0x20 ADD PUSH1 0x4 DUP3 ADD PUSH1 0x0 SWAP1 SLOAD SWAP1 PUSH2 0x100 EXP SWAP1 DIV PUSH1 0xFF AND ISZERO ISZERO ISZERO ISZERO DUP2 MSTORE PUSH1 0x20 ADD PUSH1 0x5 DUP3 ADD DUP1 SLOAD PUSH2 0x1C51 SWAP1 PUSH2 0x35ED JUMP JUMPDEST DUP1 PUSH1 0x1F ADD PUSH1 0x20 DUP1 SWAP2 DIV MUL PUSH1 0x20 ADD PUSH1 0x40 MLOAD SWAP1 DUP2 ADD PUSH1 0x40 MSTORE DUP1 SWAP3 SWAP2 SWAP1 DUP2 DUP2 MSTORE PUSH1 0x20 ADD DUP3 DUP1 SLOAD PUSH2 0x1C7D SWAP1 PUSH2 0x35ED JUMP JUMPDEST DUP1 ISZERO PUSH2 0x1CCA JUMPI DUP1 PUSH1 0x1F LT PUSH2 0x1C9F JUMPI PUSH2 0x100 DUP1 DUP4 SLOAD DIV MUL DUP4 MSTORE SWAP2 PUSH1 0x20 ADD SWAP2 PUSH2 0x1CCA JUMP JUMPDEST DUP3 ADD SWAP2 SWAP1 PUSH1 0x0 MSTORE PUSH1 0x20 PUSH1 0x0 KECCAK256 SWAP1 JUMPDEST DUP2 SLOAD DUP2 MSTORE SWAP1 PUSH1 0x1 ADD SWAP1 PUSH1 0x20 ADD DUP1 DUP4 GT PUSH2 0x1CAD JUMPI DUP3 SWAP1 SUB PUSH1 0x1F AND DUP3 ADD SWAP2 JUMPDEST POP POP POP POP POP DUP2 MSTORE PUSH1 0x20 ADD PUSH1 0x6 DUP3 ADD SLOAD DUP2 MSTORE PUSH1 0x20 ADD PUSH1 0x7 DUP3 ADD SLOAD DUP2 MSTORE POP POP SWAP1 POP SWAP2 SWAP1 POP JUMP JUMPDEST PUSH1 0x0 DUP1 SLOAD SWAP1 PUSH2 0x100 EXP SWAP1 DIV PUSH20 0xFFFFFFFFFFFFFFFFFFFFFFFFFFFFFFFFFFFFFFFF AND PUSH20 0xFFFFFFFFFFFFFFFFFFFFFFFFFFFFFFFFFFFFFFFF AND CALLER PUSH20 0xFFFFFFFFFFFFFFFFFFFFFFFFFFFFFFFFFFFFFFFF AND EQ PUSH2 0x1D7C JUMPI PUSH1 0x40 MLOAD PUSH32 0x8C379A000000000000000000000000000000000000000000000000000000000 DUP2 MSTORE PUSH1 0x4 ADD PUSH2 0x1D73 SWAP1 PUSH2 0x3D83 JUMP JUMPDEST PUSH1 0x40 MLOAD DUP1 SWAP2 SUB SWAP1 REVERT JUMPDEST PUSH1 0x5 PUSH1 0x0 SWAP1 SLOAD SWAP1 PUSH2 0x100 EXP SWAP1 DIV PUSH20 0xFFFFFFFFFFFFFFFFFFFFFFFFFFFFFFFFFFFFFFFF AND PUSH20 0xFFFFFFFFFFFFFFFFFFFFFFFFFFFFFFFFFFFFFFFF AND PUSH4 0x23B872DD CALLER ADDRESS DUP5 PUSH1 0x40 MLOAD DUP5 PUSH4 0xFFFFFFFF AND PUSH1 0xE0 SHL DUP2 MSTORE PUSH1 0x4 ADD PUSH2 0x1DDB SWAP4 SWAP3 SWAP2 SWAP1 PUSH2 0x3DA3 JUMP JUMPDEST PUSH1 0x20 PUSH1 0x40 MLOAD DUP1 DUP4 SUB DUP2 PUSH1 0x0 DUP8 GAS CALL ISZERO DUP1 ISZERO PUSH2 0x1DFA JUMPI RETURNDATASIZE PUSH1 0x0 DUP1 RETURNDATACOPY RETURNDATASIZE PUSH1 0x0 REVERT JUMPDEST POP POP POP POP PUSH1 0x40 MLOAD RETURNDATASIZE PUSH1 0x1F NOT PUSH1 0x1F DUP3 ADD AND DUP3 ADD DUP1 PUSH1 0x40 MSTORE POP DUP2 ADD SWAP1 PUSH2 0x1E1E SWAP2 SWAP1 PUSH2 0x39DD JUMP JUMPDEST PUSH2 0x1E27 JUMPI PUSH1 0x0 DUP1 REVERT JUMPDEST POP JUMP JUMPDEST PUSH1 0x5 PUSH1 0x0 SWAP1 SLOAD SWAP1 PUSH2 0x100 EXP SWAP1 DIV PUSH20 0xFFFFFFFFFFFFFFFFFFFFFFFFFFFFFFFFFFFFFFFF AND DUP2 JUMP JUMPDEST PUSH1 0x0 DUP2 PUSH1 0x6 PUSH1 0x0 CALLER PUSH20 0xFFFFFFFFFFFFFFFFFFFFFFFFFFFFFFFFFFFFFFFF AND PUSH20 0xFFFFFFFFFFFFFFFFFFFFFFFFFFFFFFFFFFFFFFFF AND DUP2 MSTORE PUSH1 0x20 ADD SWAP1 DUP2 MSTORE PUSH1 0x20 ADD PUSH1 0x0 KECCAK256 PUSH1 0x2 ADD SWAP1 DUP2 PUSH2 0x1EA1 SWAP2 SWAP1 PUSH2 0x38B6 JUMP JUMPDEST POP PUSH1 0x1 SWAP1 POP SWAP2 SWAP1 POP JUMP JUMPDEST PUSH1 0x6 PUSH1 0x0 CALLER PUSH20 0xFFFFFFFFFFFFFFFFFFFFFFFFFFFFFFFFFFFFFFFF AND PUSH20 0xFFFFFFFFFFFFFFFFFFFFFFFFFFFFFFFFFFFFFFFF AND DUP2 MSTORE PUSH1 0x20 ADD SWAP1 DUP2 MSTORE PUSH1 0x20 ADD PUSH1 0x0 KECCAK256 PUSH1 0x4 ADD PUSH1 0x0 SWAP1 SLOAD SWAP1 PUSH2 0x100 EXP SWAP1 DIV PUSH1 0xFF AND PUSH2 0x1F3A JUMPI PUSH1 0x40 MLOAD PUSH32 0x8C379A000000000000000000000000000000000000000000000000000000000 DUP2 MSTORE PUSH1 0x4 ADD PUSH2 0x1F31 SWAP1 PUSH2 0x33E6 JUMP JUMPDEST PUSH1 0x40 MLOAD DUP1 SWAP2 SUB SWAP1 REVERT JUMPDEST PUSH1 0xB PUSH1 0x0 DUP6 DUP2 MSTORE PUSH1 0x20 ADD SWAP1 DUP2 MSTORE PUSH1 0x20 ADD PUSH1 0x0 KECCAK256 PUSH1 0x40 MLOAD DUP1 PUSH1 0xC0 ADD PUSH1 0x40 MSTORE DUP1 CALLER PUSH20 0xFFFFFFFFFFFFFFFFFFFFFFFFFFFFFFFFFFFFFFFF AND DUP2 MSTORE PUSH1 0x20 ADD DUP6 DUP2 MSTORE PUSH1 0x20 ADD DUP5 DUP2 MSTORE PUSH1 0x20 ADD DUP4 DUP2 MSTORE PUSH1 0x20 ADD TIMESTAMP DUP2 MSTORE PUSH1 0x20 ADD PUSH1 0x6 PUSH1 0x0 CALLER PUSH20 0xFFFFFFFFFFFFFFFFFFFFFFFFFFFFFFFFFFFFFFFF AND PUSH20 0xFFFFFFFFFFFFFFFFFFFFFFFFFFFFFFFFFFFFFFFF AND DUP2 MSTORE PUSH1 0x20 ADD SWAP1 DUP2 MSTORE PUSH1 0x20 ADD PUSH1 0x0 KECCAK256 PUSH1 0x5 ADD DUP1 SLOAD PUSH2 0x1FD9 SWAP1 PUSH2 0x35ED JUMP JUMPDEST DUP1 PUSH1 0x1F ADD PUSH1 0x20 DUP1 SWAP2 DIV MUL PUSH1 0x20 ADD PUSH1 0x40 MLOAD SWAP1 DUP2 ADD PUSH1 0x40 MSTORE DUP1 SWAP3 SWAP2 SWAP1 DUP2 DUP2 MSTORE PUSH1 0x20 ADD DUP3 DUP1 SLOAD PUSH2 0x2005 SWAP1 PUSH2 0x35ED JUMP JUMPDEST DUP1 ISZERO PUSH2 0x2052 JUMPI DUP1 PUSH1 0x1F LT PUSH2 0x2027 JUMPI PUSH2 0x100 DUP1 DUP4 SLOAD DIV MUL DUP4 MSTORE SWAP2 PUSH1 0x20 ADD SWAP2 PUSH2 0x2052 JUMP JUMPDEST DUP3 ADD SWAP2 SWAP1 PUSH1 0x0 MSTORE PUSH1 0x20 PUSH1 0x0 KECCAK256 SWAP1 JUMPDEST DUP2 SLOAD DUP2 MSTORE SWAP1 PUSH1 0x1 ADD SWAP1 PUSH1 0x20 ADD DUP1 DUP4 GT PUSH2 0x2035 JUMPI DUP3 SWAP1 SUB PUSH1 0x1F AND DUP3 ADD SWAP2 JUMPDEST POP POP POP POP POP DUP2 MSTORE POP SWAP1 DUP1 PUSH1 0x1 DUP2 SLOAD ADD DUP1 DUP3 SSTORE DUP1 SWAP2 POP POP PUSH1 0x1 SWAP1 SUB SWAP1 PUSH1 0x0 MSTORE PUSH1 0x20 PUSH1 0x0 KECCAK256 SWAP1 PUSH1 0x6 MUL ADD PUSH1 0x0 SWAP1 SWAP2 SWAP1 SWAP2 SWAP1 SWAP2 POP PUSH1 0x0 DUP3 ADD MLOAD DUP2 PUSH1 0x0 ADD PUSH1 0x0 PUSH2 0x100 EXP DUP2 SLOAD DUP2 PUSH20 0xFFFFFFFFFFFFFFFFFFFFFFFFFFFFFFFFFFFFFFFF MUL NOT AND SWAP1 DUP4 PUSH20 0xFFFFFFFFFFFFFFFFFFFFFFFFFFFFFFFFFFFFFFFF AND MUL OR SWAP1 SSTORE POP PUSH1 0x20 DUP3 ADD MLOAD DUP2 PUSH1 0x1 ADD SWAP1 DUP2 PUSH2 0x20DF SWAP2 SWAP1 PUSH2 0x38B6 JUMP JUMPDEST POP PUSH1 0x40 DUP3 ADD MLOAD DUP2 PUSH1 0x2 ADD SWAP1 DUP2 PUSH2 0x20F5 SWAP2 SWAP1 PUSH2 0x38B6 JUMP JUMPDEST POP PUSH1 0x60 DUP3 ADD MLOAD DUP2 PUSH1 0x3 ADD SWAP1 DUP2 PUSH2 0x210B SWAP2 SWAP1 PUSH2 0x38B6 JUMP JUMPDEST POP PUSH1 0x80 DUP3 ADD MLOAD DUP2 PUSH1 0x4 ADD SSTORE PUSH1 0xA0 DUP3 ADD MLOAD DUP2 PUSH1 0x5 ADD SWAP1 DUP2 PUSH2 0x212B SWAP2 SWAP1 PUSH2 0x38B6 JUMP JUMPDEST POP POP POP PUSH1 0x7 PUSH1 0x0 DUP6 DUP2 MSTORE PUSH1 0x20 ADD SWAP1 DUP2 MSTORE PUSH1 0x20 ADD PUSH1 0x0 KECCAK256 PUSH1 0x8 ADD PUSH1 0x0 DUP2 SLOAD DUP1 SWAP3 SWAP2 SWAP1 PUSH2 0x2155 SWAP1 PUSH2 0x36CC JUMP JUMPDEST SWAP2 SWAP1 POP SSTORE POP PUSH1 0x5 PUSH1 0x0 SWAP1 SLOAD SWAP1 PUSH2 0x100 EXP SWAP1 DIV PUSH20 0xFFFFFFFFFFFFFFFFFFFFFFFFFFFFFFFFFFFFFFFF AND PUSH20 0xFFFFFFFFFFFFFFFFFFFFFFFFFFFFFFFFFFFFFFFF AND PUSH4 0xA9059CBB CALLER PUSH1 0x2 SLOAD PUSH1 0x40 MLOAD DUP4 PUSH4 0xFFFFFFFF AND PUSH1 0xE0 SHL DUP2 MSTORE PUSH1 0x4 ADD PUSH2 0x21B9 SWAP3 SWAP2 SWAP1 PUSH2 0x3988 JUMP JUMPDEST PUSH1 0x20 PUSH1 0x40 MLOAD DUP1 DUP4 SUB DUP2 PUSH1 0x0 DUP8 GAS CALL ISZERO DUP1 ISZERO PUSH2 0x21D8 JUMPI RETURNDATASIZE PUSH1 0x0 DUP1 RETURNDATACOPY RETURNDATASIZE PUSH1 0x0 REVERT JUMPDEST POP POP POP POP PUSH1 0x40 MLOAD RETURNDATASIZE PUSH1 0x1F NOT PUSH1 0x1F DUP3 ADD AND DUP3 ADD DUP1 PUSH1 0x40 MSTORE POP DUP2 ADD SWAP1 PUSH2 0x21FC SWAP2 SWAP1 PUSH2 0x39DD JUMP JUMPDEST POP CALLER PUSH20 0xFFFFFFFFFFFFFFFFFFFFFFFFFFFFFFFFFFFFFFFF AND PUSH1 0x7 PUSH1 0x0 DUP7 DUP2 MSTORE PUSH1 0x20 ADD SWAP1 DUP2 MSTORE PUSH1 0x20 ADD PUSH1 0x0 KECCAK256 PUSH1 0x1 ADD PUSH1 0x0 SWAP1 SLOAD SWAP1 PUSH2 0x100 EXP SWAP1 DIV PUSH20 0xFFFFFFFFFFFFFFFFFFFFFFFFFFFFFFFFFFFFFFFF AND PUSH20 0xFFFFFFFFFFFFFFFFFFFFFFFFFFFFFFFFFFFFFFFF AND PUSH32 0x6A38C48487B8C690660CC0694E04F68EAF9211D74ED2E8E6721F4FAF00941D08 DUP7 TIMESTAMP PUSH1 0x40 MLOAD PUSH2 0x2292 SWAP3 SWAP2 SWAP1 PUSH2 0x3DDA JUMP JUMPDEST PUSH1 0x40 MLOAD DUP1 SWAP2 SUB SWAP1 LOG3 POP POP POP POP JUMP JUMPDEST PUSH1 0x6 PUSH1 0x20 MSTORE DUP1 PUSH1 0x0 MSTORE PUSH1 0x40 PUSH1 0x0 KECCAK256 PUSH1 0x0 SWAP2 POP SWAP1 POP DUP1 PUSH1 0x0 ADD SLOAD SWAP1 DUP1 PUSH1 0x1 ADD PUSH1 0x0 SWAP1 SLOAD SWAP1 PUSH2 0x100 EXP SWAP1 DIV PUSH20 0xFFFFFFFFFFFFFFFFFFFFFFFFFFFFFFFFFFFFFFFF AND SWAP1 DUP1 PUSH1 0x2 ADD DUP1 SLOAD PUSH2 0x22EF SWAP1 PUSH2 0x35ED JUMP JUMPDEST DUP1 PUSH1 0x1F ADD PUSH1 0x20 DUP1 SWAP2 DIV MUL PUSH1 0x20 ADD PUSH1 0x40 MLOAD SWAP1 DUP2 ADD PUSH1 0x40 MSTORE DUP1 SWAP3 SWAP2 SWAP1 DUP2 DUP2 MSTORE PUSH1 0x20 ADD DUP3 DUP1 SLOAD PUSH2 0x231B SWAP1 PUSH2 0x35ED JUMP JUMPDEST DUP1 ISZERO PUSH2 0x2368 JUMPI DUP1 PUSH1 0x1F LT PUSH2 0x233D JUMPI PUSH2 0x100 DUP1 DUP4 SLOAD DIV MUL DUP4 MSTORE SWAP2 PUSH1 0x20 ADD SWAP2 PUSH2 0x2368 JUMP JUMPDEST DUP3 ADD SWAP2 SWAP1 PUSH1 0x0 MSTORE PUSH1 0x20 PUSH1 0x0 KECCAK256 SWAP1 JUMPDEST DUP2 SLOAD DUP2 MSTORE SWAP1 PUSH1 0x1 ADD SWAP1 PUSH1 0x20 ADD DUP1 DUP4 GT PUSH2 0x234B JUMPI DUP3 SWAP1 SUB PUSH1 0x1F AND DUP3 ADD SWAP2 JUMPDEST POP POP POP POP POP SWAP1 DUP1 PUSH1 0x3 ADD SLOAD SWAP1 DUP1 PUSH1 0x4 ADD PUSH1 0x0 SWAP1 SLOAD SWAP1 PUSH2 0x100 EXP SWAP1 DIV PUSH1 0xFF AND SWAP1 DUP1 PUSH1 0x5 ADD DUP1 SLOAD PUSH2 0x2396 SWAP1 PUSH2 0x35ED JUMP JUMPDEST DUP1 PUSH1 0x1F ADD PUSH1 0x20 DUP1 SWAP2 DIV MUL PUSH1 0x20 ADD PUSH1 0x40 MLOAD SWAP1 DUP2 ADD PUSH1 0x40 MSTORE DUP1 SWAP3 SWAP2 SWAP1 DUP2 DUP2 MSTORE PUSH1 0x20 ADD DUP3 DUP1 SLOAD PUSH2 0x23C2 SWAP1 PUSH2 0x35ED JUMP JUMPDEST DUP1 ISZERO PUSH2 0x240F JUMPI DUP1 PUSH1 0x1F LT PUSH2 0x23E4 JUMPI PUSH2 0x100 DUP1 DUP4 SLOAD DIV MUL DUP4 MSTORE SWAP2 PUSH1 0x20 ADD SWAP2 PUSH2 0x240F JUMP JUMPDEST DUP3 ADD SWAP2 SWAP1 PUSH1 0x0 MSTORE PUSH1 0x20 PUSH1 0x0 KECCAK256 SWAP1 JUMPDEST DUP2 SLOAD DUP2 MSTORE SWAP1 PUSH1 0x1 ADD SWAP1 PUSH1 0x20 ADD DUP1 DUP4 GT PUSH2 0x23F2 JUMPI DUP3 SWAP1 SUB PUSH1 0x1F AND DUP3 ADD SWAP2 JUMPDEST POP POP POP POP POP SWAP1 DUP1 PUSH1 0x6 ADD SLOAD SWAP1 DUP1 PUSH1 0x7 ADD SLOAD SWAP1 POP DUP9 JUMP JUMPDEST PUSH1 0xA PUSH1 0x20 MSTORE DUP2 PUSH1 0x0 MSTORE PUSH1 0x40 PUSH1 0x0 KECCAK256 PUSH1 0x20 MSTORE DUP1 PUSH1 0x0 MSTORE PUSH1 0x40 PUSH1 0x0 KECCAK256 PUSH1 0x0 SWAP2 POP SWAP2 POP POP SLOAD DUP2 JUMP JUMPDEST PUSH1 0x9 PUSH1 0x20 MSTORE DUP2 PUSH1 0x0 MSTORE PUSH1 0x40 PUSH1 0x0 KECCAK256 PUSH1 0x20 MSTORE DUP1 PUSH1 0x0 MSTORE PUSH1 0x40 PUSH1 0x0 KECCAK256 PUSH1 0x0 SWAP2 POP SWAP2 POP SWAP1 SLOAD SWAP1 PUSH2 0x100 EXP SWAP1 DIV PUSH1 0xFF AND DUP2 JUMP JUMPDEST PUSH1 0x9 PUSH1 0x0 DUP3 DUP2 MSTORE PUSH1 0x20 ADD SWAP1 DUP2 MSTORE PUSH1 0x20 ADD PUSH1 0x0 KECCAK256 PUSH1 0x0 CALLER PUSH20 0xFFFFFFFFFFFFFFFFFFFFFFFFFFFFFFFFFFFFFFFF AND PUSH20 0xFFFFFFFFFFFFFFFFFFFFFFFFFFFFFFFFFFFFFFFF AND DUP2 MSTORE PUSH1 0x20 ADD SWAP1 DUP2 MSTORE PUSH1 0x20 ADD PUSH1 0x0 KECCAK256 PUSH1 0x0 SWAP1 SLOAD SWAP1 PUSH2 0x100 EXP SWAP1 DIV PUSH1 0xFF AND ISZERO PUSH2 0x2517 JUMPI PUSH1 0x40 MLOAD PUSH32 0x8C379A000000000000000000000000000000000000000000000000000000000 DUP2 MSTORE PUSH1 0x4 ADD PUSH2 0x250E SWAP1 PUSH2 0x3E4F JUMP JUMPDEST PUSH1 0x40 MLOAD DUP1 SWAP2 SUB SWAP1 REVERT JUMPDEST PUSH1 0x6 PUSH1 0x0 CALLER PUSH20 0xFFFFFFFFFFFFFFFFFFFFFFFFFFFFFFFFFFFFFFFF AND PUSH20 0xFFFFFFFFFFFFFFFFFFFFFFFFFFFFFFFFFFFFFFFF AND DUP2 MSTORE PUSH1 0x20 ADD SWAP1 DUP2 MSTORE PUSH1 0x20 ADD PUSH1 0x0 KECCAK256 PUSH1 0x4 ADD PUSH1 0x0 SWAP1 SLOAD SWAP1 PUSH2 0x100 EXP SWAP1 DIV PUSH1 0xFF AND PUSH2 0x25A6 JUMPI PUSH1 0x40 MLOAD PUSH32 0x8C379A000000000000000000000000000000000000000000000000000000000 DUP2 MSTORE PUSH1 0x4 ADD PUSH2 0x259D SWAP1 PUSH2 0x33E6 JUMP JUMPDEST PUSH1 0x40 MLOAD DUP1 SWAP2 SUB SWAP1 REVERT JUMPDEST PUSH1 0x1 PUSH1 0x9 PUSH1 0x0 DUP4 DUP2 MSTORE PUSH1 0x20 ADD SWAP1 DUP2 MSTORE PUSH1 0x20 ADD PUSH1 0x0 KECCAK256 PUSH1 0x0 CALLER PUSH20 0xFFFFFFFFFFFFFFFFFFFFFFFFFFFFFFFFFFFFFFFF AND PUSH20 0xFFFFFFFFFFFFFFFFFFFFFFFFFFFFFFFFFFFFFFFF AND DUP2 MSTORE PUSH1 0x20 ADD SWAP1 DUP2 MSTORE PUSH1 0x20 ADD PUSH1 0x0 KECCAK256 PUSH1 0x0 PUSH2 0x100 EXP DUP2 SLOAD DUP2 PUSH1 0xFF MUL NOT AND SWAP1 DUP4 ISZERO ISZERO MUL OR SWAP1 SSTORE POP PUSH1 0x7 PUSH1 0x0 DUP3 DUP2 MSTORE PUSH1 0x20 ADD SWAP1 DUP2 MSTORE PUSH1 0x20 ADD PUSH1 0x0 KECCAK256 PUSH1 0x5 ADD PUSH1 0x0 DUP2 SLOAD DUP1 SWAP3 SWAP2 SWAP1 PUSH2 0x2636 SWAP1 PUSH2 0x36CC JUMP JUMPDEST SWAP2 SWAP1 POP SSTORE POP PUSH1 0x5 PUSH1 0x0 SWAP1 SLOAD SWAP1 PUSH2 0x100 EXP SWAP1 DIV PUSH20 0xFFFFFFFFFFFFFFFFFFFFFFFFFFFFFFFFFFFFFFFF AND PUSH20 0xFFFFFFFFFFFFFFFFFFFFFFFFFFFFFFFFFFFFFFFF AND PUSH4 0xA9059CBB CALLER PUSH1 0x2 SLOAD PUSH1 0x40 MLOAD DUP4 PUSH4 0xFFFFFFFF AND PUSH1 0xE0 SHL DUP2 MSTORE PUSH1 0x4 ADD PUSH2 0x269A SWAP3 SWAP2 SWAP1 PUSH2 0x3988 JUMP JUMPDEST PUSH1 0x20 PUSH1 0x40 MLOAD DUP1 DUP4 SUB DUP2 PUSH1 0x0 DUP8 GAS CALL ISZERO DUP1 ISZERO PUSH2 0x26B9 JUMPI RETURNDATASIZE PUSH1 0x0 DUP1 RETURNDATACOPY RETURNDATASIZE PUSH1 0x0 REVERT JUMPDEST POP POP POP POP PUSH1 0x40 MLOAD RETURNDATASIZE PUSH1 0x1F NOT PUSH1 0x1F DUP3 ADD AND DUP3 ADD DUP1 PUSH1 0x40 MSTORE POP DUP2 ADD SWAP1 PUSH2 0x26DD SWAP2 SWAP1 PUSH2 0x39DD JUMP JUMPDEST POP CALLER PUSH20 0xFFFFFFFFFFFFFFFFFFFFFFFFFFFFFFFFFFFFFFFF AND PUSH1 0x7 PUSH1 0x0 DUP4 DUP2 MSTORE PUSH1 0x20 ADD SWAP1 DUP2 MSTORE PUSH1 0x20 ADD PUSH1 0x0 KECCAK256 PUSH1 0x1 ADD PUSH1 0x0 SWAP1 SLOAD SWAP1 PUSH2 0x100 EXP SWAP1 DIV PUSH20 0xFFFFFFFFFFFFFFFFFFFFFFFFFFFFFFFFFFFFFFFF AND PUSH20 0xFFFFFFFFFFFFFFFFFFFFFFFFFFFFFFFFFFFFFFFF AND PUSH32 0x6CEDE41ED4874CEF0476A6599C61BECE0896DEEE972C228149FA2F2A331C9D08 DUP4 TIMESTAMP PUSH1 0x40 MLOAD PUSH2 0x2773 SWAP3 SWAP2 SWAP1 PUSH2 0x3DDA JUMP JUMPDEST PUSH1 0x40 MLOAD DUP1 SWAP2 SUB SWAP1 LOG3 POP JUMP JUMPDEST PUSH1 0x0 DUP1 SLOAD SWAP1 PUSH2 0x100 EXP SWAP1 DIV PUSH20 0xFFFFFFFFFFFFFFFFFFFFFFFFFFFFFFFFFFFFFFFF AND DUP2 JUMP JUMPDEST PUSH1 0x40 MLOAD DUP1 PUSH2 0x120 ADD PUSH1 0x40 MSTORE DUP1 PUSH1 0x0 DUP2 MSTORE PUSH1 0x20 ADD PUSH1 0x0 PUSH20 0xFFFFFFFFFFFFFFFFFFFFFFFFFFFFFFFFFFFFFFFF AND DUP2 MSTORE PUSH1 0x20 ADD PUSH1 0x60 DUP2 MSTORE PUSH1 0x20 ADD PUSH1 0x60 DUP2 MSTORE PUSH1 0x20 ADD PUSH1 0x60 DUP2 MSTORE PUSH1 0x20 ADD PUSH1 0x0 DUP2 MSTORE PUSH1 0x20 ADD PUSH1 0x0 DUP2 MSTORE PUSH1 0x20 ADD PUSH1 0x0 DUP2 MSTORE PUSH1 0x20 ADD PUSH1 0x0 DUP2 MSTORE POP SWAP1 JUMP JUMPDEST PUSH1 0x40 MLOAD DUP1 PUSH2 0x100 ADD PUSH1 0x40 MSTORE DUP1 PUSH1 0x0 DUP2 MSTORE PUSH1 0x20 ADD PUSH1 0x0 PUSH20 0xFFFFFFFFFFFFFFFFFFFFFFFFFFFFFFFFFFFFFFFF AND DUP2 MSTORE PUSH1 0x20 ADD PUSH1 0x60 DUP2 MSTORE PUSH1 0x20 ADD PUSH1 0x0 DUP2 MSTORE PUSH1 0x20 ADD PUSH1 0x0 ISZERO ISZERO DUP2 MSTORE PUSH1 0x20 ADD PUSH1 0x60 DUP2 MSTORE PUSH1 0x20 ADD PUSH1 0x0 DUP2 MSTORE PUSH1 0x20 ADD PUSH1 0x0 DUP2 MSTORE POP SWAP1 JUMP JUMPDEST PUSH1 0x0 PUSH1 0x40 MLOAD SWAP1 POP SWAP1 JUMP JUMPDEST PUSH1 0x0 DUP1 REVERT JUMPDEST PUSH1 0x0 DUP1 REVERT JUMPDEST PUSH1 0x0 DUP2 SWAP1 POP SWAP2 SWAP1 POP JUMP JUMPDEST PUSH2 0x2888 DUP2 PUSH2 0x2875 JUMP JUMPDEST DUP2 EQ PUSH2 0x2893 JUMPI PUSH1 0x0 DUP1 REVERT JUMPDEST POP JUMP JUMPDEST PUSH1 0x0 DUP2 CALLDATALOAD SWAP1 POP PUSH2 0x28A5 DUP2 PUSH2 0x287F JUMP JUMPDEST SWAP3 SWAP2 POP POP JUMP JUMPDEST PUSH1 0x0 PUSH20 0xFFFFFFFFFFFFFFFFFFFFFFFFFFFFFFFFFFFFFFFF DUP3 AND SWAP1 POP SWAP2 SWAP1 POP JUMP JUMPDEST PUSH1 0x0 PUSH2 0x28D6 DUP3 PUSH2 0x28AB JUMP JUMPDEST SWAP1 POP SWAP2 SWAP1 POP JUMP JUMPDEST PUSH2 0x28E6 DUP2 PUSH2 0x28CB JUMP JUMPDEST DUP2 EQ PUSH2 0x28F1 JUMPI PUSH1 0x0 DUP1 REVERT JUMPDEST POP JUMP JUMPDEST PUSH1 0x0 DUP2 CALLDATALOAD SWAP1 POP PUSH2 0x2903 DUP2 PUSH2 0x28DD JUMP JUMPDEST SWAP3 SWAP2 POP POP JUMP JUMPDEST PUSH1 0x0 DUP1 PUSH1 0x0 PUSH1 0x60 DUP5 DUP7 SUB SLT ISZERO PUSH2 0x2922 JUMPI PUSH2 0x2921 PUSH2 0x286B JUMP JUMPDEST JUMPDEST PUSH1 0x0 PUSH2 0x2930 DUP7 DUP3 DUP8 ADD PUSH2 0x2896 JUMP JUMPDEST SWAP4 POP POP PUSH1 0x20 PUSH2 0x2941 DUP7 DUP3 DUP8 ADD PUSH2 0x2896 JUMP JUMPDEST SWAP3 POP POP PUSH1 0x40 PUSH2 0x2952 DUP7 DUP3 DUP8 ADD PUSH2 0x28F4 JUMP JUMPDEST SWAP2 POP POP SWAP3 POP SWAP3 POP SWAP3 JUMP JUMPDEST PUSH1 0x0 PUSH1 0x20 DUP3 DUP5 SUB SLT ISZERO PUSH2 0x2972 JUMPI PUSH2 0x2971 PUSH2 0x286B JUMP JUMPDEST JUMPDEST PUSH1 0x0 PUSH2 0x2980 DUP5 DUP3 DUP6 ADD PUSH2 0x2896 JUMP JUMPDEST SWAP2 POP POP SWAP3 SWAP2 POP POP JUMP JUMPDEST PUSH2 0x2992 DUP2 PUSH2 0x2875 JUMP JUMPDEST DUP3 MSTORE POP POP JUMP JUMPDEST PUSH1 0x0 PUSH2 0x29A3 DUP3 PUSH2 0x28AB JUMP JUMPDEST SWAP1 POP SWAP2 SWAP1 POP JUMP JUMPDEST PUSH2 0x29B3 DUP2 PUSH2 0x2998 JUMP JUMPDEST DUP3 MSTORE POP POP JUMP JUMPDEST PUSH1 0x0 DUP2 MLOAD SWAP1 POP SWAP2 SWAP1 POP JUMP JUMPDEST PUSH1 0x0 DUP3 DUP3 MSTORE PUSH1 0x20 DUP3 ADD SWAP1 POP SWAP3 SWAP2 POP POP JUMP JUMPDEST PUSH1 0x0 JUMPDEST DUP4 DUP2 LT ISZERO PUSH2 0x29F3 JUMPI DUP1 DUP3 ADD MLOAD DUP2 DUP5 ADD MSTORE PUSH1 0x20 DUP2 ADD SWAP1 POP PUSH2 0x29D8 JUMP JUMPDEST PUSH1 0x0 DUP5 DUP5 ADD MSTORE POP POP POP POP JUMP JUMPDEST PUSH1 0x0 PUSH1 0x1F NOT PUSH1 0x1F DUP4 ADD AND SWAP1 POP SWAP2 SWAP1 POP JUMP JUMPDEST PUSH1 0x0 PUSH2 0x2A1B DUP3 PUSH2 0x29B9 JUMP JUMPDEST PUSH2 0x2A25 DUP2 DUP6 PUSH2 0x29C4 JUMP JUMPDEST SWAP4 POP PUSH2 0x2A35 DUP2 DUP6 PUSH1 0x20 DUP7 ADD PUSH2 0x29D5 JUMP JUMPDEST PUSH2 0x2A3E DUP2 PUSH2 0x29FF JUMP JUMPDEST DUP5 ADD SWAP2 POP POP SWAP3 SWAP2 POP POP JUMP JUMPDEST PUSH1 0x0 PUSH2 0x120 DUP3 ADD SWAP1 POP PUSH2 0x2A5F PUSH1 0x0 DUP4 ADD DUP13 PUSH2 0x2989 JUMP JUMPDEST PUSH2 0x2A6C PUSH1 0x20 DUP4 ADD DUP12 PUSH2 0x29AA JUMP JUMPDEST DUP2 DUP2 SUB PUSH1 0x40 DUP4 ADD MSTORE PUSH2 0x2A7E DUP2 DUP11 PUSH2 0x2A10 JUMP JUMPDEST SWAP1 POP DUP2 DUP2 SUB PUSH1 0x60 DUP4 ADD MSTORE PUSH2 0x2A92 DUP2 DUP10 PUSH2 0x2A10 JUMP JUMPDEST SWAP1 POP DUP2 DUP2 SUB PUSH1 0x80 DUP4 ADD MSTORE PUSH2 0x2AA6 DUP2 DUP9 PUSH2 0x2A10 JUMP JUMPDEST SWAP1 POP PUSH2 0x2AB5 PUSH1 0xA0 DUP4 ADD DUP8 PUSH2 0x2989 JUMP JUMPDEST PUSH2 0x2AC2 PUSH1 0xC0 DUP4 ADD DUP7 PUSH2 0x2989 JUMP JUMPDEST PUSH2 0x2ACF PUSH1 0xE0 DUP4 ADD DUP6 PUSH2 0x2989 JUMP JUMPDEST PUSH2 0x2ADD PUSH2 0x100 DUP4 ADD DUP5 PUSH2 0x2989 JUMP JUMPDEST SWAP11 SWAP10 POP POP POP POP POP POP POP POP POP POP JUMP JUMPDEST PUSH1 0x0 DUP2 ISZERO ISZERO SWAP1 POP SWAP2 SWAP1 POP JUMP JUMPDEST PUSH2 0x2B00 DUP2 PUSH2 0x2AEB JUMP JUMPDEST DUP3 MSTORE POP POP JUMP JUMPDEST PUSH1 0x0 PUSH1 0x20 DUP3 ADD SWAP1 POP PUSH2 0x2B1B PUSH1 0x0 DUP4 ADD DUP5 PUSH2 0x2AF7 JUMP JUMPDEST SWAP3 SWAP2 POP POP JUMP JUMPDEST PUSH1 0x0 PUSH1 0x20 DUP3 ADD SWAP1 POP PUSH2 0x2B36 PUSH1 0x0 DUP4 ADD DUP5 PUSH2 0x2989 JUMP JUMPDEST SWAP3 SWAP2 POP POP JUMP JUMPDEST PUSH1 0x0 DUP1 REVERT JUMPDEST PUSH1 0x0 DUP1 REVERT JUMPDEST PUSH32 0x4E487B7100000000000000000000000000000000000000000000000000000000 PUSH1 0x0 MSTORE PUSH1 0x41 PUSH1 0x4 MSTORE PUSH1 0x24 PUSH1 0x0 REVERT JUMPDEST PUSH2 0x2B7E DUP3 PUSH2 0x29FF JUMP JUMPDEST DUP2 ADD DUP2 DUP2 LT PUSH8 0xFFFFFFFFFFFFFFFF DUP3 GT OR ISZERO PUSH2 0x2B9D JUMPI PUSH2 0x2B9C PUSH2 0x2B46 JUMP JUMPDEST JUMPDEST DUP1 PUSH1 0x40 MSTORE POP POP POP JUMP JUMPDEST PUSH1 0x0 PUSH2 0x2BB0 PUSH2 0x2861 JUMP JUMPDEST SWAP1 POP PUSH2 0x2BBC DUP3 DUP3 PUSH2 0x2B75 JUMP JUMPDEST SWAP2 SWAP1 POP JUMP JUMPDEST PUSH1 0x0 PUSH8 0xFFFFFFFFFFFFFFFF DUP3 GT ISZERO PUSH2 0x2BDC JUMPI PUSH2 0x2BDB PUSH2 0x2B46 JUMP JUMPDEST JUMPDEST PUSH2 0x2BE5 DUP3 PUSH2 0x29FF JUMP JUMPDEST SWAP1 POP PUSH1 0x20 DUP2 ADD SWAP1 POP SWAP2 SWAP1 POP JUMP JUMPDEST DUP3 DUP2 DUP4 CALLDATACOPY PUSH1 0x0 DUP4 DUP4 ADD MSTORE POP POP POP JUMP JUMPDEST PUSH1 0x0 PUSH2 0x2C14 PUSH2 0x2C0F DUP5 PUSH2 0x2BC1 JUMP JUMPDEST PUSH2 0x2BA6 JUMP JUMPDEST SWAP1 POP DUP3 DUP2 MSTORE PUSH1 0x20 DUP2 ADD DUP5 DUP5 DUP5 ADD GT ISZERO PUSH2 0x2C30 JUMPI PUSH2 0x2C2F PUSH2 0x2B41 JUMP JUMPDEST JUMPDEST PUSH2 0x2C3B DUP5 DUP3 DUP6 PUSH2 0x2BF2 JUMP JUMPDEST POP SWAP4 SWAP3 POP POP POP JUMP JUMPDEST PUSH1 0x0 DUP3 PUSH1 0x1F DUP4 ADD SLT PUSH2 0x2C58 JUMPI PUSH2 0x2C57 PUSH2 0x2B3C JUMP JUMPDEST JUMPDEST DUP2 CALLDATALOAD PUSH2 0x2C68 DUP5 DUP3 PUSH1 0x20 DUP7 ADD PUSH2 0x2C01 JUMP JUMPDEST SWAP2 POP POP SWAP3 SWAP2 POP POP JUMP JUMPDEST PUSH1 0x0 DUP1 PUSH1 0x0 PUSH1 0x60 DUP5 DUP7 SUB SLT ISZERO PUSH2 0x2C8A JUMPI PUSH2 0x2C89 PUSH2 0x286B JUMP JUMPDEST JUMPDEST PUSH1 0x0 DUP5 ADD CALLDATALOAD PUSH8 0xFFFFFFFFFFFFFFFF DUP2 GT ISZERO PUSH2 0x2CA8 JUMPI PUSH2 0x2CA7 PUSH2 0x2870 JUMP JUMPDEST JUMPDEST PUSH2 0x2CB4 DUP7 DUP3 DUP8 ADD PUSH2 0x2C43 JUMP JUMPDEST SWAP4 POP POP PUSH1 0x20 DUP5 ADD CALLDATALOAD PUSH8 0xFFFFFFFFFFFFFFFF DUP2 GT ISZERO PUSH2 0x2CD5 JUMPI PUSH2 0x2CD4 PUSH2 0x2870 JUMP JUMPDEST JUMPDEST PUSH2 0x2CE1 DUP7 DUP3 DUP8 ADD PUSH2 0x2C43 JUMP JUMPDEST SWAP3 POP POP PUSH1 0x40 DUP5 ADD CALLDATALOAD PUSH8 0xFFFFFFFFFFFFFFFF DUP2 GT ISZERO PUSH2 0x2D02 JUMPI PUSH2 0x2D01 PUSH2 0x2870 JUMP JUMPDEST JUMPDEST PUSH2 0x2D0E DUP7 DUP3 DUP8 ADD PUSH2 0x2C43 JUMP JUMPDEST SWAP2 POP POP SWAP3 POP SWAP3 POP SWAP3 JUMP JUMPDEST PUSH2 0x2D21 DUP2 PUSH2 0x2998 JUMP JUMPDEST DUP2 EQ PUSH2 0x2D2C JUMPI PUSH1 0x0 DUP1 REVERT JUMPDEST POP JUMP JUMPDEST PUSH1 0x0 DUP2 CALLDATALOAD SWAP1 POP PUSH2 0x2D3E DUP2 PUSH2 0x2D18 JUMP JUMPDEST SWAP3 SWAP2 POP POP JUMP JUMPDEST PUSH1 0x0 PUSH1 0x20 DUP3 DUP5 SUB SLT ISZERO PUSH2 0x2D5A JUMPI PUSH2 0x2D59 PUSH2 0x286B JUMP JUMPDEST JUMPDEST PUSH1 0x0 PUSH2 0x2D68 DUP5 DUP3 DUP6 ADD PUSH2 0x2D2F JUMP JUMPDEST SWAP2 POP POP SWAP3 SWAP2 POP POP JUMP JUMPDEST PUSH1 0x0 DUP1 PUSH1 0x40 DUP4 DUP6 SUB SLT ISZERO PUSH2 0x2D88 JUMPI PUSH2 0x2D87 PUSH2 0x286B JUMP JUMPDEST JUMPDEST PUSH1 0x0 PUSH2 0x2D96 DUP6 DUP3 DUP7 ADD PUSH2 0x2896 JUMP JUMPDEST SWAP3 POP POP PUSH1 0x20 PUSH2 0x2DA7 DUP6 DUP3 DUP7 ADD PUSH2 0x2896 JUMP JUMPDEST SWAP2 POP POP SWAP3 POP SWAP3 SWAP1 POP JUMP JUMPDEST PUSH1 0x0 DUP2 MLOAD SWAP1 POP SWAP2 SWAP1 POP JUMP JUMPDEST PUSH1 0x0 DUP3 DUP3 MSTORE PUSH1 0x20 DUP3 ADD SWAP1 POP SWAP3 SWAP2 POP POP JUMP JUMPDEST PUSH1 0x0 DUP2 SWAP1 POP PUSH1 0x20 DUP3 ADD SWAP1 POP SWAP2 SWAP1 POP JUMP JUMPDEST PUSH2 0x2DE6 DUP2 PUSH2 0x2875 JUMP JUMPDEST DUP3 MSTORE POP POP JUMP JUMPDEST PUSH2 0x2DF5 DUP2 PUSH2 0x2998 JUMP JUMPDEST DUP3 MSTORE POP POP JUMP JUMPDEST PUSH1 0x0 DUP3 DUP3 MSTORE PUSH1 0x20 DUP3 ADD SWAP1 POP SWAP3 SWAP2 POP POP JUMP JUMPDEST PUSH1 0x0 PUSH2 0x2E17 DUP3 PUSH2 0x29B9 JUMP JUMPDEST PUSH2 0x2E21 DUP2 DUP6 PUSH2 0x2DFB JUMP JUMPDEST SWAP4 POP PUSH2 0x2E31 DUP2 DUP6 PUSH1 0x20 DUP7 ADD PUSH2 0x29D5 JUMP JUMPDEST PUSH2 0x2E3A DUP2 PUSH2 0x29FF JUMP JUMPDEST DUP5 ADD SWAP2 POP POP SWAP3 SWAP2 POP POP JUMP JUMPDEST PUSH1 0x0 PUSH2 0x120 DUP4 ADD PUSH1 0x0 DUP4 ADD MLOAD PUSH2 0x2E5E PUSH1 0x0 DUP7 ADD DUP3 PUSH2 0x2DDD JUMP JUMPDEST POP PUSH1 0x20 DUP4 ADD MLOAD PUSH2 0x2E71 PUSH1 0x20 DUP7 ADD DUP3 PUSH2 0x2DEC JUMP JUMPDEST POP PUSH1 0x40 DUP4 ADD MLOAD DUP5 DUP3 SUB PUSH1 0x40 DUP7 ADD MSTORE PUSH2 0x2E89 DUP3 DUP3 PUSH2 0x2E0C JUMP JUMPDEST SWAP2 POP POP PUSH1 0x60 DUP4 ADD MLOAD DUP5 DUP3 SUB PUSH1 0x60 DUP7 ADD MSTORE PUSH2 0x2EA3 DUP3 DUP3 PUSH2 0x2E0C JUMP JUMPDEST SWAP2 POP POP PUSH1 0x80 DUP4 ADD MLOAD DUP5 DUP3 SUB PUSH1 0x80 DUP7 ADD MSTORE PUSH2 0x2EBD DUP3 DUP3 PUSH2 0x2E0C JUMP JUMPDEST SWAP2 POP POP PUSH1 0xA0 DUP4 ADD MLOAD PUSH2 0x2ED2 PUSH1 0xA0 DUP7 ADD DUP3 PUSH2 0x2DDD JUMP JUMPDEST POP PUSH1 0xC0 DUP4 ADD MLOAD PUSH2 0x2EE5 PUSH1 0xC0 DUP7 ADD DUP3 PUSH2 0x2DDD JUMP JUMPDEST POP PUSH1 0xE0 DUP4 ADD MLOAD PUSH2 0x2EF8 PUSH1 0xE0 DUP7 ADD DUP3 PUSH2 0x2DDD JUMP JUMPDEST POP PUSH2 0x100 DUP4 ADD MLOAD PUSH2 0x2F0D PUSH2 0x100 DUP7 ADD DUP3 PUSH2 0x2DDD JUMP JUMPDEST POP DUP1 SWAP2 POP POP SWAP3 SWAP2 POP POP JUMP JUMPDEST PUSH1 0x0 PUSH2 0x2F24 DUP4 DUP4 PUSH2 0x2E45 JUMP JUMPDEST SWAP1 POP SWAP3 SWAP2 POP POP JUMP JUMPDEST PUSH1 0x0 PUSH1 0x20 DUP3 ADD SWAP1 POP SWAP2 SWAP1 POP JUMP JUMPDEST PUSH1 0x0 PUSH2 0x2F44 DUP3 PUSH2 0x2DB1 JUMP JUMPDEST PUSH2 0x2F4E DUP2 DUP6 PUSH2 0x2DBC JUMP JUMPDEST SWAP4 POP DUP4 PUSH1 0x20 DUP3 MUL DUP6 ADD PUSH2 0x2F60 DUP6 PUSH2 0x2DCD JUMP JUMPDEST DUP1 PUSH1 0x0 JUMPDEST DUP6 DUP2 LT ISZERO PUSH2 0x2F9C JUMPI DUP5 DUP5 SUB DUP10 MSTORE DUP2 MLOAD PUSH2 0x2F7D DUP6 DUP3 PUSH2 0x2F18 JUMP JUMPDEST SWAP5 POP PUSH2 0x2F88 DUP4 PUSH2 0x2F2C JUMP JUMPDEST SWAP3 POP PUSH1 0x20 DUP11 ADD SWAP10 POP POP PUSH1 0x1 DUP2 ADD SWAP1 POP PUSH2 0x2F64 JUMP JUMPDEST POP DUP3 SWAP8 POP DUP8 SWAP6 POP POP POP POP POP POP SWAP3 SWAP2 POP POP JUMP JUMPDEST PUSH1 0x0 PUSH1 0x20 DUP3 ADD SWAP1 POP DUP2 DUP2 SUB PUSH1 0x0 DUP4 ADD MSTORE PUSH2 0x2FC8 DUP2 DUP5 PUSH2 0x2F39 JUMP JUMPDEST SWAP1 POP SWAP3 SWAP2 POP POP JUMP JUMPDEST PUSH1 0x0 PUSH1 0xC0 DUP3 ADD SWAP1 POP PUSH2 0x2FE5 PUSH1 0x0 DUP4 ADD DUP10 PUSH2 0x29AA JUMP JUMPDEST DUP2 DUP2 SUB PUSH1 0x20 DUP4 ADD MSTORE PUSH2 0x2FF7 DUP2 DUP9 PUSH2 0x2A10 JUMP JUMPDEST SWAP1 POP DUP2 DUP2 SUB PUSH1 0x40 DUP4 ADD MSTORE PUSH2 0x300B DUP2 DUP8 PUSH2 0x2A10 JUMP JUMPDEST SWAP1 POP DUP2 DUP2 SUB PUSH1 0x60 DUP4 ADD MSTORE PUSH2 0x301F DUP2 DUP7 PUSH2 0x2A10 JUMP JUMPDEST SWAP1 POP PUSH2 0x302E PUSH1 0x80 DUP4 ADD DUP6 PUSH2 0x2989 JUMP JUMPDEST DUP2 DUP2 SUB PUSH1 0xA0 DUP4 ADD MSTORE PUSH2 0x3040 DUP2 DUP5 PUSH2 0x2A10 JUMP JUMPDEST SWAP1 POP SWAP8 SWAP7 POP POP POP POP POP POP POP JUMP JUMPDEST PUSH2 0x3056 DUP2 PUSH2 0x2AEB JUMP JUMPDEST DUP3 MSTORE POP POP JUMP JUMPDEST PUSH1 0x0 PUSH2 0x100 DUP4 ADD PUSH1 0x0 DUP4 ADD MLOAD PUSH2 0x3075 PUSH1 0x0 DUP7 ADD DUP3 PUSH2 0x2DDD JUMP JUMPDEST POP PUSH1 0x20 DUP4 ADD MLOAD PUSH2 0x3088 PUSH1 0x20 DUP7 ADD DUP3 PUSH2 0x2DEC JUMP JUMPDEST POP PUSH1 0x40 DUP4 ADD MLOAD DUP5 DUP3 SUB PUSH1 0x40 DUP7 ADD MSTORE PUSH2 0x30A0 DUP3 DUP3 PUSH2 0x2E0C JUMP JUMPDEST SWAP2 POP POP PUSH1 0x60 DUP4 ADD MLOAD PUSH2 0x30B5 PUSH1 0x60 DUP7 ADD DUP3 PUSH2 0x2DDD JUMP JUMPDEST POP PUSH1 0x80 DUP4 ADD MLOAD PUSH2 0x30C8 PUSH1 0x80 DUP7 ADD DUP3 PUSH2 0x304D JUMP JUMPDEST POP PUSH1 0xA0 DUP4 ADD MLOAD DUP5 DUP3 SUB PUSH1 0xA0 DUP7 ADD MSTORE PUSH2 0x30E0 DUP3 DUP3 PUSH2 0x2E0C JUMP JUMPDEST SWAP2 POP POP PUSH1 0xC0 DUP4 ADD MLOAD PUSH2 0x30F5 PUSH1 0xC0 DUP7 ADD DUP3 PUSH2 0x2DDD JUMP JUMPDEST POP PUSH1 0xE0 DUP4 ADD MLOAD PUSH2 0x3108 PUSH1 0xE0 DUP7 ADD DUP3 PUSH2 0x2DDD JUMP JUMPDEST POP DUP1 SWAP2 POP POP SWAP3 SWAP2 POP POP JUMP JUMPDEST PUSH1 0x0 PUSH1 0x20 DUP3 ADD SWAP1 POP DUP2 DUP2 SUB PUSH1 0x0 DUP4 ADD MSTORE PUSH2 0x312D DUP2 DUP5 PUSH2 0x305C JUMP JUMPDEST SWAP1 POP SWAP3 SWAP2 POP POP JUMP JUMPDEST PUSH1 0x0 DUP2 SWAP1 POP SWAP2 SWAP1 POP JUMP JUMPDEST PUSH1 0x0 PUSH2 0x315A PUSH2 0x3155 PUSH2 0x3150 DUP5 PUSH2 0x28AB JUMP JUMPDEST PUSH2 0x3135 JUMP JUMPDEST PUSH2 0x28AB JUMP JUMPDEST SWAP1 POP SWAP2 SWAP1 POP JUMP JUMPDEST PUSH1 0x0 PUSH2 0x316C DUP3 PUSH2 0x313F JUMP JUMPDEST SWAP1 POP SWAP2 SWAP1 POP JUMP JUMPDEST PUSH1 0x0 PUSH2 0x317E DUP3 PUSH2 0x3161 JUMP JUMPDEST SWAP1 POP SWAP2 SWAP1 POP JUMP JUMPDEST PUSH2 0x318E DUP2 PUSH2 0x3173 JUMP JUMPDEST DUP3 MSTORE POP POP JUMP JUMPDEST PUSH1 0x0 PUSH1 0x20 DUP3 ADD SWAP1 POP PUSH2 0x31A9 PUSH1 0x0 DUP4 ADD DUP5 PUSH2 0x3185 JUMP JUMPDEST SWAP3 SWAP2 POP POP JUMP JUMPDEST PUSH1 0x0 PUSH1 0x20 DUP3 DUP5 SUB SLT ISZERO PUSH2 0x31C5 JUMPI PUSH2 0x31C4 PUSH2 0x286B JUMP JUMPDEST JUMPDEST PUSH1 0x0 DUP3 ADD CALLDATALOAD PUSH8 0xFFFFFFFFFFFFFFFF DUP2 GT ISZERO PUSH2 0x31E3 JUMPI PUSH2 0x31E2 PUSH2 0x2870 JUMP JUMPDEST JUMPDEST PUSH2 0x31EF DUP5 DUP3 DUP6 ADD PUSH2 0x2C43 JUMP JUMPDEST SWAP2 POP POP SWAP3 SWAP2 POP POP JUMP JUMPDEST PUSH1 0x0 DUP1 PUSH1 0x0 DUP1 PUSH1 0x80 DUP6 DUP8 SUB SLT ISZERO PUSH2 0x3212 JUMPI PUSH2 0x3211 PUSH2 0x286B JUMP JUMPDEST JUMPDEST PUSH1 0x0 PUSH2 0x3220 DUP8 DUP3 DUP9 ADD PUSH2 0x2896 JUMP JUMPDEST SWAP5 POP POP PUSH1 0x20 DUP6 ADD CALLDATALOAD PUSH8 0xFFFFFFFFFFFFFFFF DUP2 GT ISZERO PUSH2 0x3241 JUMPI PUSH2 0x3240 PUSH2 0x2870 JUMP JUMPDEST JUMPDEST PUSH2 0x324D DUP8 DUP3 DUP9 ADD PUSH2 0x2C43 JUMP JUMPDEST SWAP4 POP POP PUSH1 0x40 DUP6 ADD CALLDATALOAD PUSH8 0xFFFFFFFFFFFFFFFF DUP2 GT ISZERO PUSH2 0x326E JUMPI PUSH2 0x326D PUSH2 0x2870 JUMP JUMPDEST JUMPDEST PUSH2 0x327A DUP8 DUP3 DUP9 ADD PUSH2 0x2C43 JUMP JUMPDEST SWAP3 POP POP PUSH1 0x60 DUP6 ADD CALLDATALOAD PUSH8 0xFFFFFFFFFFFFFFFF DUP2 GT ISZERO PUSH2 0x329B JUMPI PUSH2 0x329A PUSH2 0x2870 JUMP JUMPDEST JUMPDEST PUSH2 0x32A7 DUP8 DUP3 DUP9 ADD PUSH2 0x2C43 JUMP JUMPDEST SWAP2 POP POP SWAP3 SWAP6 SWAP2 SWAP5 POP SWAP3 POP JUMP JUMPDEST PUSH1 0x0 PUSH2 0x100 DUP3 ADD SWAP1 POP PUSH2 0x32C9 PUSH1 0x0 DUP4 ADD DUP12 PUSH2 0x2989 JUMP JUMPDEST PUSH2 0x32D6 PUSH1 0x20 DUP4 ADD DUP11 PUSH2 0x29AA JUMP JUMPDEST DUP2 DUP2 SUB PUSH1 0x40 DUP4 ADD MSTORE PUSH2 0x32E8 DUP2 DUP10 PUSH2 0x2A10 JUMP JUMPDEST SWAP1 POP PUSH2 0x32F7 PUSH1 0x60 DUP4 ADD DUP9 PUSH2 0x2989 JUMP JUMPDEST PUSH2 0x3304 PUSH1 0x80 DUP4 ADD DUP8 PUSH2 0x2AF7 JUMP JUMPDEST DUP2 DUP2 SUB PUSH1 0xA0 DUP4 ADD MSTORE PUSH2 0x3316 DUP2 DUP7 PUSH2 0x2A10 JUMP JUMPDEST SWAP1 POP PUSH2 0x3325 PUSH1 0xC0 DUP4 ADD DUP6 PUSH2 0x2989 JUMP JUMPDEST PUSH2 0x3332 PUSH1 0xE0 DUP4 ADD DUP5 PUSH2 0x2989 JUMP JUMPDEST SWAP10 SWAP9 POP POP POP POP POP POP POP POP POP JUMP JUMPDEST PUSH1 0x0 DUP1 PUSH1 0x40 DUP4 DUP6 SUB SLT ISZERO PUSH2 0x3356 JUMPI PUSH2 0x3355 PUSH2 0x286B JUMP JUMPDEST JUMPDEST PUSH1 0x0 PUSH2 0x3364 DUP6 DUP3 DUP7 ADD PUSH2 0x2896 JUMP JUMPDEST SWAP3 POP POP PUSH1 0x20 PUSH2 0x3375 DUP6 DUP3 DUP7 ADD PUSH2 0x2D2F JUMP JUMPDEST SWAP2 POP POP SWAP3 POP SWAP3 SWAP1 POP JUMP JUMPDEST PUSH1 0x0 PUSH1 0x20 DUP3 ADD SWAP1 POP PUSH2 0x3394 PUSH1 0x0 DUP4 ADD DUP5 PUSH2 0x29AA JUMP JUMPDEST SWAP3 SWAP2 POP POP JUMP JUMPDEST PUSH32 0x53746174757320697320696E6163746976650000000000000000000000000000 PUSH1 0x0 DUP3 ADD MSTORE POP JUMP JUMPDEST PUSH1 0x0 PUSH2 0x33D0 PUSH1 0x12 DUP4 PUSH2 0x29C4 JUMP JUMPDEST SWAP2 POP PUSH2 0x33DB DUP3 PUSH2 0x339A JUMP JUMPDEST PUSH1 0x20 DUP3 ADD SWAP1 POP SWAP2 SWAP1 POP JUMP JUMPDEST PUSH1 0x0 PUSH1 0x20 DUP3 ADD SWAP1 POP DUP2 DUP2 SUB PUSH1 0x0 DUP4 ADD MSTORE PUSH2 0x33FF DUP2 PUSH2 0x33C3 JUMP JUMPDEST SWAP1 POP SWAP2 SWAP1 POP JUMP JUMPDEST PUSH32 0x56616C756520206D757374206578636565642030000000000000000000000000 PUSH1 0x0 DUP3 ADD MSTORE POP JUMP JUMPDEST PUSH1 0x0 PUSH2 0x343C PUSH1 0x14 DUP4 PUSH2 0x29C4 JUMP JUMPDEST SWAP2 POP PUSH2 0x3447 DUP3 PUSH2 0x3406 JUMP JUMPDEST PUSH1 0x20 DUP3 ADD SWAP1 POP SWAP2 SWAP1 POP JUMP JUMPDEST PUSH1 0x0 PUSH1 0x20 DUP3 ADD SWAP1 POP DUP2 DUP2 SUB PUSH1 0x0 DUP4 ADD MSTORE PUSH2 0x346B DUP2 PUSH2 0x342F JUMP JUMPDEST SWAP1 POP SWAP2 SWAP1 POP JUMP JUMPDEST PUSH1 0x0 DUP2 SWAP1 POP SWAP3 SWAP2 POP POP JUMP JUMPDEST POP JUMP JUMPDEST PUSH1 0x0 PUSH2 0x348D PUSH1 0x0 DUP4 PUSH2 0x3472 JUMP JUMPDEST SWAP2 POP PUSH2 0x3498 DUP3 PUSH2 0x347D JUMP JUMPDEST PUSH1 0x0 DUP3 ADD SWAP1 POP SWAP2 SWAP1 POP JUMP JUMPDEST PUSH1 0x0 PUSH2 0x34AE DUP3 PUSH2 0x3480 JUMP JUMPDEST SWAP2 POP DUP2 SWAP1 POP SWAP2 SWAP1 POP JUMP JUMPDEST PUSH32 0x49676E697465204661696C656400000000000000000000000000000000000000 PUSH1 0x0 DUP3 ADD MSTORE POP JUMP JUMPDEST PUSH1 0x0 PUSH2 0x34EE PUSH1 0xD DUP4 PUSH2 0x29C4 JUMP JUMPDEST SWAP2 POP PUSH2 0x34F9 DUP3 PUSH2 0x34B8 JUMP JUMPDEST PUSH1 0x20 DUP3 ADD SWAP1 POP SWAP2 SWAP1 POP JUMP JUMPDEST PUSH1 0x0 PUSH1 0x20 DUP3 ADD SWAP1 POP DUP2 DUP2 SUB PUSH1 0x0 DUP4 ADD MSTORE PUSH2 0x351D DUP2 PUSH2 0x34E1 JUMP JUMPDEST SWAP1 POP SWAP2 SWAP1 POP JUMP JUMPDEST PUSH32 0x4E487B7100000000000000000000000000000000000000000000000000000000 PUSH1 0x0 MSTORE PUSH1 0x11 PUSH1 0x4 MSTORE PUSH1 0x24 PUSH1 0x0 REVERT JUMPDEST PUSH1 0x0 PUSH2 0x355E DUP3 PUSH2 0x2875 JUMP JUMPDEST SWAP2 POP PUSH2 0x3569 DUP4 PUSH2 0x2875 JUMP JUMPDEST SWAP3 POP DUP3 DUP3 ADD SWAP1 POP DUP1 DUP3 GT ISZERO PUSH2 0x3581 JUMPI PUSH2 0x3580 PUSH2 0x3524 JUMP JUMPDEST JUMPDEST SWAP3 SWAP2 POP POP JUMP JUMPDEST PUSH1 0x0 PUSH1 0x60 DUP3 ADD SWAP1 POP PUSH2 0x359C PUSH1 0x0 DUP4 ADD DUP7 PUSH2 0x2989 JUMP JUMPDEST PUSH2 0x35A9 PUSH1 0x20 DUP4 ADD DUP6 PUSH2 0x2989 JUMP JUMPDEST PUSH2 0x35B6 PUSH1 0x40 DUP4 ADD DUP5 PUSH2 0x2989 JUMP JUMPDEST SWAP5 SWAP4 POP POP POP POP JUMP JUMPDEST PUSH32 0x4E487B7100000000000000000000000000000000000000000000000000000000 PUSH1 0x0 MSTORE PUSH1 0x22 PUSH1 0x4 MSTORE PUSH1 0x24 PUSH1 0x0 REVERT JUMPDEST PUSH1 0x0 PUSH1 0x2 DUP3 DIV SWAP1 POP PUSH1 0x1 DUP3 AND DUP1 PUSH2 0x3605 JUMPI PUSH1 0x7F DUP3 AND SWAP2 POP JUMPDEST PUSH1 0x20 DUP3 LT DUP2 SUB PUSH2 0x3618 JUMPI PUSH2 0x3617 PUSH2 0x35BE JUMP JUMPDEST JUMPDEST POP SWAP2 SWAP1 POP JUMP JUMPDEST PUSH32 0x596F7520617265206E6F7420616E2061646D696E000000000000000000000000 PUSH1 0x0 DUP3 ADD MSTORE POP JUMP JUMPDEST PUSH1 0x0 PUSH2 0x3654 PUSH1 0x14 DUP4 PUSH2 0x29C4 JUMP JUMPDEST SWAP2 POP PUSH2 0x365F DUP3 PUSH2 0x361E JUMP JUMPDEST PUSH1 0x20 DUP3 ADD SWAP1 POP SWAP2 SWAP1 POP JUMP JUMPDEST PUSH1 0x0 PUSH1 0x20 DUP3 ADD SWAP1 POP DUP2 DUP2 SUB PUSH1 0x0 DUP4 ADD MSTORE PUSH2 0x3683 DUP2 PUSH2 0x3647 JUMP JUMPDEST SWAP1 POP SWAP2 SWAP1 POP JUMP JUMPDEST PUSH1 0x0 DUP2 MLOAD SWAP1 POP PUSH2 0x3699 DUP2 PUSH2 0x287F JUMP JUMPDEST SWAP3 SWAP2 POP POP JUMP JUMPDEST PUSH1 0x0 PUSH1 0x20 DUP3 DUP5 SUB SLT ISZERO PUSH2 0x36B5 JUMPI PUSH2 0x36B4 PUSH2 0x286B JUMP JUMPDEST JUMPDEST PUSH1 0x0 PUSH2 0x36C3 DUP5 DUP3 DUP6 ADD PUSH2 0x368A JUMP JUMPDEST SWAP2 POP POP SWAP3 SWAP2 POP POP JUMP JUMPDEST PUSH1 0x0 PUSH2 0x36D7 DUP3 PUSH2 0x2875 JUMP JUMPDEST SWAP2 POP PUSH32 0xFFFFFFFFFFFFFFFFFFFFFFFFFFFFFFFFFFFFFFFFFFFFFFFFFFFFFFFFFFFFFFFF DUP3 SUB PUSH2 0x3709 JUMPI PUSH2 0x3708 PUSH2 0x3524 JUMP JUMPDEST JUMPDEST PUSH1 0x1 DUP3 ADD SWAP1 POP SWAP2 SWAP1 POP JUMP JUMPDEST PUSH1 0x0 DUP2 SWAP1 POP DUP2 PUSH1 0x0 MSTORE PUSH1 0x20 PUSH1 0x0 KECCAK256 SWAP1 POP SWAP2 SWAP1 POP JUMP JUMPDEST PUSH1 0x0 PUSH1 0x20 PUSH1 0x1F DUP4 ADD DIV SWAP1 POP SWAP2 SWAP1 POP JUMP JUMPDEST PUSH1 0x0 DUP3 DUP3 SHL SWAP1 POP SWAP3 SWAP2 POP POP JUMP JUMPDEST PUSH1 0x0 PUSH1 0x8 DUP4 MUL PUSH2 0x3776 PUSH32 0xFFFFFFFFFFFFFFFFFFFFFFFFFFFFFFFFFFFFFFFFFFFFFFFFFFFFFFFFFFFFFFFF DUP3 PUSH2 0x3739 JUMP JUMPDEST PUSH2 0x3780 DUP7 DUP4 PUSH2 0x3739 JUMP JUMPDEST SWAP6 POP DUP1 NOT DUP5 AND SWAP4 POP DUP1 DUP7 AND DUP5 OR SWAP3 POP POP POP SWAP4 SWAP3 POP POP POP JUMP JUMPDEST PUSH1 0x0 PUSH2 0x37B3 PUSH2 0x37AE PUSH2 0x37A9 DUP5 PUSH2 0x2875 JUMP JUMPDEST PUSH2 0x3135 JUMP JUMPDEST PUSH2 0x2875 JUMP JUMPDEST SWAP1 POP SWAP2 SWAP1 POP JUMP JUMPDEST PUSH1 0x0 DUP2 SWAP1 POP SWAP2 SWAP1 POP JUMP JUMPDEST PUSH2 0x37CD DUP4 PUSH2 0x3798 JUMP JUMPDEST PUSH2 0x37E1 PUSH2 0x37D9 DUP3 PUSH2 0x37BA JUMP JUMPDEST DUP5 DUP5 SLOAD PUSH2 0x3746 JUMP JUMPDEST DUP3 SSTORE POP POP POP POP JUMP JUMPDEST PUSH1 0x0 SWAP1 JUMP JUMPDEST PUSH2 0x37F6 PUSH2 0x37E9 JUMP JUMPDEST PUSH2 0x3801 DUP2 DUP5 DUP5 PUSH2 0x37C4 JUMP JUMPDEST POP POP POP JUMP JUMPDEST JUMPDEST DUP2 DUP2 LT ISZERO PUSH2 0x3825 JUMPI PUSH2 0x381A PUSH1 0x0 DUP3 PUSH2 0x37EE JUMP JUMPDEST PUSH1 0x1 DUP2 ADD SWAP1 POP PUSH2 0x3807 JUMP JUMPDEST POP POP JUMP JUMPDEST PUSH1 0x1F DUP3 GT ISZERO PUSH2 0x386A JUMPI PUSH2 0x383B DUP2 PUSH2 0x3714 JUMP JUMPDEST PUSH2 0x3844 DUP5 PUSH2 0x3729 JUMP JUMPDEST DUP2 ADD PUSH1 0x20 DUP6 LT ISZERO PUSH2 0x3853 JUMPI DUP2 SWAP1 POP JUMPDEST PUSH2 0x3867 PUSH2 0x385F DUP6 PUSH2 0x3729 JUMP JUMPDEST DUP4 ADD DUP3 PUSH2 0x3806 JUMP JUMPDEST POP POP JUMPDEST POP POP POP JUMP JUMPDEST PUSH1 0x0 DUP3 DUP3 SHR SWAP1 POP SWAP3 SWAP2 POP POP JUMP JUMPDEST PUSH1 0x0 PUSH2 0x388D PUSH1 0x0 NOT DUP5 PUSH1 0x8 MUL PUSH2 0x386F JUMP JUMPDEST NOT DUP1 DUP4 AND SWAP2 POP POP SWAP3 SWAP2 POP POP JUMP JUMPDEST PUSH1 0x0 PUSH2 0x38A6 DUP4 DUP4 PUSH2 0x387C JUMP JUMPDEST SWAP2 POP DUP3 PUSH1 0x2 MUL DUP3 OR SWAP1 POP SWAP3 SWAP2 POP POP JUMP JUMPDEST PUSH2 0x38BF DUP3 PUSH2 0x29B9 JUMP JUMPDEST PUSH8 0xFFFFFFFFFFFFFFFF DUP2 GT ISZERO PUSH2 0x38D8 JUMPI PUSH2 0x38D7 PUSH2 0x2B46 JUMP JUMPDEST JUMPDEST PUSH2 0x38E2 DUP3 SLOAD PUSH2 0x35ED JUMP JUMPDEST PUSH2 0x38ED DUP3 DUP3 DUP6 PUSH2 0x3829 JUMP JUMPDEST PUSH1 0x0 PUSH1 0x20 SWAP1 POP PUSH1 0x1F DUP4 GT PUSH1 0x1 DUP2 EQ PUSH2 0x3920 JUMPI PUSH1 0x0 DUP5 ISZERO PUSH2 0x390E JUMPI DUP3 DUP8 ADD MLOAD SWAP1 POP JUMPDEST PUSH2 0x3918 DUP6 DUP3 PUSH2 0x389A JUMP JUMPDEST DUP7 SSTORE POP PUSH2 0x3980 JUMP JUMPDEST PUSH1 0x1F NOT DUP5 AND PUSH2 0x392E DUP7 PUSH2 0x3714 JUMP JUMPDEST PUSH1 0x0 JUMPDEST DUP3 DUP2 LT ISZERO PUSH2 0x3956 JUMPI DUP5 DUP10 ADD MLOAD DUP3 SSTORE PUSH1 0x1 DUP3 ADD SWAP2 POP PUSH1 0x20 DUP6 ADD SWAP5 POP PUSH1 0x20 DUP2 ADD SWAP1 POP PUSH2 0x3931 JUMP JUMPDEST DUP7 DUP4 LT ISZERO PUSH2 0x3973 JUMPI DUP5 DUP10 ADD MLOAD PUSH2 0x396F PUSH1 0x1F DUP10 AND DUP3 PUSH2 0x387C JUMP JUMPDEST DUP4 SSTORE POP JUMPDEST PUSH1 0x1 PUSH1 0x2 DUP9 MUL ADD DUP9 SSTORE POP POP POP JUMPDEST POP POP POP POP POP POP JUMP JUMPDEST PUSH1 0x0 PUSH1 0x40 DUP3 ADD SWAP1 POP PUSH2 0x399D PUSH1 0x0 DUP4 ADD DUP6 PUSH2 0x29AA JUMP JUMPDEST PUSH2 0x39AA PUSH1 0x20 DUP4 ADD DUP5 PUSH2 0x2989 JUMP JUMPDEST SWAP4 SWAP3 POP POP POP JUMP JUMPDEST PUSH2 0x39BA DUP2 PUSH2 0x2AEB JUMP JUMPDEST DUP2 EQ PUSH2 0x39C5 JUMPI PUSH1 0x0 DUP1 REVERT JUMPDEST POP JUMP JUMPDEST PUSH1 0x0 DUP2 MLOAD SWAP1 POP PUSH2 0x39D7 DUP2 PUSH2 0x39B1 JUMP JUMPDEST SWAP3 SWAP2 POP POP JUMP JUMPDEST PUSH1 0x0 PUSH1 0x20 DUP3 DUP5 SUB SLT ISZERO PUSH2 0x39F3 JUMPI PUSH2 0x39F2 PUSH2 0x286B JUMP JUMPDEST JUMPDEST PUSH1 0x0 PUSH2 0x3A01 DUP5 DUP3 DUP6 ADD PUSH2 0x39C8 JUMP JUMPDEST SWAP2 POP POP SWAP3 SWAP2 POP POP JUMP JUMPDEST PUSH32 0x5374617475732069732020696E61637469766500000000000000000000000000 PUSH1 0x0 DUP3 ADD MSTORE POP JUMP JUMPDEST PUSH1 0x0 PUSH2 0x3A40 PUSH1 0x13 DUP4 PUSH2 0x29C4 JUMP JUMPDEST SWAP2 POP PUSH2 0x3A4B DUP3 PUSH2 0x3A0A JUMP JUMPDEST PUSH1 0x20 DUP3 ADD SWAP1 POP SWAP2 SWAP1 POP JUMP JUMPDEST PUSH1 0x0 PUSH1 0x20 DUP3 ADD SWAP1 POP DUP2 DUP2 SUB PUSH1 0x0 DUP4 ADD MSTORE PUSH2 0x3A6F DUP2 PUSH2 0x3A33 JUMP JUMPDEST SWAP1 POP SWAP2 SWAP1 POP JUMP JUMPDEST PUSH32 0x4F6E6C792061646D696E732063616E2064656163746976617465207573657273 PUSH1 0x0 DUP3 ADD MSTORE POP JUMP JUMPDEST PUSH1 0x0 PUSH2 0x3AAC PUSH1 0x20 DUP4 PUSH2 0x29C4 JUMP JUMPDEST SWAP2 POP PUSH2 0x3AB7 DUP3 PUSH2 0x3A76 JUMP JUMPDEST PUSH1 0x20 DUP3 ADD SWAP1 POP SWAP2 SWAP1 POP JUMP JUMPDEST PUSH1 0x0 PUSH1 0x20 DUP3 ADD SWAP1 POP DUP2 DUP2 SUB PUSH1 0x0 DUP4 ADD MSTORE PUSH2 0x3ADB DUP2 PUSH2 0x3A9F JUMP JUMPDEST SWAP1 POP SWAP2 SWAP1 POP JUMP JUMPDEST PUSH32 0x4F6E6C792061646D696E2063616E2072656D6F76652061646D696E7300000000 PUSH1 0x0 DUP3 ADD MSTORE POP JUMP JUMPDEST PUSH1 0x0 PUSH2 0x3B18 PUSH1 0x1C DUP4 PUSH2 0x29C4 JUMP JUMPDEST SWAP2 POP PUSH2 0x3B23 DUP3 PUSH2 0x3AE2 JUMP JUMPDEST PUSH1 0x20 DUP3 ADD SWAP1 POP SWAP2 SWAP1 POP JUMP JUMPDEST PUSH1 0x0 PUSH1 0x20 DUP3 ADD SWAP1 POP DUP2 DUP2 SUB PUSH1 0x0 DUP4 ADD MSTORE PUSH2 0x3B47 DUP2 PUSH2 0x3B0B JUMP JUMPDEST SWAP1 POP SWAP2 SWAP1 POP JUMP JUMPDEST PUSH32 0x506167652073697A65206D7573742062652067726561746572207468616E2030 PUSH1 0x0 DUP3 ADD MSTORE POP JUMP JUMPDEST PUSH1 0x0 PUSH2 0x3B84 PUSH1 0x20 DUP4 PUSH2 0x29C4 JUMP JUMPDEST SWAP2 POP PUSH2 0x3B8F DUP3 PUSH2 0x3B4E JUMP JUMPDEST PUSH1 0x20 DUP3 ADD SWAP1 POP SWAP2 SWAP1 POP JUMP JUMPDEST PUSH1 0x0 PUSH1 0x20 DUP3 ADD SWAP1 POP DUP2 DUP2 SUB PUSH1 0x0 DUP4 ADD MSTORE PUSH2 0x3BB3 DUP2 PUSH2 0x3B77 JUMP JUMPDEST SWAP1 POP SWAP2 SWAP1 POP JUMP JUMPDEST PUSH1 0x0 PUSH2 0x3BC5 DUP3 PUSH2 0x2875 JUMP JUMPDEST SWAP2 POP PUSH2 0x3BD0 DUP4 PUSH2 0x2875 JUMP JUMPDEST SWAP3 POP DUP3 DUP3 MUL PUSH2 0x3BDE DUP2 PUSH2 0x2875 JUMP JUMPDEST SWAP2 POP DUP3 DUP3 DIV DUP5 EQ DUP4 ISZERO OR PUSH2 0x3BF5 JUMPI PUSH2 0x3BF4 PUSH2 0x3524 JUMP JUMPDEST JUMPDEST POP SWAP3 SWAP2 POP POP JUMP JUMPDEST PUSH1 0x0 PUSH2 0x3C07 DUP3 PUSH2 0x2875 JUMP JUMPDEST SWAP2 POP PUSH2 0x3C12 DUP4 PUSH2 0x2875 JUMP JUMPDEST SWAP3 POP DUP3 DUP3 SUB SWAP1 POP DUP2 DUP2 GT ISZERO PUSH2 0x3C2A JUMPI PUSH2 0x3C29 PUSH2 0x3524 JUMP JUMPDEST JUMPDEST SWAP3 SWAP2 POP POP JUMP JUMPDEST PUSH32 0x4E487B7100000000000000000000000000000000000000000000000000000000 PUSH1 0x0 MSTORE PUSH1 0x32 PUSH1 0x4 MSTORE PUSH1 0x24 PUSH1 0x0 REVERT JUMPDEST PUSH32 0x55736572206E6F7420666F756E64000000000000000000000000000000000000 PUSH1 0x0 DUP3 ADD MSTORE POP JUMP JUMPDEST PUSH1 0x0 PUSH2 0x3C95 PUSH1 0xE DUP4 PUSH2 0x29C4 JUMP JUMPDEST SWAP2 POP PUSH2 0x3CA0 DUP3 PUSH2 0x3C5F JUMP JUMPDEST PUSH1 0x20 DUP3 ADD SWAP1 POP SWAP2 SWAP1 POP JUMP JUMPDEST PUSH1 0x0 PUSH1 0x20 DUP3 ADD SWAP1 POP DUP2 DUP2 SUB PUSH1 0x0 DUP4 ADD MSTORE PUSH2 0x3CC4 DUP2 PUSH2 0x3C88 JUMP JUMPDEST SWAP1 POP SWAP2 SWAP1 POP JUMP JUMPDEST PUSH32 0x4F6E6C792061646D696E2063616E20616464206E65772061646D696E73000000 PUSH1 0x0 DUP3 ADD MSTORE POP JUMP JUMPDEST PUSH1 0x0 PUSH2 0x3D01 PUSH1 0x1D DUP4 PUSH2 0x29C4 JUMP JUMPDEST SWAP2 POP PUSH2 0x3D0C DUP3 PUSH2 0x3CCB JUMP JUMPDEST PUSH1 0x20 DUP3 ADD SWAP1 POP SWAP2 SWAP1 POP JUMP JUMPDEST PUSH1 0x0 PUSH1 0x20 DUP3 ADD SWAP1 POP DUP2 DUP2 SUB PUSH1 0x0 DUP4 ADD MSTORE PUSH2 0x3D30 DUP2 PUSH2 0x3CF4 JUMP JUMPDEST SWAP1 POP SWAP2 SWAP1 POP JUMP JUMPDEST PUSH32 0x4E6F7420616E2061646D696E0000000000000000000000000000000000000000 PUSH1 0x0 DUP3 ADD MSTORE POP JUMP JUMPDEST PUSH1 0x0 PUSH2 0x3D6D PUSH1 0xC DUP4 PUSH2 0x29C4 JUMP JUMPDEST SWAP2 POP PUSH2 0x3D78 DUP3 PUSH2 0x3D37 JUMP JUMPDEST PUSH1 0x20 DUP3 ADD SWAP1 POP SWAP2 SWAP1 POP JUMP JUMPDEST PUSH1 0x0 PUSH1 0x20 DUP3 ADD SWAP1 POP DUP2 DUP2 SUB PUSH1 0x0 DUP4 ADD MSTORE PUSH2 0x3D9C DUP2 PUSH2 0x3D60 JUMP JUMPDEST SWAP1 POP SWAP2 SWAP1 POP JUMP JUMPDEST PUSH1 0x0 PUSH1 0x60 DUP3 ADD SWAP1 POP PUSH2 0x3DB8 PUSH1 0x0 DUP4 ADD DUP7 PUSH2 0x29AA JUMP JUMPDEST PUSH2 0x3DC5 PUSH1 0x20 DUP4 ADD DUP6 PUSH2 0x29AA JUMP JUMPDEST PUSH2 0x3DD2 PUSH1 0x40 DUP4 ADD DUP5 PUSH2 0x2989 JUMP JUMPDEST SWAP5 SWAP4 POP POP POP POP JUMP JUMPDEST PUSH1 0x0 PUSH1 0x40 DUP3 ADD SWAP1 POP PUSH2 0x3DEF PUSH1 0x0 DUP4 ADD DUP6 PUSH2 0x2989 JUMP JUMPDEST PUSH2 0x3DFC PUSH1 0x20 DUP4 ADD DUP5 PUSH2 0x2989 JUMP JUMPDEST SWAP4 SWAP3 POP POP POP JUMP JUMPDEST PUSH32 0x416C7265616479206C696B6564207468697320706F7374000000000000000000 PUSH1 0x0 DUP3 ADD MSTORE POP JUMP JUMPDEST PUSH1 0x0 PUSH2 0x3E39 PUSH1 0x17 DUP4 PUSH2 0x29C4 JUMP JUMPDEST SWAP2 POP PUSH2 0x3E44 DUP3 PUSH2 0x3E03 JUMP JUMPDEST PUSH1 0x20 DUP3 ADD SWAP1 POP SWAP2 SWAP1 POP JUMP JUMPDEST PUSH1 0x0 PUSH1 0x20 DUP3 ADD SWAP1 POP DUP2 DUP2 SUB PUSH1 0x0 DUP4 ADD MSTORE PUSH2 0x3E68 DUP2 PUSH2 0x3E2C JUMP JUMPDEST SWAP1 POP SWAP2 SWAP1 POP JUMP INVALID LOG2 PUSH5 0x6970667358 0x22 SLT KECCAK256 GT ORIGIN 0xC4 0xD2 ADD SWAP13 PUSH7 0xDEAB985FFF1BD3 DUP9 0xB8 0xB0 0xCD PUSH16 0x8B8D9DE3A243B25D3D7BCA8C8464736F PUSH13 0x63430008190033000000000000 "
        },
        "methodIdentifiers": {
          "addUser()": "455c928c",
          "admin()": "f851a440",
          "commentOnPost(uint256,string,string,string)": "a3e6f2e6",
          "createAPost(string,string,string)": "1947b397",
          "deactivateUser(address)": "1a47767b",
          "depositToSocialFi(uint256)": "73bfc1d0",
          "earningsPerInteraction()": "0e81a583",
          "getRecentPosts(uint256,uint256)": "4025681a",
          "getUser(address)": "6f77926b",
          "igniteAPost(uint256,uint256,address)": "06f2a564",
          "isAdmin(address)": "24d7806c",
          "likeAPost(uint256)": "e953d54f",
          "makeAdmin(address)": "472905ca",
          "postComments(uint256,uint256)": "5193c94c",
          "postId()": "60a0ecda",
          "postIds(uint256)": "50cde8ef",
          "postIgnites(uint256,address)": "b7528ee1",
          "postLikes(uint256,address)": "ca1f0cad",
          "posts(uint256)": "0b1e7f83",
          "removeFromAdmin(address)": "329150e8",
          "socialFiBalance()": "10650132",
          "tokenAddress()": "9d76ea58",
          "updateAvatar(string)": "9fe958b9",
          "updateEarningPerInteraction(uint256)": "0e444f0e",
          "userId()": "58975919",
          "users(address)": "a87430ba"
        }
      }
    }
  }
}