{
  "_format": "hh-sol-artifact-1",
  "contractName": "ChainConnectToken",
  "sourceName": "contracts/ChainConnectToken.sol",
  "abi": [
    {
      "inputs": [
        {
          "internalType": "uint256",
          "name": "initialSupply",
          "type": "uint256"
        }
      ],
      "stateMutability": "nonpayable",
      "type": "constructor"
    },
    {
      "inputs": [
        {
          "internalType": "address",
          "name": "spender",
          "type": "address"
        },
        {
          "internalType": "uint256",
          "name": "allowance",
          "type": "uint256"
        },
        {
          "internalType": "uint256",
          "name": "needed",
          "type": "uint256"
        }
      ],
      "name": "ERC20InsufficientAllowance",
      "type": "error"
    },
    {
      "inputs": [
        {
          "internalType": "address",
          "name": "sender",
          "type": "address"
        },
        {
          "internalType": "uint256",
          "name": "balance",
          "type": "uint256"
        },
        {
          "internalType": "uint256",
          "name": "needed",
          "type": "uint256"
        }
      ],
      "name": "ERC20InsufficientBalance",
      "type": "error"
    },
    {
      "inputs": [
        {
          "internalType": "address",
          "name": "approver",
          "type": "address"
        }
      ],
      "name": "ERC20InvalidApprover",
      "type": "error"
    },
    {
      "inputs": [
        {
          "internalType": "address",
          "name": "receiver",
          "type": "address"
        }
      ],
      "name": "ERC20InvalidReceiver",
      "type": "error"
    },
    {
      "inputs": [
        {
          "internalType": "address",
          "name": "sender",
          "type": "address"
        }
      ],
      "name": "ERC20InvalidSender",
      "type": "error"
    },
    {
      "inputs": [
        {
          "internalType": "address",
          "name": "spender",
          "type": "address"
        }
      ],
      "name": "ERC20InvalidSpender",
      "type": "error"
    },
    {
      "inputs": [],
      "name": "EnforcedPause",
      "type": "error"
    },
    {
      "inputs": [],
      "name": "ExpectedPause",
      "type": "error"
    },
    {
      "inputs": [
        {
          "internalType": "address",
          "name": "owner",
          "type": "address"
        }
      ],
      "name": "OwnableInvalidOwner",
      "type": "error"
    },
    {
      "inputs": [
        {
          "internalType": "address",
          "name": "account",
          "type": "address"
        }
      ],
      "name": "OwnableUnauthorizedAccount",
      "type": "error"
    },
    {
      "anonymous": false,
      "inputs": [
        {
          "indexed": true,
          "internalType": "address",
          "name": "owner",
          "type": "address"
        },
        {
          "indexed": true,
          "internalType": "address",
          "name": "spender",
          "type": "address"
        },
        {
          "indexed": false,
          "internalType": "uint256",
          "name": "value",
          "type": "uint256"
        }
      ],
      "name": "Approval",
      "type": "event"
    },
    {
      "anonymous": false,
      "inputs": [
        {
          "indexed": true,
          "internalType": "address",
          "name": "previousOwner",
          "type": "address"
        },
        {
          "indexed": true,
          "internalType": "address",
          "name": "newOwner",
          "type": "address"
        }
      ],
      "name": "OwnershipTransferred",
      "type": "event"
    },
    {
      "anonymous": false,
      "inputs": [
        {
          "indexed": false,
          "internalType": "address",
          "name": "account",
          "type": "address"
        }
      ],
      "name": "Paused",
      "type": "event"
    },
    {
      "anonymous": false,
      "inputs": [
        {
          "indexed": true,
          "internalType": "address",
          "name": "from",
          "type": "address"
        },
        {
          "indexed": true,
          "internalType": "address",
          "name": "to",
          "type": "address"
        },
        {
          "indexed": false,
          "internalType": "uint256",
          "name": "value",
          "type": "uint256"
        }
      ],
      "name": "Transfer",
      "type": "event"
    },
    {
      "anonymous": false,
      "inputs": [
        {
          "indexed": false,
          "internalType": "address",
          "name": "account",
          "type": "address"
        }
      ],
      "name": "Unpaused",
      "type": "event"
    },
    {
      "inputs": [
        {
          "internalType": "address",
          "name": "owner",
          "type": "address"
        },
        {
          "internalType": "address",
          "name": "spender",
          "type": "address"
        }
      ],
      "name": "allowance",
      "outputs": [
        {
          "internalType": "uint256",
          "name": "",
          "type": "uint256"
        }
      ],
      "stateMutability": "view",
      "type": "function"
    },
    {
      "inputs": [
        {
          "internalType": "address",
          "name": "spender",
          "type": "address"
        },
        {
          "internalType": "uint256",
          "name": "value",
          "type": "uint256"
        }
      ],
      "name": "approve",
      "outputs": [
        {
          "internalType": "bool",
          "name": "",
          "type": "bool"
        }
      ],
      "stateMutability": "nonpayable",
      "type": "function"
    },
    {
      "inputs": [
        {
          "internalType": "address",
          "name": "account",
          "type": "address"
        }
      ],
      "name": "balanceOf",
      "outputs": [
        {
          "internalType": "uint256",
          "name": "",
          "type": "uint256"
        }
      ],
      "stateMutability": "view",
      "type": "function"
    },
    {
      "inputs": [
        {
          "internalType": "uint256",
          "name": "value",
          "type": "uint256"
        }
      ],
      "name": "burn",
      "outputs": [],
      "stateMutability": "nonpayable",
      "type": "function"
    },
    {
      "inputs": [
        {
          "internalType": "address",
          "name": "account",
          "type": "address"
        },
        {
          "internalType": "uint256",
          "name": "value",
          "type": "uint256"
        }
      ],
      "name": "burnFrom",
      "outputs": [],
      "stateMutability": "nonpayable",
      "type": "function"
    },
    {
      "inputs": [],
      "name": "decimals",
      "outputs": [
        {
          "internalType": "uint8",
          "name": "",
          "type": "uint8"
        }
      ],
      "stateMutability": "view",
      "type": "function"
    },
    {
      "inputs": [],
      "name": "name",
      "outputs": [
        {
          "internalType": "string",
          "name": "",
          "type": "string"
        }
      ],
      "stateMutability": "view",
      "type": "function"
    },
    {
      "inputs": [],
      "name": "owner",
      "outputs": [
        {
          "internalType": "address",
          "name": "",
          "type": "address"
        }
      ],
      "stateMutability": "view",
      "type": "function"
    },
    {
      "inputs": [],
      "name": "pause",
      "outputs": [],
      "stateMutability": "nonpayable",
      "type": "function"
    },
    {
      "inputs": [],
      "name": "paused",
      "outputs": [
        {
          "internalType": "bool",
          "name": "",
          "type": "bool"
        }
      ],
      "stateMutability": "view",
      "type": "function"
    },
    {
      "inputs": [],
      "name": "renounceOwnership",
      "outputs": [],
      "stateMutability": "nonpayable",
      "type": "function"
    },
    {
      "inputs": [],
      "name": "symbol",
      "outputs": [
        {
          "internalType": "string",
          "name": "",
          "type": "string"
        }
      ],
      "stateMutability": "view",
      "type": "function"
    },
    {
      "inputs": [],
      "name": "totalSupply",
      "outputs": [
        {
          "internalType": "uint256",
          "name": "",
          "type": "uint256"
        }
      ],
      "stateMutability": "view",
      "type": "function"
    },
    {
      "inputs": [
        {
          "internalType": "address",
          "name": "to",
          "type": "address"
        },
        {
          "internalType": "uint256",
          "name": "value",
          "type": "uint256"
        }
      ],
      "name": "transfer",
      "outputs": [
        {
          "internalType": "bool",
          "name": "",
          "type": "bool"
        }
      ],
      "stateMutability": "nonpayable",
      "type": "function"
    },
    {
      "inputs": [
        {
          "internalType": "address",
          "name": "from",
          "type": "address"
        },
        {
          "internalType": "address",
          "name": "to",
          "type": "address"
        },
        {
          "internalType": "uint256",
          "name": "value",
          "type": "uint256"
        }
      ],
      "name": "transferFrom",
      "outputs": [
        {
          "internalType": "bool",
          "name": "",
          "type": "bool"
        }
      ],
      "stateMutability": "nonpayable",
      "type": "function"
    },
    {
      "inputs": [
        {
          "internalType": "address",
          "name": "newOwner",
          "type": "address"
        }
      ],
      "name": "transferOwnership",
      "outputs": [],
      "stateMutability": "nonpayable",
      "type": "function"
    },
    {
      "inputs": [],
      "name": "unpause",
      "outputs": [],
      "stateMutability": "nonpayable",
      "type": "function"
    }
  ],
  "bytecode": "0x608060405234801561001057600080fd5b50604051611e47380380611e47833981810160405281019061003291906105ba565b336040518060400160405280601181526020017f436861696e436f6e6e656374546f6b656e0000000000000000000000000000008152506040518060400160405280600381526020017f434354000000000000000000000000000000000000000000000000000000000081525081600390816100ae919061082d565b5080600490816100be919061082d565b5050506000600560006101000a81548160ff021916908315150217905550600073ffffffffffffffffffffffffffffffffffffffff168173ffffffffffffffffffffffffffffffffffffffff160361014e5760006040517f1e4fbdf70000000000000000000000000000000000000000000000000000000081526004016101459190610940565b60405180910390fd5b61015d8161017460201b60201c565b5061016e338261023a60201b60201c565b50610a1f565b6000600560019054906101000a900473ffffffffffffffffffffffffffffffffffffffff16905081600560016101000a81548173ffffffffffffffffffffffffffffffffffffffff021916908373ffffffffffffffffffffffffffffffffffffffff1602179055508173ffffffffffffffffffffffffffffffffffffffff168173ffffffffffffffffffffffffffffffffffffffff167f8be0079c531659141344cd1fd0a4f28419497f9722a3daafe3b4186f6b6457e060405160405180910390a35050565b600073ffffffffffffffffffffffffffffffffffffffff168273ffffffffffffffffffffffffffffffffffffffff16036102ac5760006040517fec442f050000000000000000000000000000000000000000000000000000000081526004016102a39190610940565b60405180910390fd5b6102be600083836102c260201b60201c565b5050565b6102d38383836102d860201b60201c565b505050565b6102e66102fc60201b60201c565b6102f783838361034360201b60201c565b505050565b61030a61056860201b60201c565b15610341576040517fd93c066500000000000000000000000000000000000000000000000000000000815260040160405180910390fd5b565b600073ffffffffffffffffffffffffffffffffffffffff168373ffffffffffffffffffffffffffffffffffffffff1603610395578060026000828254610389919061098a565b92505081905550610468565b60008060008573ffffffffffffffffffffffffffffffffffffffff1673ffffffffffffffffffffffffffffffffffffffff16815260200190815260200160002054905081811015610421578381836040517fe450d38c000000000000000000000000000000000000000000000000000000008152600401610418939291906109cd565b60405180910390fd5b8181036000808673ffffffffffffffffffffffffffffffffffffffff1673ffffffffffffffffffffffffffffffffffffffff16815260200190815260200160002081905550505b600073ffffffffffffffffffffffffffffffffffffffff168273ffffffffffffffffffffffffffffffffffffffff16036104b157806002600082825403925050819055506104fe565b806000808473ffffffffffffffffffffffffffffffffffffffff1673ffffffffffffffffffffffffffffffffffffffff168152602001908152602001600020600082825401925050819055505b8173ffffffffffffffffffffffffffffffffffffffff168373ffffffffffffffffffffffffffffffffffffffff167fddf252ad1be2c89b69c2b068fc378daa952ba7f163c4a11628f55a4df523b3ef8360405161055b9190610a04565b60405180910390a3505050565b6000600560009054906101000a900460ff16905090565b600080fd5b6000819050919050565b61059781610584565b81146105a257600080fd5b50565b6000815190506105b48161058e565b92915050565b6000602082840312156105d0576105cf61057f565b5b60006105de848285016105a5565b91505092915050565b600081519050919050565b7f4e487b7100000000000000000000000000000000000000000000000000000000600052604160045260246000fd5b7f4e487b7100000000000000000000000000000000000000000000000000000000600052602260045260246000fd5b6000600282049050600182168061066857607f821691505b60208210810361067b5761067a610621565b5b50919050565b60008190508160005260206000209050919050565b60006020601f8301049050919050565b600082821b905092915050565b6000600883026106e37fffffffffffffffffffffffffffffffffffffffffffffffffffffffffffffffff826106a6565b6106ed86836106a6565b95508019841693508086168417925050509392505050565b6000819050919050565b600061072a61072561072084610584565b610705565b610584565b9050919050565b6000819050919050565b6107448361070f565b61075861075082610731565b8484546106b3565b825550505050565b600090565b61076d610760565b61077881848461073b565b505050565b5b8181101561079c57610791600082610765565b60018101905061077e565b5050565b601f8211156107e1576107b281610681565b6107bb84610696565b810160208510156107ca578190505b6107de6107d685610696565b83018261077d565b50505b505050565b600082821c905092915050565b6000610804600019846008026107e6565b1980831691505092915050565b600061081d83836107f3565b9150826002028217905092915050565b610836826105e7565b67ffffffffffffffff81111561084f5761084e6105f2565b5b6108598254610650565b6108648282856107a0565b600060209050601f8311600181146108975760008415610885578287015190505b61088f8582610811565b8655506108f7565b601f1984166108a586610681565b60005b828110156108cd578489015182556001820191506020850194506020810190506108a8565b868310156108ea57848901516108e6601f8916826107f3565b8355505b6001600288020188555050505b505050505050565b600073ffffffffffffffffffffffffffffffffffffffff82169050919050565b600061092a826108ff565b9050919050565b61093a8161091f565b82525050565b60006020820190506109556000830184610931565b92915050565b7f4e487b7100000000000000000000000000000000000000000000000000000000600052601160045260246000fd5b600061099582610584565b91506109a083610584565b92508282019050808211156109b8576109b761095b565b5b92915050565b6109c781610584565b82525050565b60006060820190506109e26000830186610931565b6109ef60208301856109be565b6109fc60408301846109be565b949350505050565b6000602082019050610a1960008301846109be565b92915050565b61141980610a2e6000396000f3fe608060405234801561001057600080fd5b506004361061010b5760003560e01c806370a08231116100a25780638da5cb5b116100715780638da5cb5b1461026e57806395d89b411461028c578063a9059cbb146102aa578063dd62ed3e146102da578063f2fde38b1461030a5761010b565b806370a082311461020e578063715018a61461023e57806379cc6790146102485780638456cb59146102645761010b565b8063313ce567116100de578063313ce567146101ac5780633f4ba83a146101ca57806342966c68146101d45780635c975abb146101f05761010b565b806306fdde0314610110578063095ea7b31461012e57806318160ddd1461015e57806323b872dd1461017c575b600080fd5b610118610326565b6040516101259190611040565b60405180910390f35b610148600480360381019061014391906110fb565b6103b8565b6040516101559190611156565b60405180910390f35b6101666103db565b6040516101739190611180565b60405180910390f35b6101966004803603810190610191919061119b565b6103e5565b6040516101a39190611156565b60405180910390f35b6101b4610414565b6040516101c1919061120a565b60405180910390f35b6101d261041d565b005b6101ee60048036038101906101e99190611225565b61042f565b005b6101f8610443565b6040516102059190611156565b60405180910390f35b61022860048036038101906102239190611252565b61045a565b6040516102359190611180565b60405180910390f35b6102466104a2565b005b610262600480360381019061025d91906110fb565b6104b6565b005b61026c6104d6565b005b6102766104e8565b604051610283919061128e565b60405180910390f35b610294610512565b6040516102a19190611040565b60405180910390f35b6102c460048036038101906102bf91906110fb565b6105a4565b6040516102d19190611156565b60405180910390f35b6102f460048036038101906102ef91906112a9565b6105c7565b6040516103019190611180565b60405180910390f35b610324600480360381019061031f9190611252565b61064e565b005b60606003805461033590611318565b80601f016020809104026020016040519081016040528092919081815260200182805461036190611318565b80156103ae5780601f10610383576101008083540402835291602001916103ae565b820191906000526020600020905b81548152906001019060200180831161039157829003601f168201915b5050505050905090565b6000806103c36106d4565b90506103d08185856106dc565b600191505092915050565b6000600254905090565b6000806103f06106d4565b90506103fd8582856106ee565b610408858585610782565b60019150509392505050565b60006012905090565b610425610876565b61042d6108fd565b565b61044061043a6106d4565b82610960565b50565b6000600560009054906101000a900460ff16905090565b60008060008373ffffffffffffffffffffffffffffffffffffffff1673ffffffffffffffffffffffffffffffffffffffff168152602001908152602001600020549050919050565b6104aa610876565b6104b460006109e2565b565b6104c8826104c26106d4565b836106ee565b6104d28282610960565b5050565b6104de610876565b6104e6610aa8565b565b6000600560019054906101000a900473ffffffffffffffffffffffffffffffffffffffff16905090565b60606004805461052190611318565b80601f016020809104026020016040519081016040528092919081815260200182805461054d90611318565b801561059a5780601f1061056f5761010080835404028352916020019161059a565b820191906000526020600020905b81548152906001019060200180831161057d57829003601f168201915b5050505050905090565b6000806105af6106d4565b90506105bc818585610782565b600191505092915050565b6000600160008473ffffffffffffffffffffffffffffffffffffffff1673ffffffffffffffffffffffffffffffffffffffff16815260200190815260200160002060008373ffffffffffffffffffffffffffffffffffffffff1673ffffffffffffffffffffffffffffffffffffffff16815260200190815260200160002054905092915050565b610656610876565b600073ffffffffffffffffffffffffffffffffffffffff168173ffffffffffffffffffffffffffffffffffffffff16036106c85760006040517f1e4fbdf70000000000000000000000000000000000000000000000000000000081526004016106bf919061128e565b60405180910390fd5b6106d1816109e2565b50565b600033905090565b6106e98383836001610b0b565b505050565b60006106fa84846105c7565b90507fffffffffffffffffffffffffffffffffffffffffffffffffffffffffffffffff811461077c578181101561076c578281836040517ffb8f41b200000000000000000000000000000000000000000000000000000000815260040161076393929190611349565b60405180910390fd5b61077b84848484036000610b0b565b5b50505050565b600073ffffffffffffffffffffffffffffffffffffffff168373ffffffffffffffffffffffffffffffffffffffff16036107f45760006040517f96c6fd1e0000000000000000000000000000000000000000000000000000000081526004016107eb919061128e565b60405180910390fd5b600073ffffffffffffffffffffffffffffffffffffffff168273ffffffffffffffffffffffffffffffffffffffff16036108665760006040517fec442f0500000000000000000000000000000000000000000000000000000000815260040161085d919061128e565b60405180910390fd5b610871838383610ce2565b505050565b61087e6106d4565b73ffffffffffffffffffffffffffffffffffffffff1661089c6104e8565b73ffffffffffffffffffffffffffffffffffffffff16146108fb576108bf6106d4565b6040517f118cdaa70000000000000000000000000000000000000000000000000000000081526004016108f2919061128e565b60405180910390fd5b565b610905610cf2565b6000600560006101000a81548160ff0219169083151502179055507f5db9ee0a495bf2e6ff9c91a7834c1ba4fdd244a5e8aa4e537bd38aeae4b073aa6109496106d4565b604051610956919061128e565b60405180910390a1565b600073ffffffffffffffffffffffffffffffffffffffff168273ffffffffffffffffffffffffffffffffffffffff16036109d25760006040517f96c6fd1e0000000000000000000000000000000000000000000000000000000081526004016109c9919061128e565b60405180910390fd5b6109de82600083610ce2565b5050565b6000600560019054906101000a900473ffffffffffffffffffffffffffffffffffffffff16905081600560016101000a81548173ffffffffffffffffffffffffffffffffffffffff021916908373ffffffffffffffffffffffffffffffffffffffff1602179055508173ffffffffffffffffffffffffffffffffffffffff168173ffffffffffffffffffffffffffffffffffffffff167f8be0079c531659141344cd1fd0a4f28419497f9722a3daafe3b4186f6b6457e060405160405180910390a35050565b610ab0610d32565b6001600560006101000a81548160ff0219169083151502179055507f62e78cea01bee320cd4e420270b5ea74000d11b0c9f74754ebdbfc544b05a258610af46106d4565b604051610b01919061128e565b60405180910390a1565b600073ffffffffffffffffffffffffffffffffffffffff168473ffffffffffffffffffffffffffffffffffffffff1603610b7d5760006040517fe602df05000000000000000000000000000000000000000000000000000000008152600401610b74919061128e565b60405180910390fd5b600073ffffffffffffffffffffffffffffffffffffffff168373ffffffffffffffffffffffffffffffffffffffff1603610bef5760006040517f94280d62000000000000000000000000000000000000000000000000000000008152600401610be6919061128e565b60405180910390fd5b81600160008673ffffffffffffffffffffffffffffffffffffffff1673ffffffffffffffffffffffffffffffffffffffff16815260200190815260200160002060008573ffffffffffffffffffffffffffffffffffffffff1673ffffffffffffffffffffffffffffffffffffffff168152602001908152602001600020819055508015610cdc578273ffffffffffffffffffffffffffffffffffffffff168473ffffffffffffffffffffffffffffffffffffffff167f8c5be1e5ebec7d5bd14f71427d1e84f3dd0314c0f7b2291e5b200ac8c7c3b92584604051610cd39190611180565b60405180910390a35b50505050565b610ced838383610d73565b505050565b610cfa610443565b610d30576040517f8dfc202b00000000000000000000000000000000000000000000000000000000815260040160405180910390fd5b565b610d3a610443565b15610d71576040517fd93c066500000000000000000000000000000000000000000000000000000000815260040160405180910390fd5b565b610d7b610d32565b610d86838383610d8b565b505050565b600073ffffffffffffffffffffffffffffffffffffffff168373ffffffffffffffffffffffffffffffffffffffff1603610ddd578060026000828254610dd191906113af565b92505081905550610eb0565b60008060008573ffffffffffffffffffffffffffffffffffffffff1673ffffffffffffffffffffffffffffffffffffffff16815260200190815260200160002054905081811015610e69578381836040517fe450d38c000000000000000000000000000000000000000000000000000000008152600401610e6093929190611349565b60405180910390fd5b8181036000808673ffffffffffffffffffffffffffffffffffffffff1673ffffffffffffffffffffffffffffffffffffffff16815260200190815260200160002081905550505b600073ffffffffffffffffffffffffffffffffffffffff168273ffffffffffffffffffffffffffffffffffffffff1603610ef95780600260008282540392505081905550610f46565b806000808473ffffffffffffffffffffffffffffffffffffffff1673ffffffffffffffffffffffffffffffffffffffff168152602001908152602001600020600082825401925050819055505b8173ffffffffffffffffffffffffffffffffffffffff168373ffffffffffffffffffffffffffffffffffffffff167fddf252ad1be2c89b69c2b068fc378daa952ba7f163c4a11628f55a4df523b3ef83604051610fa39190611180565b60405180910390a3505050565b600081519050919050565b600082825260208201905092915050565b60005b83811015610fea578082015181840152602081019050610fcf565b60008484015250505050565b6000601f19601f8301169050919050565b600061101282610fb0565b61101c8185610fbb565b935061102c818560208601610fcc565b61103581610ff6565b840191505092915050565b6000602082019050818103600083015261105a8184611007565b905092915050565b600080fd5b600073ffffffffffffffffffffffffffffffffffffffff82169050919050565b600061109282611067565b9050919050565b6110a281611087565b81146110ad57600080fd5b50565b6000813590506110bf81611099565b92915050565b6000819050919050565b6110d8816110c5565b81146110e357600080fd5b50565b6000813590506110f5816110cf565b92915050565b6000806040838503121561111257611111611062565b5b6000611120858286016110b0565b9250506020611131858286016110e6565b9150509250929050565b60008115159050919050565b6111508161113b565b82525050565b600060208201905061116b6000830184611147565b92915050565b61117a816110c5565b82525050565b60006020820190506111956000830184611171565b92915050565b6000806000606084860312156111b4576111b3611062565b5b60006111c2868287016110b0565b93505060206111d3868287016110b0565b92505060406111e4868287016110e6565b9150509250925092565b600060ff82169050919050565b611204816111ee565b82525050565b600060208201905061121f60008301846111fb565b92915050565b60006020828403121561123b5761123a611062565b5b6000611249848285016110e6565b91505092915050565b60006020828403121561126857611267611062565b5b6000611276848285016110b0565b91505092915050565b61128881611087565b82525050565b60006020820190506112a3600083018461127f565b92915050565b600080604083850312156112c0576112bf611062565b5b60006112ce858286016110b0565b92505060206112df858286016110b0565b9150509250929050565b7f4e487b7100000000000000000000000000000000000000000000000000000000600052602260045260246000fd5b6000600282049050600182168061133057607f821691505b602082108103611343576113426112e9565b5b50919050565b600060608201905061135e600083018661127f565b61136b6020830185611171565b6113786040830184611171565b949350505050565b7f4e487b7100000000000000000000000000000000000000000000000000000000600052601160045260246000fd5b60006113ba826110c5565b91506113c5836110c5565b92508282019050808211156113dd576113dc611380565b5b9291505056fea264697066735822122098c35af6de37228c502cff788aa720cd5da0b028ff163bf3cecdcdfa3623cb3e64736f6c63430008190033",
  "linkReferences": {},
  "deployedLinkReferences": {}
}